:020000040800F2
:10000000802E002089030008054300088B4100086A
:10001000014300084F09000889740008000000002F
:100020000000000000000000000000009B480008E5
:10003000390A00080000000077450008AF480008B2
:10004000A3030008A3030008A3030008A3030008F8
:10005000A3030008A3030008A3030008A3030008E8
:10006000A3030008A3030008A3030008A3030008D8
:10007000A3030008A3030008A3030008A3030008C8
:10008000A3030008A3030008A3030008A3030008B8
:10009000A3030008A3030008A3030008A3030008A8
:1000A000A3030008A3030008A3030008A303000898
:1000B000A3030008A3030008A3030008A303000888
:1000C000A3030008A3030008A3030008A303000878
:1000D000A3030008A3030008A3030008A303000868
:1000E000A3030008A303000800000000A303000806
:1000F000A3030008A3030008A3030008A303000848
:10010000A3030008A3030008A3030008A303000837
:10011000A3030008A3030008A3030008A303000827
:10012000A3030008A3030008A3030008A303000817
:10013000A3030008A3030008A3030008A303000807
:1001400000000000000000000000000000000000AF
:10015000A3030008A3030008A3030008A3030008E7
:10016000A3030008A3030008A3030008A3030008D7
:10017000A303000809430008A303000800000000CF
:10018000A3030008A3030008A3030008A3030008B7
:10019000A3030008A3030008A3030008A3030008A7
:1001A000A3030008A3030008A3030008A303000897
:1001B000A3030008A3030008A3030008A303000887
:1001C000A3030008A3030008A3030008A303000877
:1001D000A3030008A3030008A3030008A303000867
:1001E000A3030008A3030008A3030008A303000857
:1001F000A3030008A3030008A3030008A303000847
:10020000A3030008A3030008A3030008A303000836
:10021000A3030008A3030008ED4A0008A303000895
:10022000A3030008A3030008A303000800000000C4
:10023000A3030008A303000800000000A3030008B4
:10024000A3030008A3030008A3030008A3030008F6
:10025000A3030008A3030008A3030008A3030008E6
:10026000A3030008A3030008A3030008A3030008D6
:10027000A3030008A3030008A30300080000000074
:10028000A3030008A3030008A30300080000000064
:1002900000000000A303000800F002F800F064F87A
:1002A0000AA090E8000C82448344AAF10107DA45D1
:1002B00001D100F059F8AFF2090EBAE80F0013F0BF
:1002C000010F18BFFB1A43F001031847A07C000080
:1002D000C07C00000A444FF0000C10F8013B13F002
:1002E000070408BF10F8014B1D1108BF10F8015B8F
:1002F000641E05D010F8016B641E01F8016BF9D182
:1003000013F0080F1EBF10F8014BAD1C0C1B09D1D8
:100310006D1E58BF01F801CBFAD505E014F8016B4A
:1003200001F8016B6D1EF9D59142D6D370470000DC
:100330000023002400250026103A28BF78C1FBD8EE
:10034000520728BF30C148BF0B607047642900F0D6
:100350009F80732900F0BD82002070471FB507F011
:10036000EFFD1FBD10B510BD00F0B7FA1146FFF745
:10037000F5FF07F04DFA00F0D5FA03B4FFF7F2FFEE
:1003800003BC00F0DDFA0000094880470948004737
:10039000FEE7FEE7FEE7FEE7FEE7FEE7FEE7FEE735
:1003A000FEE7FEE704480549054A064B7047000092
:1003B000F14900089902000880280020802E0020C2
:1003C000802A0020802A00200FB41CB5074B06AA03
:1003D0007B4469460090059800F051FA0020694678
:1003E00000F060FA1CBC5DF814FB0000D1040000B2
:1003F00070B5044685690068C10601D5302600E065
:100400002026C00707D070BDD4E9012130469047AF
:10041000206A401C20626D1EF6D570BD70B5044682
:1004200085690078C00707D170BDD4E9012120207B
:100430009047206A401C20626D1EF6D570BD70B5D5
:100440000C460546012A05D02878800600D5EA69C1
:10045000002302E0012305E05B1C934202D2E05C32
:100460000028F9D1A869E618C01AA861286A1844BA
:1004700028622846FFF7BCFF04E0D5E9012114F803
:10048000010B9047B442F8D32846FFF7C7FF70BD71
:100490002DE9F0410646002410687529314616A55D
:1004A00010D0AFF30080002802DA404213A507E025
:1004B00031688A0701D512A502E0490704D511A5C4
:1004C000012401E0AFF3008000210A2206F1240795
:1004D00009E0B0FBF2FCB0FBF2F302FB1C00303091
:1004E00078541846491C0028F3D123462A46304642
:1004F000BDE8F04100F064B9000000002D000000EC
:100500002B000000200000002DE9F05F8946044622
:100510004FF0000ADFF824B1FB44C0F820A02046C9
:10052000E168884700287DD0252806D0D4E901213C
:100530009047206A401C2062F1E700255F46204674
:10054000E16888472028064607DB312E05D2B81916
:1005500010F8200C08B10543F1E7A80701D525F0F4
:100560000405C4F81CA00027C4F818A02A2E09D03E
:10057000304606F0F5FF38B304EB8708303EC8F884
:10058000186019E059F8041B204604EB87029161BA
:10059000E1688847012F064618D1E069002820DA73
:1005A00025F020051DE0D8F8180000EB800006EBD0
:1005B00040003038C8F818002046E16888470646F1
:1005C00006F0CEFF0028EED1012F0AD02E2E08D142
:1005D0002046E16888477F1C0646022F45F020052B
:1005E000C4DBA069002803DA404245F00105A061A0
:1005F000E80701D025F01005A6B1A6F141001928A1
:1006000002D8203645F400654A463146204625602A
:100610004D46FFF79BFE60B1012807D0ED1D25F088
:10062000070000E007E000F1080978E705F1040998
:1006300075E730467AE7206ABDE8F09F3E7A000011
:1006400010B5431C02E010F8011B71B18107FAD10B
:100650004FF0013202C88C1A8C4314EAC211F9D04F
:10066000C01A0A0603D0C01E10BDC01A10BD0A046D
:1006700001D0801E10BD0902FCD0401E10BD032A0F
:1006800040F2308010F0030C00F0158011F8013BAF
:10069000BCF1020F624498BF11F801CB00F8013B96
:1006A00038BF11F8013BA2F1040298BF00F801CB5A
:1006B00038BF00F8013B11F0030300F02580083A31
:1006C000C0F0088051F8043B083A51F804CBA0E888
:1006D0000810F5E7121D5CBF51F8043B40F8043BDD
:1006E000AFF30080D20724BF11F8013B11F801CB12
:1006F00048BF11F8012B24BF00F8013B00F801CBE3
:1007000048BF00F8012B704710B5203AC0F00B80AD
:10071000B1E81850203AA0E81850B1E81850A0E805
:100720001850BFF4F5AF5FEA027C24BFB1E818505F
:10073000A0E8185044BF18C918C0BDE810405FEACF
:10074000827C24BF51F8043B40F8043B08BF70474B
:10075000D20728BF31F8023B48BF11F8012B28BF50
:1007600020F8023B48BF00F8012B70474FF0000211
:1007700000B5134694469646203922BFA0E80C5097
:10078000A0E80C50B1F12001BFF4F7AF090728BF72
:10079000A0E80C5048BF0CC05DF804EB890028BFEE
:1007A00040F8042B08BF704748BF20F8022B11F017
:1007B000804F18BF00F8012B704770477047704793
:1007C0002DE9F0470D4699469246044600F124086B
:1007D0000168880604D5E06921F01001216000E07D
:1007E0000120A84201DD471B00E00027A1697A191A
:1007F00002EB0900081AA0612078C00602D4204646
:10080000FFF7F6FD002608E0D4E901211AF80600FA
:100810009047206A401C761C20624E45F4DB20780D
:10082000C0060AD52046FFF7E3FD06E0D4E9012122
:1008300030209047206A401C2062381EA7F1010733
:10084000F4DC07E0D4E9012118F805009047206A9C
:10085000401C2062281EA5F10105F3DC2046FFF7AD
:10086000DDFD2078000602D50220BDE8F0870120DA
:10087000FBE7000001694A1C02610878704700B577
:100880008FB0CDE901310021059105497944CDE9C9
:10089000031011466846FFF737FE0FB000BD000099
:1008A000E5FFFFFF0A6802F8010B0A60704710B508
:1008B000436913B1AFF3008001E0FFF7C0FD0120F1
:1008C00010BD127800F124010A7000224A70012242
:1008D000EDE711684FF0FF32E9E7754600F02CF8BC
:1008E000AE4605006946534620F00700854618B01D
:1008F00020B5FFF757FDBDE820404FF000064FF050
:1009000000074FF000084FF0000B21F00701AC4644
:10091000ACE8C009ACE8C009ACE8C009ACE8C00963
:100920008D46704710B50446AFF300802046BDE801
:100930001040FFF722BD0000004870471C2800202F
:1009400001491820ABBEFEE726000200704700BF39
:10095000FEE70346042B15D007DC7BB1012B0ED03C
:10096000022B0DD0032B12D10BE0202B0BD0212B0F
:100970000AD0222B09D0232B09D107E008E007E099
:1009800006E005E004E003E002E001E000E000BF73
:1009900000BF0020704700207047000010B5002203
:1009A0000449054804F0ABFB0449034804F098FBF4
:1009B000002010BDCC140020F0070020CC0C00203B
:1009C00070B504460D462146084804F089FB0748E7
:1009D00004F052FB288882B22146054806F056FDF5
:1009E000034807F051F9002070BD0000F007002017
:1009F0001424002010B503460C460021084610BD03
:100A00002DE9F04104460D4600260A48D0F8BC7294
:100A1000D7F8140210B10120BDE8F0812A46214622
:100A2000044804F06CFB034804F01CFC0646304606
:100A3000F2E70000F0070020704772B600BFFEE743
:100A400010B501F001037BB1134BDB6823F4E663BF
:100A5000114CE36042F0040343EA002343F08003B7
:100A6000E46823430C4CE36001F00203022B12D133
:100A70000A4B1B6823F4E663074CC4F80C3142F0C0
:100A8000040343EA002343F08003D4F80C412343DA
:100A9000014CC4F80C3110BD002000520C21005252
:100AA00001F00302032A1BD1234AD26822F030024C
:100AB000214BDA60214A126822F03002C3F80C217F
:100AC0001A46D2680243DA601A46D2F80C21024371
:100AD000C3F80C211A46926942F010029A6129E08B
:100AE00001F0010272B1144AD26822F03002124BB6
:100AF000DA601A46D2680243DA601A46D26842F0D7
:100B00008802DA6001F00202022A13D10B4A12684D
:100B100022F03002084BC3F80C211A46D2F80C21FF
:100B20000243C3F80C211A46D2F80C2142F0880285
:100B3000C3F80C2170470000002000520C21005225
:100B40002DE9F04107460E460424002500F050FB35
:100B50008046022E00D1344C0BE0781C48B100F0E6
:100B600047FBA0EB0800B84200D817B90320BDE846
:100B7000F0812E482040A04208D12D480069204035
:100B8000A04201D101200DE000200BE029480068BF
:100B900024F00041084024F00041884201D10120A6
:100BA00000E000200028D8D1012E05D1204800699E
:100BB000214900EA010505E01E4800681F49084078
:100BC00040F0004525F0004090B11D488069284361
:100BD0001B49886115482840A84202D11448456144
:100BE00004E025F000401349091D08600120BEE71C
:100BF000012E0AD10E48006900F48030B0F5803F24
:100C00000FD130040A4948610BE00A48006800F43B
:100C10008030B0F5803F04D14FF480300549091D84
:100C200008600020A3E70000040000800F00EF1F11
:100C300000200052102100520000EE170000EE9735
:100C4000F823002030B5014600220024CB78002094
:100C500006E00D5C1544EAB2A518ECB2451CE8B2FA
:100C60001D1DA842F5DB181D085C904205D1581DDA
:100C7000085CA04201D1012030BD0020FCE700004B
:100C800070B50A480468001D0568001D06683444F4
:100C900054B108220649204603F079FA0422044997
:100CA0001031284603F073FA70BD000000E8F11F10
:100CB0006600002070B5044600F09AFA0646254604
:100CC000681C10B104480078054400BF00F090FA99
:100CD000801BA842FAD370BD9C0000202DE9F04192
:100CE00004460E46002700BF4848007D012802D177
:100CF0000220BDE8F08101204449087500BF0020B2
:100D00008861207900F0010030B101214CF25030AF
:100D1000FFF716FF00B10127207900F0020002283A
:100D200006D102214CF25030FFF70AFF00B1012733
:100D3000002F63D12068012828D161682069FFF75E
:100D4000AFFE207900F0010060B101214CF250307B
:100D5000FFF7F6FE00B101272D48C06820F008001B
:100D60002B49C860207900F00200022846D10221F8
:100D70004CF25030FFF7E4FE00B10127254800682F
:100D800020F008002249C1F80C0137E04FF0FF3095
:100D90003060A5682CE0284622696168FFF750FEA4
:100DA000207900F0010060B101214CF25030FFF7D2
:100DB000C7FE07461648C06840F2047188431449CC
:100DC000C860207900F0020002280DD102214CF207
:100DD0005030FFF7B5FE07460E48006840F2047138
:100DE00088430B49C1F80C010FB1356005E06D1C5B
:100DF000D4E902100844A842CDD800BF00BF0020AB
:100E00000249087500BF384673E70000F823002048
:100E1000002000520C2100520E48C06840F0010032
:100E20000C49C8600846C06800F0010008B90120FC
:100E300070470948006840F001000649C1F80C01FC
:100E40000548006800F0010008B90120F0E7002023
:100E5000EEE70000002000520C2100522DE9F05F67
:100E600083460C461746A046B9464FF0080A00BF15
:100E70004248007D012802D10220BDE8F09F0120F8
:100E80003E49087500BFB4F1006F04D3B4F1016F9F
:100E900001D2012509E0B4F1016F04D3B4F1026F6E
:100EA00001D2022501E00120E7E7002033498861F3
:100EB00029464CF25030FFF743FE0646002E55D12E
:100EC000012D06D12E48C06840F002002C49C860B0
:100ED00006E02C48006840F002002949C1F80C01E6
:100EE00000BF00BF00BFBFF36F8F00BF00BF00BFD8
:100EF00000BF00BF00BFBFF34F8F00BF00BF00BFE8
:100F000000BFD9F80000C8F8000008F1040809F192
:100F10000409AAF1010000F0FF0ABAF1000FF0D1B4
:100F200000BF00BF00BFBFF36F8F00BF00BF00BF97
:100F300000BF00BF00BFBFF34F8F00BF00BF00BFA7
:100F400029464CF25030FFF7FBFD0646012D06D135
:100F50000B48C06820F002000949C86006E0094853
:100F6000006820F002000649C1F80C0100BF002013
:100F70000249087500BF30467FE70000F8230020D3
:100F8000002000520C2100521348C06800F00100FC
:100F900058B1124810494860114848600846C06876
:100FA00000F0010008B1012070470E48006800F011
:100FB000010070B109480B49083908600848064922
:100FC000C1F804010748006800F0010008B10120E1
:100FD000EAE70020E8E7000000200052230167450F
:100FE000AB89EFCD0C210052F8B502460B4600212B
:100FF0006F4DD7E001278F401E6806EA0704002CDA
:1010000072D01E7906F00306012E04D01E7906F078
:101010000306022E13D190684F000326BE40B04352
:101020004F00DE68BE4030439060506801268E401D
:10103000B0431E79C6F300168E40304350601E79CF
:1010400006F00306032E09D0D0684F000326BE40E9
:10105000B0434F009E68BE403043D0601E7906F01A
:101060000306022E13D1CF0802F1200656F82700FE
:101070004E07F70E0F26BE40B0434F07FF0E1E6906
:10108000BE403043CF0802F1200646F82700106822
:101090004F000326BE40B0431E7906F003064F0002
:1010A000BE40304310605E6806F44036002E78D0B3
:1010B00000BF404E366846F002063E4F3E603E4658
:1010C000366806F00206009600BF00BF3A4E8F0851
:1010D00056F827008E07370F0F26BE40B043374E15
:1010E000B24202D100262EE05BE0354EB24201D181
:1010F000012628E0334EB24201D1022623E0324ECF
:10110000B24201D103261EE0304EB24201D1042684
:1011100019E02F4EB24201D1052614E02D4EB24205
:1011200001D106260FE02C4EB24201D107260AE07B
:101130002A4EB24201D1082605E0294EB24201D121
:10114000092600E00A268F073F0FBE4030431A4EA3
:101150008F0846F827004FF0B0463068A0435E681D
:1011600006F4801606B120434FF0B0463060706838
:10117000A0435E6806F4001606B120434FF0B04667
:1011800070606868A0435E6806F4003606B12043CC
:1011900068602868A0435E6806F4803606B1204384
:1011A0002860491C1E68CE40002E7FF423AFF8BD96
:1011B00080000058F4440258080400580000025807
:1011C0000004025800080258000C0258001002588F
:1011D0000014025800180258001C0258002002583F
:1011E0000024025801480068000C70470010005CA1
:1011F0000148006870470000940000200348006820
:1012000003490978084401490860704794000020A8
:101210009C00002010B5032000F0DAF802F0F0F88E
:1012200010490968C1F303210F4A515C01F01F0105
:1012300020FA01F40B48006800F00F001146085C2A
:1012400000F01F0024FA00F0084908600848046014
:101250000F2000F00FF808B1012010BD00F054F885
:101260000020FAE7184402584A7F0008A400002032
:10127000A000002070B58AB00446102C0AD20022CB
:101280002146762000F066F8762000F04FF81948E5
:10129000046002E001200AB070BD00BF164800687B
:1012A00040F48020144908600846006800F480205B
:1012B000009000BF00BF01A902A802F033F802F0BD
:1012C0008DF845000D48B5FBF0F0461E0C480D4961
:1012D000086040F2E7310B48C160466000210161BF
:1012E000816002F0D2FD18B9064802F007FED2E78D
:1012F0000120D0E798000020F044025840420F003F
:1013000000480140A407002008B500BF0648006857
:1013100040F00200044908600846006800F002003E
:10132000009000BF00BF08BDF444025801460846C3
:1013300000280DDB00BF00BF00F01F0301229A4010
:1013400043099B0003F1E023C3F8002100BF00BF65
:1013500000BF70472DE9F05F80460D46164606F047
:10136000C3F8074639462A46334601F00700C0F164
:10137000070ABAF1040F02D94FF0040A01E0C0F1E4
:10138000070AD14600F1040ABAF1070F02D24FF062
:10139000000A01E0A0F1030AD4464FF0010A0AFA5C
:1013A00009FAAAF1010A0AEA020A0AFA0CFA4FF04B
:1013B000010B0BFA0CFBABF1010B0BEA030B4AEA36
:1013C0000B042146404606F097F8BDE8F09F000068
:1013D00000BF00F00702064B19684FF6FF031940E3
:1013E000044B0B4343EA0221014B196000BF7047D5
:1013F0000CED00E00000FA0501460A680120C1F882
:101400000005002081F8F404906940F000609061CC
:10141000506D024B184350650020704703000010C8
:10142000704702461068416200207047F0B50346DD
:1014300015461868446A21B944EA05401E68B0623E
:1014400019E01868806A04EB1044002208E018686C
:1014500000F5827050F8220004EB1044501CC2B218
:10146000481E9042F3D844EA0547186800F5827098
:101470004E1E40F826700020F0BD10B50446D4F88A
:10148000080504F071FB10BD70B504460D4605EB70
:10149000C50304F13C0101EB8301CA682946D4F875
:1014A000080504F05CFA70BD70B504460D4605EB06
:1014B000C50304F51F7101EB8301CA682946D4F8FE
:1014C000080504F0D0FA70BD10B50446D4F808053C
:1014D00004F04DFB10BD2DE9F04104460D4605F02A
:1014E0008000802808D105F00F0000EBC00104F156
:1014F0003C0000EB810607E005F00F0000EBC001A7
:1015000004F51F7000EB81063146206805F078FD78
:1015100007463846BDE8F08170B504460E4606F031
:10152000800080280AD106F00F0000EBC00104F112
:101530003C0000EB81050120687009E006F00F0017
:1015400000EBC00104F51F7000EB810500206870FE
:1015500006F00F00287000BF94F8BC04012801D1E8
:10156000022070BD012084F8BC0400BF2946206819
:1015700005F0E2F800BF002084F8BC0400BF00BF03
:10158000EFE770B504460E4606F00F00616888422A
:1015900001D9012070BD06F0800080280AD106F034
:1015A0000F0000EBC00104F13C0000EB81050120BD
:1015B000687009E006F00F0000EBC00104F51F7031
:1015C00000EB8105002068700020A87006F00F0075
:1015D000287000BF94F8BC04012801D10220D9E78B
:1015E000012084F8BC0400BF2946206805F09AFA5F
:1015F00000BF002084F8BC0400BF00BFCAE7024659
:1016000001F00F0000EBC00302F51F7000EB830038
:10161000406970472DE9F04705460E4690461F4643
:101620004FF0000906F0800080280AD106F00F0074
:1016300000EBC00105F13C0000EB8104012060706B
:1016400009E006F00F0000EBC00105F51F7000EB8C
:1016500081040020607006F00F002070C4F808803C
:101660002771607808B120786083022F01D10020B3
:10167000607100BF95F8BC04012802D10220BDE8CA
:10168000F087012085F8BC0400BF2146286804F0DB
:101690005FFF00BF002085F8BC0400BF4846EEE7AE
:1016A0002DE9F04105460E461746984606F00F0014
:1016B00000EBC00105F51F7000EB8104E760C4F882
:1016C000108000206061607006F00F002070E868F4
:1016D000012800D1E7612A7B2146286805F0B6FA87
:1016E0000020BDE8F08170B504460D4605F00F00FE
:1016F0006168884201D9012070BD05F08000802812
:101700000AD105F00F0000EBC00104F13C0000EB32
:1017100081060120707007E005EBC50104F51F701C
:1017200000EB8106002070700120B07005F00F0002
:10173000307000BF94F8BC04012801D10220DBE71F
:10174000012084F8BC0400BF3146206805F031FA5E
:1017500005F00F0028B9217B04F2C442206805F08F
:10176000A9F900BF002084F8BC0400BF00BFC3E794
:101770002DE9F04105460E461746984606F00F0043
:1017800000EBC00105F13C0000EB8104E760C4F808
:101790001080002060610120607006F00F00207052
:1017A000E868012800D1E7612A7B2146286805F016
:1017B0004DFA0020BDE8F0812DE9FE4F0446D4F833
:1017C00000B05E46206805F002FD002874D1206854
:1017D00005F03CFD08B9BDE8FE8F40F608008059D1
:1017E000C0F30D20C4F8FC04206805F02FFD00F0C4
:1017F0000200022805D12068406900F0020021683B
:101800004861206805F022FD00F01000102845D145
:101810002068806920F0100021688861DBF8209042
:1018200009F00F0000EBC00104F51F7000EB810A06
:10183000C9F3434002281AD147F6F07009EA0000C4
:1018400030B3C9F30A125846DAF80C1005F003FD5C
:10185000C9F30A11DAF80C000844CAF80C00C9F3FD
:101860000A11DAF814000844CAF8140010E0C9F3A9
:10187000434006280CD1082204F2C441584605F022
:10188000EAFCC9F30A11DAF814000844CAF8140093
:101890002068806940F0100021688861206805F0A8
:1018A000D5FC00F40020B0F5002F7BD10025206886
:1018B00005F09CFC029072E003E3029800F0010046
:1018C000002868D0E9B2206805F0B3FC804608F033
:1018D000010048B1012106F5306000EB4510816040
:1018E0002946204602F04AFD08F00800082809D1E0
:1018F000082106F5306000EB45108160294620463E
:1019000002F00AFD08F01000102805D1102106F59C
:10191000306000EB4510816008F00200022824D1FD
:10192000DBF8140000F08000802807D140F60400A6
:10193000805940F4806140F60400815105EBC501F7
:1019400004F51F7000EB810A9AF80300012806D104
:1019500000208AF80300E9B2204600F0BDFA022117
:1019600006F5306000EB4510816008F0200020286B
:1019700005D1202106F5306000EB4510816008F4A8
:101980000050B0F5005F06D14FF4005106F530600D
:1019900000EB451081606D1C02984008029002988F
:1019A00000288AD1206805F051FC00F48020B0F5B1
:1019B000802F7DD1206805F00FFC029000259AE071
:1019C000029800F00100002873D0E9B2206805F009
:1019D00017FC804608F00100F0B305F00F0101206C
:1019E0008840019040F634008159019821EA0000B6
:1019F00040F634018851012106F5106000EB4510D6
:101A00008160E068012824D105EBC50104F13C00A8
:101A100000EB810005EBC502C16804F13C0000EB5E
:101A200082008068014405EBC50204F13C0000EB34
:101A30008200C1606DB905EBC50104F13C0000EB0B
:101A40008100006928B904F2C4420121206805F030
:101A500031F8E9B2204600E001E0FFF715FD08F09B
:101A60000800082805D1082106F5106000EB451094
:101A7000816008F01000102805D1102106F51060D3
:101A800000EB4510816008F04000402805D140215E
:101A900006F5106000EB4510816008F00200022896
:101AA0001DD12946584605F053FB05EBC50101E061
:101AB00025E01CE004F13C0000EB810A9AF80300E9
:101AC000012806D100208AF80300E9B2204600F080
:101AD000FAF9022106F5106000EB4510816008F06C
:101AE0008000802803D12946204602F0E9FC6D1CC5
:101AF000029840080290029800287FF461AF2068A5
:101B000005F0A4FB00F00040B0F1004F1CD140F6FE
:101B10000400805920F0010140F60400815194F83E
:101B2000F404012807D1002084F8F40400212046A1
:101B3000FFF776FC02E0204600F004FB20684069D5
:101B400000F0004021684861206805F07FFB00F448
:101B50000060B0F5006F0ED140F60800805900F02B
:101B6000010010B1204600F045FB2068406900F4F8
:101B7000006021684861206805F068FB00F00060A3
:101B8000B0F1006F19D12068406900F00060216851
:101B9000486194F8F40468B9012084F8F4042068DA
:101BA000406DC0F38300C4F8F80401212046FFF71C
:101BB00037FC02E0204600F01DFB206805F046FBE4
:101BC00000F48050B0F5805F7ED140F6040080596B
:101BD00020F0010140F6040081511021206805F039
:101BE000B7FA002732E04FF67F3106F5106000EBC0
:101BF0004710816006F5106000EB4710006820F484
:101C0000001106F5106000EB471001604FF67F31C0
:101C100006F5306000EB4710816006F5306000EBA0
:101C20004710006820F4001106F5306000EB471003
:101C3000016006F5306000EB4710006840F000617D
:101C400006F5306000EB471001607F1C6068B84209
:101C5000C9D840F61C00805940F0011140F61C0024
:101C60008151206B70B1D6F8840840F00B01C6F8A2
:101C7000841840F64400805940F00B0140F64400BF
:101C800081510FE040F61400805942F22B010843C5
:101C900040F614018851081F805940F00B014FF4A1
:101CA00001608151D6F8000820F4FE60C6F80008F3
:101CB000217B04F2C442206804F0FCFE20684069E5
:101CC00000F48050216800E000E04861206805F0E1
:101CD000BDFA00F40050B0F5005F17D1206804F0A1
:101CE0009FFC206805F060FA206101F051FB009034
:101CF000227C2068009905F031FB204600F00AFAAA
:101D00002068406900F4005021684861206805F0AF
:101D10009DFA00F00800082808D1204600F019FAC2
:101D20002068406900F0080021684861206805F0DB
:101D30008DFA00F08000802818D1DBF8180020F020
:101D40008000CBF8180001250DE005EBC50104F576
:101D50001F7000EB8100C078012803D1E9B2204652
:101D6000FFF7B9FB6D1C6068A842EED8206805F04B
:101D70006DFA00F48010B0F5801F2DD1012522E00E
:101D800006F5106000EB4510D0F8009005EBC5019A
:101D900004F13C0000EB81000079012812D109F028
:101DA0000040B0F1004F0DD1012105EBC50204F157
:101DB0003C0000EB8200C170E8B240F08001204698
:101DC000FFF789FB6D1C6068A842D9D8206840697C
:101DD00000F4801021684861206805F037FA00F4AB
:101DE0000010B0F5001F44D1012538E006F5306041
:101DF00000EB4510D0F8009005EBC50104F51F700D
:101E000000EB81000079012828D109F00040B0F1F1
:101E1000004F23D109F4803094F8FC1401F0010143
:101E200088421BD1012105EBC50204F51F7000EBB0
:101E30008200C170DBF8180040F08000CBF8180079
:101E4000DBF8140000F0800040B940F6040080592F
:101E500040F4007140F60400815103E06D1C60689D
:101E6000A842C3D800BF2068406900F40010216870
:101E70004861206805F0EAF900F08040B0F1804F39
:101E800008D12046FFF7F9FA2068406900F0804049
:101E900021684861206805F0D9F900F004000428A1
:101EA0000FD12068D0F8049009F00400042802D172
:101EB0002046FFF709FB2068406840EA09002168D6
:101EC000486000BF87E470B504460D462946D4F843
:101ED000080503F0BDFE70BD70B504460D462946E9
:101EE000D4F8080503F0D8FE70BD70B58AB004467A
:101EF00014B901200AB070BD266894F8BD0428B951
:101F0000002084F8BC04204600F0A8F8032084F8E0
:101F1000BD04F06B00F4807008B90021E160206816
:101F200004F0C0FD282204F110016846FEF7ECFB26
:101F300094E80F0004F088FB20B1022084F8BD046F
:101F40000120D7E70021206805F0B5F9002531E030
:101F5000012105EBC50204F13C0000EB8200417059
:101F600005EBC50104F13C0000F8215005EBC5016B
:101F700000EB81004583002105EBC50204F13C0024
:101F800000EB8200017105EBC50204F13C0000EB9F
:101F90008200816005EBC50204F13C0000EB820089
:101FA000C16005EBC50204F13C0000EB8200016159
:101FB000681CC5B26068A842CAD800252AE0002182
:101FC00005EBC50204F51F7000EB8200417005EBC4
:101FD000C50104F51F7000F82150002105EBC50272
:101FE00000EB8200017105EBC50204F51F7000EBE8
:101FF0008200816005EBC50204F51F7000EB8200D2
:10200000C16005EBC50204F51F7000EB82000161A1
:10201000681CC5B26068A842D1D8282204F110011A
:102020006846FEF771FB94E80F0004F04FFC20B106
:10203000022084F8BD0401205CE7002084F8380009
:10204000012084F8BD04606A012802D12046FFF710
:10205000D3F9206804F028FC00204BE710B5B8B095
:102060000446142132A8FEF781FBC02102A8FEF726
:102070007DFB25492068884243D14FF48021002010
:10208000CDE902104FF44010249002A800F006F9A8
:1020900008B1FEF7D2FC00F0F7F800BF1B4800685B
:1020A00040F00200194908600846006800F002008C
:1020B000019000BF00BF4FF44040329002203390A7
:1020C0000020349035900C20369032A91048FEF74D
:1020D0008BFF00BF0D480838006840F000700B49C6
:1020E000083908600846006800F00070019000BFE1
:1020F00000BF002211464D20FFF72CF94D20FFF7BD
:1021000015F938B010BD000000000440E04402584A
:102110000004025870B504460125206908B900255D
:1021200006E02069022801D1012501E0FEF785FCC7
:102130002946D4F8080503F058FED4F8080503F042
:10214000FFFD70BD10B50446D4F8080503F02EFE5F
:1021500010BD10B50446D4F8080503F032FE10BDDA
:1021600070B504460D4600BF94F8BC04012801D1A7
:10217000022070BD012084F8BC0400BF84F83850F0
:102180002946206805F0CBF800BF002084F8BC0485
:1021900000BF00BFEDE710B5044604F2C441D4F817
:1021A000080503F039FE10BD70B50446256800BF70
:1021B00094F8BC04012801D1022070BD012084F8EC
:1021C000BC0400BFE86B00F4807030B9A06A01283D
:1021D00003D1A86B40F48030A863206804F086FF28
:1021E000206804F04FFB00BF002084F8BC0400BF4F
:1021F00000BFE2E710B50446D4F8080503F069FE15
:102200002068D0F8000E40F001002168C1F8000EEF
:10221000206A28B10348006840F0060001490860C0
:1022200010BD000010ED00E070B5044615480068D0
:10223000C0F3800048B91348006800F00700A042CE
:1022400001D0012070BD0020FCE70E48006820F09E
:10225000070020430B490860FEF7CAFF054607E068
:10226000FEF7C6FF401BB0F57A7F01D90120E9E7F0
:10227000044808380068C0F340300028F0D000203F
:10228000E0E700000C4802580348006840F0807006
:1022900001490860704700000C4802582DE9F041E0
:1022A00004460025A8464FF00062D4E90010114012
:1022B0000020134659404040014331D1A06E48B13F
:1022C000B0F5801F0DD0B0F5001F11D0B0F5401F44
:1022D00016D114E0F948006840F40030F74908606E
:1022E00010E0022104F1080002F046F9054609E079
:1022F000022104F1280002F0F1F9054602E001E0B4
:10230000012500BF00BF55B9EC482430006820F417
:102310004010A16E0843E9492431086000E0A84656
:102320004FF48073D4E90010194000205940404018
:1023300001432ED1A06D05281BD2DFE800F0030A6F
:1023400011181900DD48006840F40030DB490860CE
:1023500011E0002104F1080002F00EF905460AE040
:10236000002104F1280002F0B9F9054603E002E07B
:1023700001E0012500BF00BF55B9D04824300068F6
:1023800020F00700A16D0843CC492431086000E02B
:10239000A8464FF40073D4E90010194000205940BA
:1023A0004040014334D1E06D802818D003DC40B1B7
:1023B00040281DD10CE0C02818D0B0F5807F17D17F
:1023C00015E0BE48006840F40030BC49086011E0E8
:1023D000002104F1080002F0CFF805460AE00021D0
:1023E00004F1280002F07AF9054603E002E001E07A
:1023F000012500BF00BF55B9B0482430006820F463
:10240000E070E16D0843AD492431086000E0A84662
:102410004FF48063D4E90010194000205940404037
:10242000014339D1D4F8A800B0F5800F1AD004DCEC
:1024300050B1B0F5001F1ED10DE0B0F5C00F18D09F
:10244000B0F5000F17D115E09C48006840F400304B
:102450009A49086011E0002104F1080002F08CF8AC
:1024600005460AE0002104F1280002F037F905468C
:1024700003E002E001E0012500BF00BF5DB98F4825
:102480002C30006820F46000D4F8A81008438B4971
:102490002C31086000E0A8464FF40062D4E9001037
:1024A00011400020134659404040014339D1D4F82F
:1024B000AC00B0F1007F1AD004DC50B1B0F1807FE5
:1024C0001ED10DE0B0F1407F18D0B0F1806F17D170
:1024D00015E07A48006840F400307849086011E05F
:1024E000002104F1080002F047F805460AE0002147
:1024F00004F1280002F0F2F8054603E002E001E0F2
:10250000012500BF00BF5DB96C482C30006820F089
:10251000E060D4F8AC10084368492C31086000E052
:10252000A8464FF00073D4E900011840002158403C
:102530004940084328D1E06CA8B1102804D02028D5
:1025400009D0302810D10DE05C48006840F400301C
:102550005A4908600AE0022104F1080002F00CF870
:10256000054603E002E001E0012500BF00BF55B9C8
:1025700052482030006820F03000E16C08434F4999
:102580002031086000E0A8464FF48053D4E90010E1
:102590001940002059404040014337D1206EB0F52A
:1025A000005F1AD004DC50B1B0F5805F1ED10DE0A1
:1025B000B0F5405F18D0B0F5804F17D115E03F4817
:1025C000006840F400303D49086011E0002104F14A
:1025D000080001F0D1FF05460AE0002104F12800BF
:1025E00002F07CF8054603E002E001E0012500BFAF
:1025F00000BF55B931482430006820F4E040216E16
:1026000008432E492431086000E0A8464FF40053E7
:10261000D4E900101940002059404040014335D111
:10262000606EB0F5403F1ED007DC68B1B0F5803F6A
:102630000BD0B0F5003F19D10EE0B0F5802F13D0CC
:10264000B0F5A02F12D110E012E0012104F1080032
:1026500001F092FF05460BE0012104F1280002F091
:102660003DF8054604E003E002E001E0012500BF7B
:1026700000BF55B911482430006820F4E020616E95
:1026800008430E492431086000E0A8464FF4804317
:10269000D4E900011840002158404940084337D18F
:1026A000D4F8B000B0F1405F20D009DC78B1B0F1CF
:1026B000805F0DD0B0F1005F1BD110E02C440258B8
:1026C000B0F1804F13D0B0F1A04F12D110E012E062
:1026D000012104F1080001F04FFF05460BE0012144
:1026E00004F1280001F0FAFF054604E003E002E0EF
:1026F00001E0012500BF00BF4DB9FE48006820F091
:10270000E040D4F8B0100843FA49086000E0A84659
:102710004FF40042D4E90010114000201346594004
:102720004040014329D1206FB0B1B0F1805F03D0A8
:10273000B0F1005F11D108E0EE482C38006840F499
:102740000030EC492C39086009E0012104F108004F
:1027500001F012FF054602E001E0012500BF00BFC5
:1027600055B9E4480838006820F04050216F08430C
:10277000E0490839086000E0A8464FF08072D4E9CB
:1027800000101140002013465940404001432AD117
:10279000A06CB8B1012804D002280BD0032812D1B4
:1027A0000FE0D4482C38006840F40030D1492C396F
:1027B00008600AE0022104F1080001F0DDFE054690
:1027C00003E002E001E0012500BF00BF55B9C948A0
:1027D0000C38006820F00300A16C0843C5490C398F
:1027E000086000E0A8464FF48002D4E900011040E0
:1027F000002113465840494008437DD1BE48006837
:1028000040F48070BC490860FEF7F2FC064606E022
:10281000FEF7EEFC801B642801D9032505E0B648CD
:10282000006800F480700028F2D000BF85BBB1487A
:102830001830006800F44070B4F8B41001F440712E
:10284000884213D0AB481830006820F44077A9487C
:102850001830006840F48030A649183108600846F6
:10286000006820F48030086008460760D4F8B4009F
:10287000B0F5807F15D1FEF7BBFC064609E0FEF7F8
:10288000B7FC801B41F28831884202D9032507E05A
:1028900038E0984818300068C0F340000028EED0B7
:1028A00000BF55BB00BFB4F8B40000F44070B0F5F1
:1028B000407F0ED18F484838006820F47C518F4A01
:1028C000D4F8B400104041EA10108A494839086031
:1028D00007E088484838006820F47C50854948392A
:1028E0000860844818300068B4F8B410C1F30B01D4
:1028F00008438049183101E005E001E0086002E08A
:10290000A84600E0A8460122D4E9000110400021B9
:10291000134658404940084330D1E06F18281AD078
:1029200005DC48B1082808D0102817D10CE0202871
:1029300012D0282812D110E012E0012104F1080081
:1029400001F01AFE05460BE0012104F1280001F018
:10295000C5FE054604E003E002E001E0012500BFFA
:1029600000BF55B96348001F006820F03800E16FD0
:1029700008436049091F086000E0A8460222D4E924
:10298000000110400021134658404940084329D116
:10299000A06F062816D2DFE800F003040B12131410
:1029A00012E0012104F1080001F0E6FD05460BE00C
:1029B000012104F1280001F091FE054604E003E046
:1029C00002E001E0012500BF00BF55B94948001FE2
:1029D000006820F00700A16F08434649091F0860FE
:1029E00000E0A8460423D4E9001019400020594013
:1029F0004040014329D1D4F89400062816D2DFE8DC
:102A000000F003040B12131412E0012104F108007A
:102A100001F0B2FD05460BE0012104F1280001F0B0
:102A20005DFE054604E003E002E001E0012500BF91
:102A300000BF4DB92F48006820F00700D4F894106B
:102A400008432C49086000E0A8462023D4E900018F
:102A50001840002158404940084337D1D4F890002D
:102A6000B0F1405F1ED007DC68B1B0F1805F0BD0E1
:102A7000B0F1005F19D10EE0B0F1804F13D0B0F18A
:102A8000A04F12D110E012E0002104F1080001F083
:102A900073FD05460BE0022104F1280001F01EFE43
:102AA000054604E003E002E001E0012500BF00BFAD
:102AB0005DB91048001F006820F0E040D4F8901085
:102AC00008430C49091F086000E0A8464023D4E9E8
:102AD0000010194000205940404001433CD1D4F837
:102AE0009C00B0F5406F25D00EDCA0B1B0F5806F32
:102AF00012D005E05844025800480258FFFCFF0F6E
:102B0000B0F5006F19D10EE0B0F5805F13D0B0F5CD
:102B1000A05F12D110E012E0002104F1080001F0E2
:102B20002BFD05460BE0022104F1280001F0D6FD43
:102B3000054604E003E002E001E0012500BF00BF1C
:102B40004DB9FE48006820F4E050D4F89C100843CA
:102B5000FA49086000E0A8468023D4E90010194033
:102B6000002059404040014335D1D4F8A000B0F5D1
:102B7000C04F1ED007DC68B1B0F5005F0BD0B0F5D8
:102B8000804F19D10EE0B0F5004F13D0B0F5204FB3
:102B900012D110E012E0002104F1080001F0ECFC79
:102BA00005460BE0022104F1280001F097FD0546DF
:102BB00004E003E002E001E0012500BF00BF4DB9E1
:102BC000DE48006820F46040D4F8A0100843DB49D8
:102BD000086000E0A8460823D4E90010194000204E
:102BE00059404040014317D1D4F88400B0F5805FCC
:102BF00007D1022104F1280001F070FD08B14FF067
:102C00000108CE48001F006820F44050D4F884101A
:102C10000843CA49091F08601023D4E9001019406D
:102C2000002059404040014315D1D4F89800B0F538
:102C3000807F07D1022104F1280001F04FFD08B187
:102C40004FF00108BD48006820F44070D4F8981097
:102C50000843BA4908604FF40022D4E9000110404B
:102C60000021134658404940084327D1D4F8A40016
:102C700030B1B0F5803F0AD0B0F5003F0FD10DE084
:102C8000002104F1080001F077FC054609E002216B
:102C900004F1280001F022FD054602E001E00125D3
:102CA00000BF00BF4DB9A548006820F44030D4F8FB
:102CB000A4100843A149086000E0A8464FF480230F
:102CC000D4E90001184000215840494008432DD163
:102CD000D4F88800B0F5801F06D0B0F5001F0CD0E6
:102CE000B0F5401F11D10FE094482C38006840F433
:102CF000003092492C39086009E0012104F12800D4
:102D000001F0ECFC054602E001E0012500BF00BF38
:102D10005DB98A48001F006820F44010D4F888107C
:102D200008438649091F086000E0A8464FF4803236
:102D3000D4E900011040002113465840494008439F
:102D400025D1206D18B1B0F5803F10D108E07B4847
:102D50002C38006840F4003078492C39086008E0CD
:102D6000022104F1080001F007FC054601E00125FD
:102D700000BF00BF55B971480C38006820F480309E
:102D8000216D08436D490C39086000E0A8464FF0FA
:102D90000052D4E900101140002013465940404031
:102DA000014307D1022104F1280001F097FC08B18A
:102DB0004FF001084FF40033D4E90001184000211E
:102DC00058404940084329D1D4F88000A0B1B0F55B
:102DD000807F06D0B0F5007F0CD0B0F5407F0CD1DD
:102DE00009E056482C38006840F4003053492C392B
:102DF000086004E003E002E001E0012500BF00BF3D
:102E00005DB94E48001F006820F44070D4F880106F
:102E100008434A49091F086000E0A8464FF48012A1
:102E2000D4E90010114000201346594040400143AE
:102E300009D142480838006820F00040616F08431B
:102E40003E49083908604FF08052D4E90010114023
:102E5000002013465940404001430AD137484838C2
:102E6000006820F48040D4F8B8100843334948394A
:102E700008604FF40012D4E90010114000201346FE
:102E800059404040014309D12C480838006820F0DF
:102E90008070E16E08432949083908604FF080428C
:102EA000D4E900101140002013465940404001432E
:102EB00011D100BF21484838006820F400401F4964
:102EC0004839086008460068D4F8BC1008431B491C
:102ED0004839086000BF4FF00042D4E900101140AB
:102EE0000020134659404040014309D113480C3893
:102EF000006820F04050616D084310490C390860AB
:102F00004FF40002D4E9001011400020134659404C
:102F1000404001430AD10948001F006820F44000E6
:102F2000D4F88C1008430549091F086001230021CB
:102F30006068184001224940504001E0584402585E
:102F4000014306D104F1080001F016FB054605B166
:102F5000A8460222002160681040494050400143C9
:102F600007D1012104F1080001F006FB054605B177
:102F7000A8460423002061681940042240405140C3
:102F8000084307D1022104F1080001F0F5FA0546D3
:102F900005B1A8460823002160681840082249406E
:102FA0005040014306D104F1280001F097FB05468B
:102FB00005B1A846102200216068104049405040E9
:102FC000014307D1012104F1280001F087FB0546E8
:102FD00005B1A846202200206168114040405140C0
:102FE000084307D1022104F1280001F077FB0546D0
:102FF00005B1A846B8F1000F02D10020BDE8F0816C
:103000000120FBE72DE9F04104460D4614B90120EB
:10301000BDE8F081BD48006800F00F00A8420ED264
:10302000BA48006820F00F002843B84908600846F5
:10303000006800F00F00A84201D00120E8E72078E6
:1030400000F0040004280ED1B1492069096801F09C
:103050007001884207D9AE48006820F070002169ED
:103060000843AB490860207800F00800082811D117
:10307000A749091D6069096801F07001884209D9F2
:10308000A348001D006820F0700061690843A04952
:10309000091D0860207800F01000102811D19C490B
:1030A000091DA069096801F4E061884209D99848BE
:1030B000001D006820F4E060A16908439449091DDF
:1030C0000860207800F02000202811D190490831B4
:1030D000E069096801F07001884209D98C4808301C
:1030E000006820F07000E1690843894908310860F0
:1030F000207800F0020002280ED18549E0680968B6
:1031000001F00F01884207D98148006820F00F00C4
:10311000E16808437E490860207800F0010000283B
:1031200050D07B48006820F47060A168084378495B
:1031300008606068022807D1754818380068C0F335
:103140004040F8B9012063E76068032807D1704860
:1031500018380068C0F34060A0B9012058E76068E3
:10316000012807D16A4818380068C0F3002048B920
:1031700001204DE7664818380068C0F3800008B9A0
:10318000012045E762480838006820F007006168C0
:1031900008435F4908390860FEF72AF8064608E048
:1031A000FEF726F8801B41F28831884201D90320BE
:1031B0002EE757480838006800F038006168B0EB27
:1031C000C10FEDD1207800F0020002280ED1504945
:1031D000E068096801F00F01884207D24C48006896
:1031E00020F00F00E168084349490860474800683B
:1031F00000F00F00A8420ED94448006820F00F00EC
:103200002843424908600846006800F00F00A842C1
:1032100001D00120FCE6207800F0040004280ED143
:103220003B492069096801F07001884207D238489B
:10323000006820F070002169084335490860207853
:1032400000F00800082811D13149091D606909689A
:1032500001F07001884209D22D48001D006820F05D
:103260007000616908432A49091D0860207800F050
:103270001000102811D12649091DA069096801F420
:10328000E061884209D22248001D006820F4E06015
:10329000A16908431E49091D0860207800F020003C
:1032A000202811D11A490831E069096801F070013C
:1032B000884209D216480830006820F07000E169A1
:1032C000084313490831086000F09AF8104909686A
:1032D000C1F303210F4A515C01F01F0120FA01F7ED
:1032E0000B48006800F00F001146085C00F01F005A
:1032F00027FA00F008490860084807600848006895
:10330000FDF7B8FF8046404682E6000000200052EC
:10331000184402584A7F0008A4000020A0000020A2
:10332000980000203F220260174A126802F007024C
:103330004260154A0832126802F470628260124AD2
:103340000832126802F00F02C2600F4A0832126897
:1033500002F0700202610C4A0C32126802F0700234
:103360004261094A0C32126802F4E0628261064A44
:103370001032126802F07002C261044A126802F050
:103380000F020A60704700001044025800200052EB
:1033900010B500F035F80D490968C1F303210C4A56
:1033A000515C01F01F0120FA01F40848006800F0A8
:1033B0000F001146085C00F01F0024FA00F00549D8
:1033C0000860054804600846006810BD18440258AB
:1033D0004A7F0008A4000020A000002000B5FFF7ED
:1033E000D7FF05490968C1F30221044A515C01F085
:1033F0001F01C84000BD00001C4402584A7F00085D
:10340000F0B5824E366806F0380636B1082E15D073
:10341000102E15D0182E7DD114E07C4E103E36684B
:10342000C6F3401646B1794E103E3668C6F3C10762
:10343000774E26FA07F000E07548E5E07548E3E0CE
:103440007548E1E0714E1836366806F003046F4E99
:1034500018363668C6F305116C4E1C36366806F011
:1034600001056A4E24363668C6F3CC0616FB05F60F
:1034700001EE106AB8EE410A002971D024B1012C86
:1034800050D0022C6DD16DE0604E103E3668C6F310
:1034900040163EB35D4E103E3668C6F3C1075C4E23
:1034A00026FA07F301EE103AF8EE411A01EE101A6F
:1034B000B8EE411A81EE812A9FED581AC0EE011A2A
:1034C000524E20363668C6F3080601EE106AB8EE92
:1034D000411A31EE811AF7EE001A31EE211A62EE2E
:1034E000010A1EE001EE101AB8EE411ADFED4C1A87
:1034F00081EE812A9FED491AC0EE011A434E203613
:103500003668C6F3080601EE106AB8EE411A31EECD
:10351000811A00E076E0F7EE001A31EE211A62EE31
:10352000010A5BE001EE101AB8EE411A9FED3D2A48
:10353000C2EE011A9FED391A80EE012A334E203671
:103540003668C6F3080601EE106AB8EE411A32EE8C
:10355000011AB7EE002A31EE021A61EE810A3DE04F
:103560004EE01DE001EE101AB8EE411ADFED2E1A02
:1035700081EE812A9FED291AC0EE011A234E2036D2
:103580003668C6F3080601EE106AB8EE411A31EE4D
:10359000811AF7EE001A31EE211A62EE010A1DE0DF
:1035A00001EE101AB8EE411A9FED1E2AC2EE011A62
:1035B0009FED1A1A80EE012A144E20363668C6F3A3
:1035C000080601EE106AB8EE411A32EE011AB7EEA3
:1035D000002A31EE021A61EE810A00BF00BF0B4ED5
:1035E00020363668C6F34626721C01EE102AB8EE65
:1035F000411AC0EE811ABCEEE11A11EE100A00E089
:10360000002001E0034800BF00BFF0BD1044025895
:103610000090D00300093D00001BB70000000046E9
:103620000024744C0024744A001B374B2DE9F047EA
:10363000044614B90120BDE8F087207800F00100AD
:10364000002870D0FA48006800F03808F8481830B0
:10365000D0F80090B8F1100F06D0B8F1180F0FD1C4
:1036600009F0030002280BD1F14810380068C0F3BC
:10367000404000286AD06068002867D10120DAE75E
:1036800000BF6068B0F5803F08D1E9481038006895
:1036900040F48030E649103908602EE0606868B96F
:1036A000E3481038006820F48030E14910390860A0
:1036B0000846006820F4802008601EE06068B0F5CD
:1036C000A02F0DD1DA481038006840F48020D84986
:1036D000103908600846006840F4803008600CE04B
:1036E000D3481038006820F48030D1491039086080
:1036F0000846006820F48020086000BF606898B128
:10370000FDF776FD054606E0FDF772FD401B6428D7
:1037100001D903208FE7C64810380068C0F3404045
:103720000028F1D012E012E0FDF762FD054606E048
:10373000FDF75EFD401B642801D903207BE7BC48F0
:1037400010380068C0F340400028F1D100BF207855
:1037500000F00200022874D1B548006800F0380873
:10376000B3481830D0F80090B8F1000F05D0B8F188
:10377000180F56D109F00300D0BBAD4810380068CF
:10378000C0F3800018B1E06808B9012053E7A848E9
:103790001038006820F01900E1680843A449103986
:1037A0000860FDF725FD054606E0FDF721FD401BFD
:1037B000022801D903203EE79D4810380068C0F375
:1037C00080000028F1D000BFFDF70CFD41F203019D
:1037D00088421AD8206940280BD195480C380068D7
:1037E00020F47C3040F4003091490C39086017E037
:1037F00017E08F480C38006820F47C30216940EADB
:1038000001308B490C3908600AE089480C3800689F
:1038100020F0FE40217C40EA016085490C390860B7
:1038200066E0E06888B382481038006820F019002C
:10383000E16808437E4910390860FDF7D9FC054668
:1038400007E056E0FDF7D4FC401B022801D9032015
:10385000F1E6774810380068C0F380000028F1D006
:1038600000BFFDF7BFFC41F2030188421AD820696E
:1038700040280BD16E480C38006820F47C3040F4AE
:1038800000306B490C39086017E017E068480C38C5
:10389000006820F47C30216940EA013064490C3929
:1038A00008600AE062480C38006820F0FE40217C85
:1038B00040EA01605E490C39086019E05C48103844
:1038C000006820F001005A4910390860FDF790FCAB
:1038D000054606E0FDF78CFC401B022801D90320B9
:1038E000A9E6534810380068C0F380000028F1D1E1
:1038F00000BF207800F0100010287CD14C480068F0
:1039000000F038084A481830D0F80090B8F1080F95
:1039100006D0B8F1180F3DD109F00300012839D1C4
:10392000434810380068C0F3002020B1E0698028C7
:1039300001D001207FE600BFFDF754FC41F20301F6
:1039400088421AD8206A20280AD139480C380068E1
:1039500020F0F84040F0804035490C39086018E00C
:1039600033480C38006820F0F84094F8201040EA02
:1039700081602F490C3908600BE02D48001F00685A
:1039800020F07C5094F8201040EA01602849091F7B
:10399000086066E0E06978B325481038006840F0B8
:1039A0008000234910390860FDF722FC054606E037
:1039B000FDF71EFC401B022801D903203BE61C48F2
:1039C00010380068C0F300200028F1D000BFFDF7D8
:1039D00009FC41F2030188421CD8206A20280CD13E
:1039E00013480C38006820F0F84040F0804010493F
:1039F0000C3908601AE035E01CE00D480C3800680E
:103A000020F0F84094F8201040EA816008490C3911
:103A100008600BE00648001F006820F07C5094F816
:103A2000201040EA01600249091F086019E0000007
:103A300010440258FA48006820F08000F8490860F5
:103A4000FDF7D6FB054606E0FDF7D2FB401B02283A
:103A500001D90320EFE5F2480068C0F300200028F8
:103A6000F2D100BF207800F00800082836D1606944
:103A7000D0B1EB487430006840F00100E84974317F
:103A80000860FDF7B5FB054606E0FDF7B1FB401BFE
:103A9000022801D90320CEE5E14874300068C0F364
:103AA00040000028F1D019E0DD487430006820F0B3
:103AB0000100DB4974310860FDF79AFB054606E01A
:103AC000FDF796FB401B022801D90320B3E5D4483B
:103AD00074300068C0F340000028F1D1207800F075
:103AE0002000202830D1A069B8B1CD48006840F44A
:103AF0008050CB490860FDF77BFB054606E0FDF7EB
:103B000077FB401B022801D9032094E5C4480068D4
:103B1000C0F340300028F2D016E0C148006820F41D
:103B20008050BF490860FDF763FB054606E0FDF7DE
:103B30005FFB401B022801D903207CE5B8480068E0
:103B4000C0F340300028F2D1207800F004000428AF
:103B50007DD1B448006840F48070B2490860FDF738
:103B600047FB054606E0FDF743FB401B642801D9EF
:103B7000032060E5AB48006800F480700028F2D0B4
:103B800000BFA068012808D1A5487030006840F047
:103B90000100A349703108602DE0A06868B9A04811
:103BA0007030006820F001009D49703108600846BF
:103BB000006820F0040008601DE0A06805280DD111
:103BC00097487030006840F00400954970310860F3
:103BD0000846006840F0010008600CE09048703032
:103BE000006820F001008E497031086008460068C6
:103BF00020F00400086000BFA068A0B1FDF7F8FA4B
:103C0000054608E0FDF7F4FA401B41F2883188428E
:103C100001D903200FE5824870300068C0F34000EE
:103C20000028EFD013E0FDF7E3FA054608E0FDF7C2
:103C3000DFFA401B41F28831884201D90320FAE4BF
:103C4000774870300068C0F340000028EFD1606A08
:103C500000287DD072481030006800F03800182825
:103C600077D0606A022875D16D48006820F08070B6
:103C70006B490860FDF7BCFA054606E0FDF7B8FAA7
:103C8000401B022801D90320D5E465480068C0F331
:103C900040600028F2D100BFD4E90A1041EA0010C8
:103CA0005F492831096840F2F332914308435C4987
:103CB00028310860208E401EC0F30800616B491E49
:103CC0004FF47E4202EA41210843218F491ED2016E
:103CD00002EA014108433C21095D491E120202EA41
:103CE000016108434E493031086000BF081F006879
:103CF00020F00100091F08604948343000684FF681
:103D0000F8718843A16C40EAC1004549343108602C
:103D100043482C30006820F00C00216C08434049D7
:103D20002C3108600846006820F00200616C0843EE
:103D30003B492C3108600846006840F48030086038
:103D40000846006840F4003008600846006802E059
:103D500093E038E01FE040F48020086008460068E7
:103D600040F0010008602E48006840F080702C4947
:103D70000860FDF73DFA054606E0FDF739FA401BFD
:103D8000022801D9032056E425480068C0F34060AA
:103D90000028F2D071E02248006820F080702049AD
:103DA0000860FDF725FA054606E0FDF721FA401BFD
:103DB000022801D903203EE419480068C0F340609E
:103DC0000028F2D159E016482830076814483030EE
:103DD0000668606A012821D007F00301A06A8142C9
:103DE0001CD1C7F30511E06A884217D1C6F3080158
:103DF000206B401E814211D1606B401EC6F34621EC
:103E000088420BD1A06B401EC6F30641884205D103
:103E1000E06B401EC6F30661884205D001200AE42B
:103E2000004402580048025815480068C0F3CC0707
:103E3000A06CB84221D012480838006820F0010078
:103E40000F4908390860FDF7D3F9054600BFFDF7B3
:103E5000CFF9401BFBD00A4800684FF6F871884341
:103E6000A16C40EAC10006490860054808380068AE
:103E700040F0010002490839086000204AE40000CF
:103E80003444025870477047704710B504460CB967
:103E9000012010BD94F83D0028B9002084F83C00B2
:103EA000204600F029F8022084F83D00211D2068FA
:103EB00000F024FE012084F8480000BF84F83E0092
:103EC00001213F200155402001554120015542204C
:103ED00001554320015500BF00BF012084F8440074
:103EE00045200155462001554720015500BF0120BE
:103EF00084F83D000020CCE770470000014691F8AF
:103F00003D00012801D001207047022081F83D00CA
:103F10000868C06840F001000B68D8601C4B086856
:103F200098421BD00868B0F1804F17D0194B086831
:103F3000984213D0184B086898420FD0174B086866
:103F400098420BD0164B0868984207D0154B08686A
:103F5000984203D0144B0868984210D108688068D2
:103F6000124B00EA0302062A0FD0B2F5803F0CD0B4
:103F70000868006840F001000B68186005E00868F8
:103F8000006840F001000B6818600020BCE70000EA
:103F9000000001400004004000080040000C004008
:103FA00000040140001800400040014007000100EB
:103FB000704710B5044620680069C0F34000D8B1CE
:103FC0002068C068C0F34000B0B16FF00200216803
:103FD0000861012020772068806900F0030018B193
:103FE0002046FFF7E5FF05E0204600F0BEF820463A
:103FF00000F0BCF80020207720680069C0F3800042
:10400000D8B12068C068C0F38000B0B16FF0040080
:1040100021680861022020772068806900F44070E0
:1040200018B12046FFF7C4FF05E0204600F09DF8D8
:10403000204600F09BF80020207720680069C0F33C
:10404000C000D8B12068C068C0F3C000B0B16FF044
:10405000080021680861042020772068C06900F00A
:10406000030018B12046FFF7A3FF05E0204600F04B
:104070007CF8204600F07AF800202077206800695C
:10408000C0F30010D8B12068C068C0F30010B0B110
:104090006FF0100021680861082020772068C0694F
:1040A00000F4407018B12046FFF782FF05E020467B
:1040B00000F05BF8204600F059F8002020772068D7
:1040C000006900F0010058B12068C06800F00100EC
:1040D00030B16FF0010021680861204600F048F817
:1040E00020680069C0F3C01058B12068C068C0F3F0
:1040F000C01030B16FF08000216808612046FFF7E2
:10410000C2FE20680069C0F3002058B12068C06872
:10411000C0F3C01030B16FF4807021680861204690
:10412000FFF7B0FE20680069C0F3801058B1206826
:10413000C068C0F3801030B16FF0400021680861A2
:10414000204600F021F820680069C0F3401058B103
:104150002068C068C0F3401030B16FF020002168C3
:1041600008612046FFF790FE10BD704770470000C1
:1041700010B5044603492068884201D1FDF73EF896
:1041800010BD000000480140704700BFFEE730B599
:104190000B46002100BF16E00A24B4EB107F05D9BE
:1041A000302404EB107403F8114005E0412404EBC3
:1041B00010740A3C03F81140000100254C00641CF7
:1041C0001D554C1CE1B29142E6DB30BD0C48006845
:1041D0000C490840B0F1005F0FD1094840680A4916
:1041E000086008460068094908600549086880F3C6
:1041F000088800BF05480068804700BFFEE7000050
:10420000000002080000FE2F140000201000002013
:1042100000B587B0142102A8FCF7A8FA00BF224815
:10422000006840F08000204908600846006800F0FF
:104230008000019000BF00BF00BF0846006840F04A
:10424000040008600846006800F00400019000BF08
:1042500000BF00BF0846006840F002000860084642
:10426000006800F00200019000BF00BF00BF0846D8
:10427000006840F0010008600846006800F0010096
:10428000019000BF00BF092002900220039000208F
:104290000490032005900C20069002A90348FCF727
:1042A000A3FE07B000BD0000E04402580008025819
:1042B00010B501220E490F4801F00EFB08B1FCF7C2
:1042C000BCFB0D490B4801F045FE08B1FCF7B5FBFE
:1042D0000A49084800F0F8FE08B1FCF7AEFB0548B3
:1042E00001F03AFF08B1FCF7A8FBFDF7CDFF10BDC8
:1042F00020000020F0070020B800002080000020EF
:1043000000BFFEE700BFFEE710B50248FDF754FA14
:1043100010BD0000CC1C00202DE9F04704460D46DE
:1043200026683746D6F8408007F5306000EB451028
:10433000D0F80890104880450BD909F40040B0F53A
:10434000004F06D14FF4004107F5306000EB4510F7
:1043500081602046FDF71FFF0748804508D9E068C7
:10436000012805D104F2C4420121206802F0A2FB19
:104370000020BDE8F08700000A30544F2DE9F047D7
:1043800005460C46D5F800904E46D9F840A006F5F3
:10439000306000EB4410D0F80880E868012855D15F
:1043A00008F0080008280FD1434882450BD908F4CB
:1043B0000040B0F5004F7BD14FF4004106F530606E
:1043C00000EB4410816073E008F02000202806D143
:1043D000202106F5306000EB4410816068E008F0B1
:1043E0002800002864D1344882450CD908F40040E4
:1043F000B0F5004F07D14FF4004106F5306000EBF7
:104400004410816054E004EBC40105F51F7000EB1B
:10441000810706F5306000EB4410396A0069C0F38B
:104420001200081A786164B9386930B905F2C442DB
:104430000121286802F03EFB03E07969F86808442E
:10444000F860E1B22846FDF72FF831E01B488245BD
:104450001BD108F40040B0F5004F07D14FF40041E4
:1044600006F5306000EB4410816021E008F0200088
:10447000202805D1202106F5306000EB4410816032
:10448000E1B22846FDF710F812E06CB904EBC40164
:1044900005F51F7000EB8100006928B905F2C442E0
:1044A0000021286802F006FBE1B22846FCF7FCFF79
:1044B0000020BDE8F08700000A30544F0A31544F05
:1044C0002DE9F84F07460E46D7F80090C84606EB90
:1044D000C60107F13C0000EB8104D4E904108842D6
:1044E00002D90120BDE8F88FD4E90401451AA0687B
:1044F000A84200D2A568E81C4FEA900A17E0D4E968
:104500000401451AA068A84200D2A568E81C4FEA39
:10451000900A387BABB2F2B200904846E16802F0F4
:1045200091FFE0682844E06060692844606108F514
:10453000106000EB4610806980B2504506D3D4E984
:104540000410884202D220690028D8D1D4E904019D
:1045500088420ED806F00F01012000FA01FB40F658
:10456000340050F8080020EA0B0040F6340141F80E
:1045700008000020B6E770472DE9F04104460E46DA
:1045800000275548006800F00300032802D10120ED
:10459000BDE8F08150482838006820F080604E491E
:1045A00028390860FCF724FE054606E0FCF720FEEB
:1045B000401B022801D90320EAE747482838006851
:1045C000C0F3C0600028F1D100BF4348006820F468
:1045D0007C30216840EA01303F490860A088401ED5
:1045E000C0F30800A168491E4FF47E4202EA41214F
:1045F0000843A189491ED20102EA01410843217CF6
:10460000491E120202EA0161084333491031086071
:1046100000BF3148001D006820F0C00061690843F8
:104620002D49091D08600846006820F02000A16996
:1046300008432949091D08600846006820F0100059
:1046400008602548143000684FF6F8718843E16926
:1046500040EAC1002049143108601F48001D00686D
:1046600040F010001C49091D08602EB9084600687A
:1046700040F40020086012E0012E08D11648001D09
:10468000006840F480101449091D086007E01248D2
:10469000001D006840F400100F49091D08600E4815
:1046A0002838006840F080600B4928390860FCF722
:1046B0009FFD054606E0FCF79BFD401B022801D943
:1046C000032065E7044828380068C0F3C06000286C
:1046D000F1D038465CE70000284402582DE9F0414B
:1046E00004460E4600275548006800F003000328E2
:1046F00002D10120BDE8F08150482838006820F040
:1047000080504E4928390860FCF772FD054606E0E6
:10471000FCF76EFD401B022801D90320EAE7474859
:1047200028380068C0F340700028F1D100BF43482A
:10473000006820F07C70218840EA01503F49086001
:10474000A088401EC0F30800A168491E4FF47E42B5
:1047500002EA41210843A189491ED20102EA01412E
:104760000843217C491E120202EA016108433349D1
:104770001831086000BF3148001D006820F4406017
:10478000616908432D49091D08600846006820F446
:104790000070A16908432949091D0860084600689E
:1047A00020F48070086025481C3000684FF6F871CE
:1047B0008843E16940EAC10020491C3108601F4874
:1047C000001D006840F480701C49091D08602EB966
:1047D0000846006840F48000086012E0012E08D10D
:1047E0001648001D006840F400001449091D0860C7
:1047F00007E01248001D006840F080700F49091D55
:1048000008600E482838006840F080500B4928396D
:104810000860FCF7EDFC054606E0FCF7E9FC401BF0
:10482000022801D9032065E7044828380068C0F34E
:1048300040700028F1D038465CE700002844025858
:10484000F0B504460F461546A088A84201DBA088B3
:1048500008B90020F0BD002604E0B919204600F098
:1048600005F8761CAE42F8DB0120F3E7024690889B
:1048700008B9002070471388901DC05C0870138829
:10488000581CC31700EB93539B12A0EB8323138098
:104890009088401E90800120ECE7704730B50146BB
:1048A0000A461378521C147843EA042030BD70473E
:1048B00000B59DB04C210AA8FBF758FF202102A8A3
:1048C000FBF754FF0220FDF7AFFC00BF0020019072
:1048D0004448006820F0010042490860084600682A
:1048E00000F0010001904048006840F440403E491B
:1048F00008600846006800F44040019000BF00BF17
:1049000000BF3948006800F40050B0F5005FF8D1EE
:1049100000BF3648006840F002003449086008468D
:10492000006800F00200019000BF00BF00BF00203F
:1049300001902D48006840F440402B49086008462B
:10494000006800F4404001902648006840F00100F3
:10495000244908600846006800F00100019000BF8B
:1049600000BF00BF2048006800F40050B0F5005FB1
:10497000F8D121200A904FF4A0200B900120109034
:1049800002201390022114910121159150211691BA
:104990000221179104211891022119910C211A91D9
:1049A00000211B911C910AA8FEF740FE08B1FCF7FC
:1049B00044F83F2002900320039000200490082038
:1049C0000590402006900790000108904020099033
:1049D000042102A8FEF716FB08B1FCF72EF81DB063
:1049E00000BD00002C04005818480258F444025836
:1049F0003448006840F4700032490860324800686A
:104A000000F00F00072806D22F48006820F00F00A2
:104A1000C01D2D4908602D48006840F001002B4959
:104A2000086000202949103108602848006828499A
:104A30000840264908602448006800F00F00072855
:104A400006D92148006820F00F00C01D1E490860EB
:104A500000201E4918310860091D0860091D086002
:104A60001C481A49283108601B48091D08601B486A
:104A7000091D08600020091D08601848091D08600C
:104A80000020091D08601548091D08600020091D47
:104A900008600E48006820F480200C49086000205F
:104AA0000A49603108600E4800686FF30F00B0F1EA
:104AB000005F02D201200B49086043F2D2000A498C
:104AC0000860704788ED00E0002000520044025862
:104AD0007FEDF6EA000202020000FF018002010100
:104AE0000010005C088100510040005210B50248DF
:104AF000FFF75FFA10BD0000A407002010B50268A0
:104B0000294B98420ED0B0F1804F0BD0274B9842E2
:104B100008D0274B984205D0264B984202D0264B0E
:104B2000984203D122F070024B681A431E4B984200
:104B300017D0B0F1804F14D01C4B984211D01C4BB1
:104B400098420ED01B4B98420BD01B4B984208D07A
:104B50001A4B984205D01A4B984202D0194B9842F2
:104B600003D122F44072CB681A4322F080034C69CF
:104B700043EA040202608B68C3620B6883620A4BDB
:104B800098420BD00C4B984208D00C4B984205D061
:104B90000B4B984202D00B4B984201D10B69036337
:104BA0000123436110BD00000000014000040040EB
:104BB00000080040000C004000040140004001409B
:104BC00000440140004801402DE9F04104460D46F3
:104BD000D4F8C87204F53070D4F8D41250F821001B
:104BE00010B90320BDE8F08104F53070D4F8D41278
:104BF00050F8216005F00F0000EB800104F1140073
:104C000000EB8100406838B305F00F0000EB800135
:104C100004F1140000EB8100416805F00F0000EB87
:104C2000C00207F13C0000EB82008068B1FBF0F2AB
:104C300000FB121080B9002105F00F0000EB80028C
:104C400004F1140000EB8200416000231A4629465B
:104C5000204601F04CF917E00020C6F8140204F5D4
:104C60003170D4F8D41250F82100006960B1D6F840
:104C7000080204F53171D4F8D42251F822102A46E2
:104C80000B6906F5047198470020ABE770B5044640
:104C90000E4604F53070D4F8D41250F82150D4F8F0
:104CA000D41250F8210008B9032070BD31462046C7
:104CB00000F070FFC5F80C02D5F8040204F531715C
:104CC000D4F8D43251F82310CA6805F5037190471F
:104CD0000020EAE770B504460D46304801782046CA
:104CE00000F02AFE00212D48007800F00F0000EBB4
:104CF000800204F1140000EB820001822848017850
:104D0000204600F019FE00212548007800F00F0031
:104D100000EB800204F5AA7000EB820001822148BA
:104D20000178204600F008FE00211E48007800F0BF
:104D30000F0000EB800204F1140000EB82000182FE
:104D40001848007800F00F0000EB800204F1140016
:104D500000EB8200418204F53070D4F8D41250F890
:104D60002100C8B104F53171D4F8D42251F82210D1
:104D70004868804704F53071D4F8D42251F82200F5
:104D800001F0DEFB002104F53070D4F8D42240F8A5
:104D900022100020C4F8BC02002070BD33010020A6
:104DA000340100203501002070B5044604F5307050
:104DB000D4F8D41250F821500DB9032070BD04F579
:104DC0003170D4F8D41250F8210098B195F800024F
:104DD000FF280FD095F8012295F8000204F53171F3
:104DE000D4F8D46251F826108B6829469847FF20E2
:104DF00085F800020020E1E701460A20088001480A
:104E000070470000AC0000202DE9F04104468221EB
:104E10000D4800F02FFC054601210B4800F02AFC4C
:104E200006468121084800F025FC07460DB11020F8
:104E3000A8710EB14020B0800FB14020B88043204F
:104E400020800148BDE8F081F00000202DE9F0410C
:104E5000044682210E4800F00DFC054601210C4855
:104E600000F008FC06468121094800F003FC0746D3
:104E70000DB11020A87116B14FF40070B08017B1B9
:104E80004FF40070B880432020800148BDE8F081D5
:104E9000F00000202DE9F041044682210D4800F089
:104EA000E9FB054601210B4800F0E4FB06468121A1
:104EB000084800F0DFFB07460DB11020A8710EB1C5
:104EC0004020B0800FB14020B880432020800148AE
:104ED000BDE8F081F000002070B504460E464FF4A6
:104EE000077001F02FFB054645B9002104F530702D
:104EF000D4F8D42240F82210022070BD4FF407717C
:104F00002846FBF733FC04F53070D4F8D41240F88F
:104F10002150D4F8D41250F82100C4F8BC02207CEF
:104F200098BB4FF40073022250480178204600F0ED
:104F3000D7FE01214D48007800F00F0000EB800201
:104F400004F1140000EB820001824B020222484867
:104F50000178204600F0C4FE01214548007800F0A9
:104F60000F0000EB800204F5AA7000EB82000182C2
:104F700010214048007800F00F0000EB800204F19F
:104F8000140000EB8200418232E0FFE7402302225E
:104F900036480178204600F0A3FE0121334800780E
:104FA00000F00F0000EB800204F1140000EB82001F
:104FB0000182402302222E480178204600F090FE14
:104FC00001212B48007800F00F0000EB800204F56F
:104FD000AA7000EB8200018210212648007800F0C0
:104FE0000F0000EB800204F1140000EB820041820C
:104FF000082303221F480178204600F071FE01219A
:105000001C48007800F00F0000EB800204F114004F
:1050100000EB820001820020C5F8040204F5317122
:10502000D4F8D42251F82210086880470020C5F82F
:105030001402C5F81802D5F8040208B902205CE78A
:10504000207C48B94FF40073094801782046D5F810
:10505000042200F05DFE07E0402305480178204669
:10506000D5F8042200F054FE002046E7330100206A
:10507000340100203501002070B5044604F530707D
:10508000D4F8D41250F82150D4F8D41250F821009A
:1050900008B9032070BD207C48B94FF4007309485B
:1050A00001782046D5F8042200F032FE07E04023C4
:1050B000044801782046D5F8042200F029FE00209B
:1050C000E8E7000034010020024609B903207047D8
:1050D00002F53170D2F8D43240F823100020F6E700
:1050E00010B5024602F53070D2F8D44250F82430A0
:1050F0000BB9032010BDC3F804120020FAE730B545
:1051000003460C4603F53070D3F8D45250F82510FE
:1051100009B9032030BDC1F80842C1F810220020AF
:10512000F8E72DE9FC4105460C4605F53070D5F849
:10513000D41250F82160002001900090804616B9EA
:105140000320BDE8FC81207800F0600000283DD0FD
:1051500020287CD1E08868B3207800F08000B8B1C6
:10516000E288607805F53171D5F8D4C251F82C1079
:105170008B6831469847E088072801D9072000E06E
:10518000E08807463A463146284600F011F91CE00F
:10519000607886F80002E088402801D2E08800E0CC
:1051A000402086F8010296F801223146284600F098
:1051B000DEF80AE0607805F53171D5F8D42251F8AF
:1051C000221000228B682146984747E0607830B172
:1051D000012832D00A2813D00B282FD121E095F8CE
:1051E0009C02032805D102226946284600F0E0F817
:1051F00005E02146284600F0AEF84FF0030824E011
:1052000095F89C02032805D1012201A9284600F047
:10521000CFF805E02146284600F09DF84FF003083E
:1052200013E095F89C02032805D02146284600F09B
:1052300092F84FF0030808E009E006E0214628460E
:1052400000F089F84FF0030800BF00BF06E02146D8
:10525000284600F080F84FF0030800BF00BF40462A
:105260006FE7000070B5054605F53070D5F8D4122B
:1052700050F8214001260CB9032070BDD4F8140267
:10528000C8B90120C4F814020C48007800F00F00DF
:1052900000EB800205F1140000EB8200D4F810123C
:1052A0004160064801782846D4F81032D4F8082224
:1052B00000F01DFE00263046DFE70000330100202D
:1052C00070B504460D460026D4F8B8022946426857
:1052D0002046904700B10326304670BD70B50446A5
:1052E0000D4694F89C02012804D0022803D003281C
:1052F0000CD101E000BF00BF6888012805D1002063
:10530000C4F8A402204600F064F804E029462046D0
:1053100000F021F800BF00BF70BD024600207047BA
:1053200002460020704770B506460C4615462B46CF
:1053300022460021304600F0EBFC002070BD70B525
:1053400006460C4615462B4622460021304600F004
:10535000CEFD002070BD70B504460D46802120466C
:1053600000F095FD0021204600F091FD70BD70B564
:1053700004460E4615460320C4F894024FF4AC7060
:105380000551001D05512B4632460021204600F0F4
:10539000BFFC002070BD10B504460520C4F894027F
:1053A00000231A461946204600F0B2FC002010BD2A
:1053B00070B504460E4615460220C4F89402A56155
:1053C000E5612B4632460021204600F090FD00208A
:1053D00070BD10B504460420C4F8940200231A4698
:1053E0001946204600F083FD002010BD70B504462C
:1053F0000D46E888012804D029462046FFF7ABFF78
:105400001EE094F89C02012804D0022803D003284F
:1054100010D109E000BF0020A060012204F10801C2
:105420002046FFF7C5FF0AE00122211D2046FFF7B5
:10543000BFFF04E029462046FFF78DFF00BF00BFF5
:1054400070BDF8B504460E460020009000270025E8
:1054500070880012062874D006DC01281BD00228B0
:1054600021D003286ED132E007286CD00F28F9D163
:10547000D4F8B402C06938B1207CD4F8B412CA6937
:1054800069469047074605E031462046FFF763FF2F
:10549000681CC5B2CBE0207CD4F8B4120A68694617
:1054A00090470746C3E0207C40B9D4F8B802816A2F
:1054B0006846884707460220787007E0D4F8B802AB
:1054C000C16A68468847074602207870AFE0B07826
:1054D00006287AD2DFE800F00316293F5265D4F897
:1054E000B402406838B1207CD4F8B4124A686946E6
:1054F0009047074605E031462046FFF72CFF681C21
:10550000C5B269E0D4F8B402806838B1207CD4F820
:10551000B4128A6869469047074605E0314620463E
:10552000FFF719FF681CC5B256E0D4F8B402C06892
:1055300050B1207CD4F8B412CA6869469047074637
:1055400008E04BE06CE059E031462046FFF703FFEE
:10555000681CC5B240E0D4F8B402006938B1207CC0
:10556000D4F8B4120A6969469047074605E0314607
:105570002046FFF7F0FE681CC5B22DE0D4F8B40257
:10558000406938B1207CD4F8B4124A696946904722
:10559000074605E031462046FFF7DDFE681CC5B230
:1055A0001AE0D4F8B402806940B1207CD4F8B41277
:1055B0008A6969469047074606E006E0314620467C
:1055C000FFF7C9FE681CC5B206E031462046FFF76A
:1055D000C2FE681CC5B200BF00BF28E0207C30B905
:1055E000D4F8B802416B68468847074605E0314663
:1055F0002046FFF7B0FE681CC5B218E0207C40B919
:10560000D4F8B802016B68468847074607207870CF
:1056100005E031462046FFF79EFE681CC5B206E055
:1056200031462046FFF797FE681CC5B200BF00BF99
:1056300005B1F8BDF088C0B1BDF8000080B1F088B8
:10564000BDF80010884202DDBDF8000000E0F088DF
:105650000090BDF8002039462046FFF7A9FE07E07C
:1056600031462046FFF777FE02E02046FFF7B1FE05
:1056700000BFDEE72DE9F84105460F462C462E46D1
:105680004FF0000870883178884218DD307800903B
:105690000FE06946204600F020F8044660780528AF
:1056A00007D1A04698F80200B84200D106E04FF0BA
:1056B00000087088BDF800108842EADC00BF404650
:1056C000BDE8F881014600200A4602E0431CD8B23A
:1056D000521C1378002BF9D1704710B502461046C2
:1056E0000B88047823440B800378981810BD70B59C
:1056F00004460D4694F89C02012804D0022803D0E9
:1057000003281AD101E000BF00BFE888022804D0B6
:1057100029462046FFF71FFE14E00120E060D4F880
:10572000A40218B1E06840F00200E060022204F137
:105730000C012046FFF73CFE04E029462046FFF717
:105740000AFE00BF00BF70BD2DE9F04107460D46BF
:10575000904600240FB9BDE8F0813E463046FFF781
:10576000B1FF022101EB4000A8F8000098F800000A
:105770002855601CC4B203202855601CC4B208E040
:1057800030782855761C601CC4B200202855601C57
:10579000C4B230780028F3D100BFDCE70146002016
:1057A00031B1012906D0022906D0032908D105E02C
:1057B000002007E0032005E0012003E0032001E0D2
:1057C000032000BF00BF704770B505460C462DB9D9
:1057D0002246064906A0FFF7B7FF04E02246034928
:1057E00003A0FFF7B1FF014870BD0000CC0A002004
:1057F00043444320436F6E666967000002461220EF
:1058000008800148704700004000002070B5054640
:105810000C462DB92246064906A0FFF795FF04E085
:105820002246034903A0FFF78FFF014870BD000027
:10583000CC0A002043444320496E7465726661635C
:1058400065000000024604200880014870470000FF
:105850006000002070B505460C462246024903A0B0
:10586000FFF772FF004870BDCC0A002053544D6909
:1058700063726F656C656374726F6E696373000049
:1058800070B505460C462DB92246064906A0FFF71D
:105890005BFF04E02246034903A0FFF755FF0148E0
:1058A00070BD0000CC0A002053544D33322056699D
:1058B000727475616C20436F6D506F7274000000DC
:1058C00070B505460C461A202080FBF7D9F901482F
:1058D00070BD0000640000202DE9F04104460D4633
:1058E000164614B90320BDE8F0810020C4F8B802C0
:1058F000C4F8C402C4F8D0020DB1C4F8B4520120F7
:1059000084F89C022670204600F04EF9074638467F
:10591000E9E72DE9F04104460D4600260027294617
:10592000D4F8C802FBF72DFE06463046FFF736FFD7
:1059300007463846BDE8F0812DE9F04104460D46A2
:10594000002600272946D4F8C802FBF7E5FD0646E5
:105950003046FFF723FF07463846BDE8F0812DE9C2
:10596000F04704460F469146002F56D104F1140526
:10597000D4F89402022846D1D5E9020188420FD911
:10598000D5E90201401AA86049462046AA68FFF7F7
:10599000D6FC00231A461946204600F0B9F932E039
:1059A000D5E90210884217D1E9686868884213D3A4
:1059B0006868D4F8981288420ED200221146204618
:1059C000FFF7BDFC0020C4F8980200231A461946D0
:1059D000204600F09DF916E094F89C0203280BD1B4
:1059E000D4F8B802C06838B10020C4F8D402D4F8A2
:1059F000B802C168204688478021204600F047FA57
:105A00002046FFF7C8FC94F8A00250B3204600F0EF
:105A1000C5FA002084F8A00223E047F08001204668
:105A2000FFF77BFC0646FF2E1BD0D6B994F89C02EC
:105A3000032816D104F52E7050F82600406980B175
:105A4000C4F8D46204F52E7050F826003946426935
:105A5000204690478046B8F1000F02D04046BDE88E
:105A6000F0870020FBE72DE9F04705460F469046FA
:105A70004FF00009002F51D105F5AA76D5F8940210
:105A800003286FD1D6E90201884210D9D6E9020174
:105A9000401AB060D6E90201884201D2B06800E045
:105AA000F068024641462846FFF73DFC5AE095F86B
:105AB000AA0200F01F0020B1012804D0022812D150
:105AC00009E0002411E040F2AE20415D2846FFF7D6
:105AD00027FC044609E040F2AE20415D2846FFF76E
