:020000040800F2
:1000000038DA012051030008D149000815450008DD
:10001000CD4900087F0B0008918E00080000000009
:100020000000000000000000000000009102000835
:10003000DF0D000800000000ED020008615A000812
:100040006B0300086B0300086B0300086B030008D8
:100050006B0300086B0300086B0300086B030008C8
:100060006B0300086B0300086B030008B50C000865
:100070006B0300086B0300086B0300086B030008A8
:100080006B0300086B0300086B0300086B03000898
:100090006B0300086B0300086B0300086B03000888
:1000A0006B0300086B0300086B0300086B03000878
:1000B0006B0300086B0300086B0300086B03000868
:1000C0006B0300086B0300086B0300086B03000858
:1000D0006B030008916400086B0300086B030008C1
:1000E0006B0300086B0300086B0300086B03000838
:1000F000515B0008415B00086B0300086B030008BC
:100100006B0300086B0300086B0300086B03000817
:100110006B0300086B0300086B0300086B03000807
:100120006B030008C50C00086B0300086B03000894
:100130006B0300086B0300086B0300086B030008E7
:100140006B0300086B0300086B0300086B030008D7
:100150006B0300086B0300086B0300086B030008C7
:100160006B0300086B0300086B0300086B030008B7
:100170006B030008D54900087D0C00080000000052
:100180006B0300086B03000800F002F800F070F841
:100190000AA090E8000C82448344AAF10107DA45E2
:1001A00001D100F065F8AFF2090EBAE80F0013F0C4
:1001B000010F18BFFB1A43F0010318473CB80000B9
:1001C0005CB800000A444FF0000C10F8013B13F03B
:1001D000070408BF10F8014B1D1108BF10F8015BA0
:1001E000641E05D010F8016B641E01F8016BF9D193
:1001F00013F0080F1EBF10F8014BAD1C0C1B09D1EA
:100200006D1E58BF01F801CBFAD505E014F8016B5B
:1002100001F8016B6D1EF9D59142D6D370470000ED
:100220000023002400250026103A28BF78C1FBD8FF
:10023000520728BF30C148BF0B607047642900F0E7
:100240009181782900F0CA81732900F07883002019
:1002500070471FB50BF078F900F02EFC0400002069
:1002600000210BF05BF9401C60601FBD10B510BD94
:1002700000F0FDFB1146FFF7ECFF08F0EBFE00F08D
:100280002DFC03B4FFF7F2FF03BC00F071FC00008B
:100290002C4B19680868B0E8F04F80F30988BFF369
:1002A0006F8F4FF0000080F311887047000000004E
:1002B00008480068006880F308884FF0000080F369
:1002C000148862B661B6BFF34F8FBFF36F8F00DF44
:1002D00000BF00BF08ED00E0DFF80C00016841F44A
:1002E00070010160704700BF88ED00E0EFF3098006
:1002F000BFF36F8F134B1A681EF0100F08BF20ED6D
:10030000108A20E9F04F106009B44FF0500080F3DC
:100310001188BFF34F8FBFF36F8F0AF0EBF84FF0E8
:10032000000080F3118809BC19680868B0E8F04F34
:100330001EF0100F08BFB0EC108A80F30988BFF3DD
:100340006F8F704744010020EFF305807047000075
:100350000948804709480047FEE7FEE7FEE7FEE759
:10036000FEE7FEE7FEE7FEE7FEE7FEE70448054995
:10037000054A064B704700002D5B00088901000804
:1003800038D4012038DA012038D6012038D60120AF
:1003900053EA020C00F069802DE9F04B4FF00006A3
:1003A000002B1FBFB3FA83F503FA05F424FA05F610
:1003B0005E4012BF1643B2FA82F502FA05F4C5F1A7
:1003C00020051EBF22FA05FC44EA0C04203556EA3B
:1003D000044C4FEA144418BF641C4FF000084FF05F
:1003E0000009904271EB030C39D3002919BFB1FA0F
:1003F00081F701FA07F6B0FA80F700FA07F6C7F1BD
:1004000020071EBF20FA07FC46EA0C062037B6FB81
:10041000F4FCA7EB0507103F07F01F0BCBF12006FC
:100420000CFA0BFB2CFA06F644BFB3460026202F2D
:10043000A4BF5E464FF0000B5BEA060C08BF4FF00E
:10044000010B19EB0B09ABFB027C48EB0608C01B48
:1004500006FB02CC0BFB03CC71EB0C01C1E70B4696
:10046000024641464846BDE8F08B13B54FF0000008
:100470004FF00001AFF30080BDE81C407047000062
:100480000FB41CB5074B06AA7B446946009005983B
:1004900000F02BFA0020694600F03AFA1CBC5DF827
:1004A00014FB0000850400002DE9F0410E460446CF
:1004B000002020622046E168884730B3252805D017
:1004C000D4E901219047206A401CF2E7E168204608
:1004D00000278847050018D0A5F14100192802D847
:1004E00020354FF400673246294620462760FFF743
:1004F000A5FE40B1012804D0F61D26F007060836F7
:10050000D8E7361DD6E72846DAE7206ABDE8F0814D
:1005100070B50C460546012A05D02878800600D51E
:10052000EA69002302E0012305E05B1C934202D24A
:10053000E05C0028F9D1A869E618C01AA861286A09
:10054000184428622846AFF3008004E0D5E9012171
:1005500014F8010B9047B442F8D32846AFF300805B
:1005600070BD00002DE9F041064600241068752991
:10057000314616A510D0AFF30080002802DA4042C1
:1005800013A507E031688A0701D512A502E04907E3
:1005900004D511A5012401E0AFF3008000210A2257
:1005A00006F1240709E0B0FBF2FCB0FBF2F302FB1A
:1005B0001C00303078541846491C0028F3D12346DB
:1005C0002A463046BDE8F04100F030B90000000096
:1005D0002D0000002B0000002000000070B5044634
:1005E0000D4621461068AFF300802188090502D529
:1005F0000F4A7A4402E00E4A7A440E32002104F196
:10060000240305E000F00F060009965D5E54491CC6
:100610000028F7D120780023000704D5702D02D0E0
:1006200009B1022311322046BDE8704000F0FEB847
:10063000A7B3000070B5064600F0F4F8046805465C
:1006400030460A22002100F07EF92C6070BD10B502
:10065000431C02E010F8011B71B18107FAD14FF081
:10066000013202C88C1A8C4314EAC211F9D0C01AA4
:100670000A0603D0C01E10BDC01A10BD0A0401D066
:10068000801E10BD0902FCD0401E10BD032A40F29E
:10069000308010F0030C00F0158011F8013BBCF124
:1006A000020F624498BF11F801CB00F8013B38BF3C
:1006B00011F8013BA2F1040298BF00F801CB38BF4A
:1006C00000F8013B11F0030300F02580083AC0F068
:1006D000088051F8043B083A51F804CBA0E8081010
:1006E000F5E7121D5CBF51F8043B40F8043BAFF343
:1006F0000080D20724BF11F8013B11F801CB48BF9D
:1007000011F8012B24BF00F8013B00F801CB48BFD2
:1007100000F8012B704710B5203AC0F00B80B1E80B
:100720001850203AA0E81850B1E81850A0E8185026
:10073000BFF4F5AF5FEA027C24BFB1E81850A0E82F
:10074000185044BF18C918C0BDE810405FEA827C49
:1007500024BF51F8043B40F8043B08BF7047D20760
:1007600028BF31F8023B48BF11F8012B28BF20F801
:10077000023B48BF00F8012B704702F0FF0343EA39
:10078000032242EA024200F002B84FF000020429BC
:10079000C0F0128010F0030C00F01B80CCF1040CB0
:1007A000BCF1020F18BF00F8012BA8BF20F8022BE4
:1007B000A1EB0C0100F00DB85FEAC17C24BF00F88A
:1007C000012B00F8012B48BF00F8012B70474FF0B8
:1007D000000200B5134694469646203922BFA0E891
:1007E0000C50A0E80C50B1F12001BFF4F7AF09079D
:1007F00028BFA0E80C5048BF0CC05DF804EB89008E
:1008000028BF40F8042B08BF704748BF20F8022BD0
:1008100011F0804F18BF00F8012B704770477047E8
:100820007047000000487047D8D301202DE9F047F9
:100830000D4699469246044600F124080168880650
:1008400004D5E06921F01001216000E00120A842F8
:1008500001DD471B00E00027A1697A1902EB0900BE
:10086000081AA0612078C00602D42046AFF30080A9
:10087000002608E0D4E901211AF806009047206A12
:10088000401C761C20624E45F4DB2078C0060AD559
:100890002046AFF3008006E0D4E9012130209047E4
:1008A000206A401C2062381EA7F10107F4DC07E033
:1008B000D4E9012118F805009047206A401C206205
:1008C000281EA5F10105F3DC2046AFF30080207857
:1008D000000602D50220BDE8F0870120FBE70000FA
:1008E00001694A1C02610878704700B58FB0CDE9F4
:1008F00001310021059105497944CDE903101146E4
:100900006846FFF7D1FD0FB000BD0000E5FFFFFF17
:100910000A6802F8010B0A60704710B5436913B109
:10092000AFF3008001E0FFF7F3FD012010BD127866
:1009300000F124010A7000224A700122EDE71168DB
:100940004FF0FF32E9E72DE9F04791460F46804628
:100950000446002614F8015B2DB100F031F8006860
:10096000405DC007F6D12B2D02D02D2D18D0641E6E
:100970004A463946204600F02BF827B13968A14293
:1009800001D1C7F800804FF0020471050BD5404239
:10099000002803DDFFF746FF0460A007BDE8F087ED
:1009A00046F48066E4E70028F8DAFFF73BFF0460CE
:1009B0006FF00040F2E7000000487047D8D30120F4
:1009C00010B500F079F8001D10BD00BF51AB00005C
:1009D0002DE9F05F824615468B4600270AF1010497
:1009E000B9460078302801D09DB113E014F8010B0E
:1009F0000127782803D0582801D045B10AE00DB16D
:100A0000102D07D1002714F8010B102502E008254E
:100A100000E00A250026B0460EE005FB080005FBB5
:100A200006F101271FFA80F801EB1046B6F5803F6A
:100A300000D3B94614F8010B294600F041F800280C
:100A4000EBDABBF1000F05D00FB1641E00E0544695
:100A5000CBF80040B9F1000F06D0FFF7E3FE02210A
:100A60000160C81EBDE8F09F48EA0640FAE77546F7
:100A7000FFF7A2FFAE4605006946534620F0070087
:100A8000854618B020B5FFF771FCBDE820404FF057
:100A900000064FF000074FF000084FF0000B21F068
:100AA0000701AC46ACE8C009ACE8C009ACE8C00935
:100AB000ACE8C0098D46704700487047F8D3012064
:100AC0003A2800D2303820F02002412A01D3A2F186
:100AD0003700884201D34FF0FF30704710B504460D
:100AE000AFF300802046BDE81040FFF7CABB00000E
:100AF0004FF0013C50F8042B51F8043B9A4221D1AD
:100B0000A2EB0C03934313EACC1317D150F8042B38
:100B100051F8043B9A4215D1A2EB0C03934313EA1C
:100B2000CC130BD150F8042B51F8043B9A4209D155
:100B3000A2EB0C03934313EACC13DBD04FF000007D
:100B4000704700BFD01A01BAB1FA81F101F0180163
:100B500022FA01F0CB40C1F12001DBB2C0B2C01AD1
:100B60002CFA01F3D11A914311EAC311E6D170476F
:100B700001491820ABBEFEE726000200704700BF07
:100B8000FEE70346042B15D007DC7BB1012B0ED00A
:100B9000022B0DD0032B12D10BE0202B0BD0212BDD
:100BA0000AD0222B09D0232B09D107E008E007E067
:100BB00006E005E004E003E002E001E000E000BF41
:100BC00000BF0020704700207047000010B50022D1
:100BD0000449054805F0FFFE0449034805F0ECFE12
:100BE000002010BDEC72012010660120EC6A01208B
:100BF00070B504460D462146064805F0DDFE054861
:100C000005F0A6FE288882B22146034808F042F982
:100C1000002070BD10660120D2CF012010B5034620
:100C20000C460021084610BD2DE9F04104460D4652
:100C300000260A48D0F8BC72D7F8140210B101207F
:100C4000BDE8F0812A462146044805F0C4FE034869
:100C500005F074FF06463046F2E7000010660120FA
:100C600070B50546AC6BA06B406D022802D0012028
:100C700084F82500204600F047FA70BD10B5024800
:100C800000F052FA10BD0000AC6301200748006874
:100C9000006840F0010005490968086004480068E0
:100CA00040F001000249086070470000EC63012039
:100CB0000000055010B5024800F014FC10BD000003
:100CC0002465012010B5024800F00CFC10BD0000A6
:100CD000EC6301200146087810381823B0FBF3F2CA
:100CE0000848805CC865032A05D908686FF30900C5
:100CF000001D886503E008686FF309008865886D4A
:100D00007047000048B60008014600208A6A8B69D7
:100D1000CBB932B1012A0DD0022A03D0032A10D157
:100D20000EE000BFCB6A03F08073B3F1807F00D187
:100D3000012007E0CB6AB3F1C07F00D1012001E0C0
:100D400000E000BF34E08B69B3F5005F1AD132B127
:100D5000012A07D0022A03D0032A11D10AE000BFDA
:100D600001200EE0CB6A03F08073B3F1807F00D1E5
:100D7000012006E0CB6AB3F1C07F00D1012000E082
:100D800000BF15E032B1012A05D0022A04D0032A9F
:100D90000CD103E000BF00BF012008E0CB6A03F0E4
:100DA0008073B3F1807F00D1012000E000BF00BF5D
:100DB000704730B50468246824F4802405682C60EA
:100DC000046863608468402C04D10468A2600468ED
:100DD000E16003E00468A1600468E26030BD704730
:100DE00072B600BFFEE7000010B5002201B909E0AD
:100DF000012901D10A0205E0022901D10A0201E01C
:100E00004FF440720E4B1B6823F440730C4C23606C
:100E100023461B681343236023461B6823F0F80313
:100E2000236023461B68022444EAC0042343044C85
:100E3000236023461B6843F48033236010BD000009
:100E4000103C02401C48006800F40070B0B11A4821
:100E5000006820F400701849086000BF0846006868
:100E600040F4006008600846006820F400600860F4
:100E700000BF0846006840F4007008600E48006833
:100E800000F48060B0B10C48006820F480600A492A
:100E9000086000BF0846006840F4805008600846BB
:100EA000006820F48050086000BF0846006840F4E5
:100EB0008060086070470000003C02400A4A1268E7
:100EC00022F44072084B1A601A46126842F004027B
:100ED0001A601A4612684FF4803343EA00231A431B
:100EE000014B1A6070470000103C0240074A12682C
:100EF00022F44072054B1A601A4612681A601A46AC
:100F0000126842F001021A6001707047103C024002
:100F100010B50D49096821F440710B4C2160214640
:100F2000096841F4407121602146096841F00101DE
:100F30002160026000BF00BF00BFBFF36F8F00BF22
:100F400000BF00BF436010BD103C0240084A126859
:100F500022F44072064B1A601A46126842F48072FC
:100F60001A601A46126842F001021A600180704746
:100F7000103C0240084A126822F44072064B1A6084
:100F80001A46126842F400721A601A46126842F059
:100F900001021A6001607047103C0240234800685B
:100FA00000F0100040B12248C06940F01000204914
:100FB000C86110201D4908601C48006800F020002E
:100FC00040B11B48C06940F008001949C8612020A1
:100FD000164908601548006800F0400040B1144808
:100FE000C06940F004001249C86140200F49086000
:100FF0000E48006800F0800040B10D48C06940F024
:1010000002000B49C8618020084908600748006851
:1010100000F0020040B10648C06940F020000449D9
:10102000C861022001490860704700000C3C024082
:101030001882012070B50446002500201449C861BB
:1010400000F044FE054609E0601C38B124B100F010
:101050003DFE401BA04201D9032070BD0D48006831
:1010600000F480300028EFD10A48006800F0010049
:1010700010B10120074908600648006800F0F2003E
:1010800018B1FFF78BFF0120E7E70020E5E700003C
:10109000188201200C3C024030B501460022002499
:1010A000CB78002006E00D5C1544EAB2A518ECB23E
:1010B000451CE8B21D1DA842F5DB181D085C9042D6
:1010C00005D1581D085CA04201D1012030BD00208F
:1010D000FCE7000070B50A480468001D0568001DA3
:1010E0000668344454B108220649204603F014FA35
:1010F000042204491031284603F00EFA70BD0000A6
:10110000107AFF1F76000020704700B502460120CC
:101110001168486107F064FF1068C06840F0010082
:101120001168C86000BD000070B5044620680569FC
:1011300005F0040004280ED121684861E06B40F0FE
:101140000200E063042084F825002248A16B0865B2
:10115000A06B00F0B2F905F0020002280ED1216860
:101160004861E06B40F00100E063042084F8250052
:101170001848A16B0865A06B00F09FF905F01000FE
:10118000102804D121684861204600F06EF805F06F
:101190000800082804D121684861204600F036F98B
:1011A00005F00100A0B12068006800F002000228EC
:1011B00005D12068C06820F01E002168C860206842
:1011C000C06820F001002168C8602046FFF79DFF3D
:1011D00070BD0000610C000810B504460CB9012078
:1011E00010BD94F8250040B9002084F82400204662
:1011F00000F03CF8204600F039F8022084F8250081
:101200002068006840F6F8718843216808606169C9
:1012100060680843E168084321690843A1680843FE
:10122000A1690843216A08432168096808432168C5
:101230000860606810280BD1217F607F41EA00219F
:10124000A07F41EA0041E07F41EA006021688861B7
:101250002068C06840F01E002168C8600020E0637C
:10126000012084F825000020BAE7704710B586B049
:101270000446142101A8FFF7AAFA5C4920688842B5
:101280007ED100BF002000905948006840F0010066
:10129000574908600846006800F00100009000BF50
:1012A00000BF00BF00200090081F006840F0100041
:1012B000091F08600846006800F01000009000BF99
:1012C00000BF00BF002000900846006840F0010009
:1012D00008600846006800F00100009000BF00BFF1
:1012E00000BF002000900846006840F0040008603D
:1012F0000846006800F00400009000BF00BF00BF77
:10130000002000900846006840F00200086008468F
:10131000006800F00200009000BF00BF7020019044
:10132000022002900020039004900D20059001A956
:10133000304800F0C3FB50200190022002900020B2
:10134000039004900D20059001A92B4800F0B6FBF6
:101350004FF47070019002200290002003900490DE
:101360000D20059001A9254800F0A8FBC0200190A0
:10137000022002900020039004900D20059000E0D0
:1013800031E001A91E4800F099FB1E481E49086083
:101390004FF00070486000211B488160C1604FF42D
:1013A0008061016189004161890081618911C161A8
:1013B0000021016204214162012181620021C16298
:1013C000016300F0AFF908B1FFF70AFD00BF0E4856
:1013D000A063846300BF002205214E2000F03AFD87
:1013E0004E2000F027FD06B010BD000000000550A3
:1013F0003438024000100240000002400008024061
:101400000004024028640240EC630120704770B57C
:101410000446A56D00F05AFC064694F835000228F3
:1014200008D08020606500BF002084F8340000BF31
:10143000012070BD2068006820F016002168086057
:101440002068406920F0800021684861206C08B95C
:10145000A06C28B12068006820F0080021680860AE
:101460002068006820F001002168086010E000F0AA
:101470002DFC801B05280BD920206065032084F8F3
:10148000350000BF002084F8340000BF0320D0E7FF
:101490002068006800F001000028E8D194F85C1092
:1014A0003F208840A860012084F8350000BF00205C
:1014B00084F8340000BF00BFBBE7014691F8350057
:1014C000022803D08020486501207047052081F85C
:1014D00035000868006820F001000A6810600020EC
:1014E000F3E70000F8B50446002000908C4800683F
:1014F0004FF41651B0FBF1F7A56D2E6894F85C100F
:1015000008208840304098B12068006800F004004E
:1015100070B12068006820F004002168086094F829
:101520005C1008208840A860606D40F00100606594
:1015300094F85C1001208840304068B12068406910
:1015400000F0800040B194F85C1001208840A86051
:10155000606D40F00200606594F85C1004208840E3
:10156000304068B12068006800F0020040B194F893
:101570005C1004208840A860606D40F00400606545
:1015800094F85C1010208840304078B320680068E0
:1015900000F0080050B394F85C1010208840A86058
:1015A0002068006800F4802080B12068006800F4A2
:1015B000002028B9206CC8B12046216C884715E06E
:1015C000A06C98B12046A16C88470FE020680068A5
:1015D00000F4807028B92068006820F008002168B5
:1015E0000860206C10B12046216C884794F85C108C
:1015F000202088403040002865D02068006800F036
:10160000100000285FD094F85C1020208840A8606B
:1016100094F83500052828D12068006820F01600CD
:10162000216808602068406920F0800021684861D6
:10163000206C08B9A06C28B12068006820F0080070
:101640002168086094F85C103F208840A860012061
:1016500084F8350000BF002084F8340000BF206DFE
:1016600010B12046216D8847F8BD2068006800F45D
:10167000802080B12068006800F4002028B9606CE8
:1016800010B12046616C88471DE0E06BD8B1204660
:10169000E16B884717E02068006800F4807068B943
:1016A0002068006820F0100021680860012084F89C
:1016B000350000BF002084F8340000BFE06B10B19B
:1016C0002046E16B8847606D38B3606D00F0010023
:1016D000F0B1052084F835002068006820F0010092
:1016E0002168086000BF0098401C0090B84200D9F3
:1016F00005E02068006800F001000028F3D100BF79
:10170000012084F8350000BF002084F8340000BFB9
:10171000E06C10B12046E16C884700BFA4E70000F0
:10172000B00000202DE9F0410446002500F0CEFA7B
:10173000074614B90120BDE8F081606A00B100BF1E
:10174000022084F8350000BF002084F8340000BF78
:101750002068006820F00100216808600AE000F0BD
:10176000B5FAC01B052805D920206065032084F840
:101770003500E0E72068006800F001000028EED1A5
:101780002068056821480540D4E901010843E16863
:1017900008432169084361690843A1690843E16975
:1017A0000843216A08430543606A042803D1D4E949
:1017B0000B0108430543206805602068456925F052
:1017C0000705606A0543606A04280DD1A06A0543D5
:1017D000E06A48B12046FFF797FA28B140206065DB
:1017E000012084F83500A6E7206845612046FFF710
:1017F00071FA064694F85C103F208840B0600020E3
:101800006065012084F83500002094E73F8010F0E7
:101810002DE9F04104460D4616461F464FF00008DC
:1018200000BF94F83400012802D10220BDE8F08105
:10183000012084F8340000BF94F83500012811D14C
:10184000022084F83500002060653B463246294678
:101850002046FFF7AEFA2068006840F001002168DA
:10186000086006E000BF002084F8340000BF4FF09D
:1018700002084046DAE72DE9F04704460D461646D1
:101880001F464FF00008D4F8589000BF94F8340079
:10189000012802D10220BDE8F087012084F834003D
:1018A00000BF94F83500012825D1022084F83500C6
:1018B000002060653B46324629462046FFF779FA0C
:1018C00094F85C103F208840C9F808002068006840
:1018D00040F0160021680860206C28B1206800687C
:1018E00040F00800216808602068006840F00100AE
:1018F0002168086006E000BF002084F8340000BFC3
:101900004FF002084046C6E770B5044600F0DEF925
:1019100006462546681C10B104480078054400BFFF
:1019200000F0D4F9801BA842FAD370BDAC000020AF
:101930002DE9F04104460E460127002500BF254849
:10194000007E012802D10220BDE8F081012021495A
:10195000087600BF4CF25030FFF76CFB0746002FB3
:1019600031D1401E3060206801280FD1207C616891
:10197000FFF7A4FA4CF25030FFF75CFB074616481D
:10198000006820F00400144908601AE0A56812E01D
:10199000217C2846FFF728FA4CF25030FFF74AFB2B
:1019A00007460D48006820F0FA000B4908600FB1A7
:1019B000356005E06D1CD4E902100844A842E7D860
:1019C00000BFFFF73FFA00BF00200249087600BFC2
:1019D0003846B9E718820120103C024003480068ED
:1019E00040F000400149086000207047103C024070
:1019F0002DE9F04106460F4614461D464FF00108FA
:101A000000BF1F48007E012802D10220BDE8F081FE
:101A100001201B49087600BF4CF25030FFF70AFB4B
:101A20008046B8F1000F23D126B9E1B23846FFF75E
:101A30005DFA12E0012E04D1A1B23846FFF786FA12
:101A40000BE0022E04D121463846FFF793FA04E05A
:101A500022462B463846FFF75BFA4CF25030FFF730
:101A6000E9FA80460748006820F00100054908604F
:101A700000BF00200249087600BF4046C6E70000CC
:101A800018820120103C024000200949096801F039
:101A9000004159B10749064A0C3A116006491160E4
:101AA0000349096801F0004101B1012070470000BD
:101AB000103C024023016745AB89EFCDF8B50246E3
:101AC0000B460025002400200021D6E0012606FA5E
:101AD00001F51E6806EA0504AC4274D11E7906F0D1
:101AE0000306012E04D01E7906F00306022E13D140
:101AF00090684F000326BE40B0434F00DE68BE40F2
:101B000030439060506801268E40B0431E79C6F382
:101B100000168E40304350601E7906F00306032EF7
:101B200009D0D0684F000326BE40B0434F009E68E6
:101B3000BE403043D0601E7906F00306022E13D15A
:101B4000CF0802F1200656F827004E07F70E0F26A1
:101B5000BE40B0434F07FF0E1E69BE403043CF0862
:101B600002F1200646F8270010684F000326BE4009
:101B7000B0431E7906F003064F00BE4030431060AC
:101B80005E6806F44036002E76D000BF0026009630
:101B90003C4E366846F480463A4F3E603E463668D4
:101BA00006F48046009600BF00BF374E8F0856F8F7
:101BB00027008E07370F0F26BE40B043334EB24288
:101BC00002D1002624E057E0314EB24201D1012675
:101BD0001EE0304EB24201D1022619E02E4EB24232
:101BE00001D1032614E02D4EB24201D104260FE0AC
:101BF0002B4EB24201D105260AE02A4EB24201D153
:101C0000062605E0284EB24201D1072600E008264C
:101C10008F073F0FBE4030431B4E8F0846F827000A
:101C2000224E3068A0435E6806F4801606B1204359
:101C30001E4E3060361D3068A0435E6806F4001604
:101C400006B12043194E361D3060184E361F3068DD
:101C5000A0435E6806F4003606B12043134E361FDB
:101C60003060361F3068A0435E6806F4803606B1E7
:101C700020430E4E083E3060491C1029FFF426AF69
:101C8000F8BD00004438024008380140000002401E
:101C90000004024000080240000C02400010024014
:101CA0000014024000180240001C0240083C0140A1
:101CB000024613690B400BB1012000E00020704781
:101CC0000AB1816101E00B0483617047014800683B
:101CD00070470000A4000020034800680349097809
:101CE0000844014908607047A4000020AC000020AF
:101CF00010B50D48006840F400700B4908600846B4
:101D0000006840F4806008600846006840F4807015
:101D10000860032000F0DCF80F2000F007F800F066
:101D20005FF8002010BD0000003C02402DE9F041AA
:101D300088B004460027B84600BF00200190234821
:101D4000006840F48070214908600846006800F48B
:101D50008070019000BF00BF02A903A801F06AF8DB
:101D6000069F1FB901F08EF8054602E001F08AF8DF
:101D700045001748B5FBF0F0A0F1010815481649D9
:101D8000086040F2E7311448C160C0F804800021C7
:101D900001618160816101F0D1FB064696B90E4870
:101DA00001F03CFC06466EB92D2000F043F8102CE3
:101DB00007D2002221462D2000F04CF8074804608D
:101DC00000E00126304608B0BDE8F081403802400E
:101DD00040420F0000200040C8650120A8000020FC
:101DE00008B500BF002000901148006840F4804012
:101DF0000F4908600846006800F48040009000BF6A
:101E000000BF00BF00200090081F006840F0805015
:101E1000091F08600846006800F08050009000BF6D
:101E200000BF00220F21901E00F014F808BD000032
:101E30004438024001460846002809DB00F01F0331
:101E400001229A4043099B0003F1E023C3F80021DB
:101E500000BF70472DE9F05F80460D46164600270B
:101E600007F09EF8074639462A46334601F0070038
:101E7000C0F1070ABAF1040F02D94FF0040A01E0D9
:101E8000C0F1070AD14600F1040ABAF1070F02D2E5
:101E90004FF0000A01E0A0F1030AD4464FF0010A16
:101EA0000AFA09FAAAF1010A0AEA020A0AFA0CFA7B
:101EB0004FF0010B0BFA0CFBABF1010B0BEA030B20
:101EC0004AEA0B042146404607F072F8BDE8F09F4D
:101ED00000BF00F00702064B19684FF6FF031940D8
:101EE000044B0B4343EA0221014B196000BF7047CA
:101EF0000CED00E00000FA057047024610684162F0
:101F000000207047F0B5034615461868446A21B9A9
:101F100044EA05401E68B06219E01868806A04EB64
:101F20001044002208E0186800F5827050F8220082
:101F300004EB1044501CC2B2481E9042F3D844EA4D
:101F40000547186800F582704E1E40F82670002084
:101F5000F0BD10B50446D4F8080505F05BFA10BDD5
:101F600070B504460D4605EBC50304F13C0101EBD9
:101F700083010A692946D4F8080505F046F970BDC1
:101F800070B504460D4605EBC50304F51F7101EB62
:101F900083010A692946D4F8080505F0BAF970BD2D
:101FA00010B50446D4F8080505F037FA10BD2DE940
:101FB000F04104460D4605F08000802808D105F068
:101FC0000F0000EBC00104F13C0000EB810607E0CC
:101FD00005F00F0000EBC00104F51F7000EB810657
:101FE0003146206806F010FD07463846BDE8F0810E
:101FF00070B504460E4606F0800080280AD106F02F
:102000000F0000EBC00104F13C0000EB8105012052
:10201000687009E006F00F0000EBC00104F51F70C6
:1020200000EB81050020687006F00F00287000BFEB
:1020300094F8BC04012801D1022070BD012084F86D
:10204000BC0400BF2946206805F0BEFF00BF002089
:1020500084F8BC0400BF00BFEFE770B504460E462D
:1020600006F00F006168884201D9012070BD06F0BA
:10207000800080280AD106F00F0000EBC00104F1B7
:102080003C0000EB81050120687009E006F00F00BC
:1020900000EBC00104F51F7000EB810500206870A3
:1020A0000020A87006F00F00287000BF94F8BC0450
:1020B000012801D10220D9E7012084F8BC0400BF27
:1020C0002946206806F068FA00BF002084F8BC04A6
:1020D00000BF00BFCAE7024601F00F0000EBC003DB
:1020E00002F51F7000EB8300006A70472DE9F0478E
:1020F00005460E4690461F464FF0000906F0800048
:1021000080280AD106F00F0000EBC00105F13C0069
:1021100000EB81040120607009E006F00F0000EB85
:10212000C00105F51F7000EB81040020607006F00F
:102130000F002070C4F80C802771607808B12078F7
:102140002081022F01D10020607100BF95F8BC04EE
:10215000012802D10220BDE8F087012085F8BC04E7
:1021600000BF2146286805F045FE00BF002085F825
:10217000BC0400BF4846EEE72DE9F04104460E4698
:102180001746984606F00F0000EBC00104F51F70DB
:1021900000EB81052F61C5F8188000202862687067
:1021A00006F00F0028702069012800D16F6106F049
:1021B0000F0028B9227C2946206806F0C7F804E001
:1021C000227C2946206806F07BFA0020BDE8F081D9
:1021D00070B504460D4605F00F006168884201D9CC
:1021E000012070BD05F0800080280AD105F00F00A5
:1021F00000EBC00104F13C0000EB8106012070708F
:1022000007E005EBC50104F51F7000EB8106002017
:1022100070700120B07005F00F00307000BF94F8AE
:10222000BC04012801D10220DBE7012084F8BC04B2
:1022300000BF3146206806F0F6F905F00F0028B916
:10224000217C04F2C442206806F06EF900BF002031
:1022500084F8BC0400BF00BFC3E72DE9F041044689
:102260000E461746984606F00F0000EBC00104F139
:102270003C0000EB81052F61C5F818800020286222
:102280000120687006F00F0028702069012800D135
:102290006F6106F00F0028B9227C2946206806F0FD
:1022A00055F804E0227C2946206806F009FA00204F
:1022B000BDE8F0812DE9FE4F0446D4F800B05E463B
:1022C000206806F088FC002874D1206806F0C2FC63
:1022D00008B9BDE8FE8F40F608008059C0F30D2014
:1022E000C4F8FC04206806F0B5FC00F002000228E7
:1022F00005D12068406900F002002168486120682B
:1023000006F0A8FC00F01000102845D12068806974
:1023100020F0100021688861DBF8209009F00F00A0
:1023200000EBC00104F51F7000EB810AC9F34340C4
:1023300002281AD147F6F07009EA000030B3C9F359
:102340000A125846DAF8101006F089FCC9F30A118F
:10235000DAF810000844CAF81000C9F30A11DAF8D4
:1023600020000844CAF8200010E0C9F343400628C2
:102370000CD1082204F2C441584606F070FCC9F39F
:102380000A11DAF820000844CAF8200020688069A1
:1023900040F0100021688861206806F05BFC00F4C2
:1023A0000020B0F5002F7BD10025206806F022FC2C
:1023B000029072E0E1E2029800F00100002868D08B
:1023C000E9B2206806F039FC804608F0010048B107
:1023D000012106F5306000EB45108160294620465A
:1023E00002F090FC08F00800082809D1082106F541
:1023F000306000EB451081602946204602F050FC19
:1024000008F01000102805D1102106F5306000EB0F
:102410004510816008F00200022824D1DBF8140086
:1024200000F08000802807D140F60400805940F475
:10243000806140F60400815105EBC50104F51F7071
:1024400000EB810A9AF80300012806D100208AF8DF
:102450000300E9B2204600F09BFA022106F5306045
:1024600000EB4510816008F02000202805D12021D4
:1024700006F5306000EB4510816008F40050B0F5BF
:10248000005F06D14FF4005106F5306000EB4510B7
:1024900081606D1C029840080290029800288AD141
:1024A000206806F0D7FB00F48020B0F5802F7DD1A6
:1024B000206806F095FB029000259AE0029800F053
:1024C0000100002873D0E9B2206806F09DFB804629
:1024D00008F00100F0B305F00F01012088400190E1
:1024E00040F634008159019821EA000040F6340199
:1024F0008851012106F5106000EB451081602069CC
:10250000012824D105EBC50104F13C0000EB81005A
:1025100005EBC502016904F13C0000EB8200C068D4
:10252000014405EBC50204F13C0000EB82000161AF
:102530006DB905EBC50104F13C0000EB8100806939
:1025400028B904F2C4420121206805F0EDFFE9B288
:10255000204600E001E0FFF703FD08F0080008282E
:1025600005D1082106F5106000EB4510816008F0E8
:102570001000102805D1102106F5106000EB451061
:10258000816008F04000402805D1402106F5106028
:1025900000EB4510816008F0020002281DD1294699
:1025A000584606F0D9FA05EBC50101E025E01CE02C
:1025B00004F13C0000EB810A9AF80300012806D1DF
:1025C00000208AF80300E9B2204600F0D8F9022181
:1025D00006F5106000EB4510816008F0800080284F
:1025E00003D12946204602F02FFC6D1C02984008BA
:1025F0000290029800287FF461AF206806F02AFB61
:1026000000F00040B0F1004F1CD140F604008059AA
:1026100020F0010140F60400815194F8F4040128EF
:1026200007D1002084F8F40400212046FFF764FC61
:1026300002E0204600F0CAFA2068406900F000403D
:1026400021684861206806F005FB00F40060B0F5E1
:10265000006F0ED140F60800805900F0010010B163
:10266000204600F00BFB2068406900F40060216800
:102670004861206806F0EEFA00F48050B0F5805F03
:102680007ED140F60400805920F0010140F604009C
:1026900081511021206806F05FFA002732E04FF6E2
:1026A0007F3106F5106000EB4710816006F5106081
:1026B00000EB4710006820F4001106F5106000EBF5
:1026C000471001604FF67F3106F5306000EB471090
:1026D000816006F5306000EB4710006820F40011BF
:1026E00006F5306000EB4710016006F5306000EB46
:1026F0004710006840F0006106F5306000EB4710BD
:1027000001607F1C6068B842C9D840F61C0080593F
:1027100040F0011140F61C008151206B70B1D6F8D9
:10272000840840F00B01C6F8841840F64400805934
:1027300040F00B0140F6440081510FE040F61400D8
:10274000805942F22B01084340F614018851081FBA
:10275000805940F00B014FF401608151D6F8000818
:1027600020F4FE60C6F80008217C04F2C442206810
:1027700005F0DAFE2068406900F48050216800E02E
:1027800000E04861206806F065FA00F40050B0F5FA
:10279000005F17D1206805F095FB206806F008FA65
:1027A000E06000F069FB0090227B2068009906F051
:1027B000D9FA204600F0F2F92068406900F4005090
:1027C00021684861206806F045FA00F008000828F2
:1027D00008D1204600F001FA2068406900F00800A6
:1027E00021684861206806F035FA00F080008028F2
:1027F00018D1DBF8180020F08000CBF81800012574
:102800000DE005EBC50104F51F7000EB8100C078F9
:10281000012803D1E9B22046FFF7C9FB6D1C6068AF
:10282000A842EED8206806F015FA00F48010B0F542
:10283000801F2DD1012522E006F5106000EB451028
:10284000D0F8009005EBC50104F13C0000EB8100DD
:102850000079012812D109F00040B0F1004F0DD1EC
:10286000012105EBC50204F13C0000EB8200C170C0
:10287000E8B240F080012046FFF799FB6D1C6068CC
:10288000A842D9D82068406900F4801021684861C6
:10289000206806F0DFF900F40010B0F5001F44D105
:1028A000012538E006F5306000EB4510D0F80090C7
:1028B00005EBC50104F51F7000EB810000790128CC
:1028C00028D109F00040B0F1004F23D109F4803045
:1028D00094F8FC1401F0010188421BD1012105EBA1
:1028E000C50204F51F7000EB8200C170DBF8180010
:1028F00040F08000CBF81800DBF8140000F08000F6
:1029000040B940F60400805940F4007140F60400DC
:10291000815103E06D1C6068A842C3D800BF2068E5
:10292000406900F4001021684861206806F092F9BF
:1029300000F08040B0F1804F08D12046FFF709FB3E
:102940002068406900F0804021684861206806F0F6
:1029500081F900F0040004280FD12068D0F8049019
:1029600009F00400042802D12046FFF719FB206873
:10297000406840EA09002168486000BFA9E470B5DA
:1029800004460D462946D4F8080504F0B7FD70BD8D
:1029900070B504460D462946D4F8080504F0D2FD6A
:1029A00070BD70B58AB0044614B901200AB070BD7C
:1029B000266894F8BD0428B9002084F8BC04204699
:1029C00000F0A2F8032084F8BD04F06B00F48070DE
:1029D00008B900212161206805F0B0FC282204F12B
:1029E00010016846FDF797FE94E80F0005F07EFAA7
:1029F00020B1022084F8BD040120D7E7002120681F
:102A000006F05DF9002531E0012105EBC50204F176
:102A10003C0000EB8200417005EBC50104F13C0075
:102A200000F8215005EBC50100EB81000581002174
:102A300005EBC50204F13C0000EB8200017105EBDF
:102A4000C50204F13C0000EB8200C16005EBC50249
:102A500004F13C0000EB8200016105EBC50204F1CA
:102A60003C0000EB82008161681CC5B26068A8422E
:102A7000CAD800252AE0002105EBC50204F51F7025
:102A800000EB8200417005EBC50104F51F7000F8F2
:102A90002150002105EBC50200EB8200017105EB1E
:102AA000C50204F51F7000EB8200C16005EBC50292
:102AB00004F51F7000EB8200016105EBC50204F50F
:102AC0001F7000EB82008161681CC5B26068A8427B
:102AD000D1D8282204F110016846FDF71CFE94E8C5
:102AE0000F0005F03BFB20B1022084F8BD0401205B
:102AF0005CE7002084F83800012084F8BD042068D9
:102B000005F01AFB002051E710B586B004461421E9
:102B100001A8FDF75CFE1E492068884236D100BF3F
:102B2000002000901B48006840F00200194908602E
:102B30000846006800F00200009000BF00BF4FF49C
:102B40004040019002200290002003900320049056
:102B50000C20059001A91048FEF7B0FF00BF00202F
:102B600000900C48006840F000500A490860084690
:102B7000006800F00050009000BF00BF0022052157
:102B80004D20FFF767F94D20FFF754F906B010BD4F
:102B900000000440303802400004024070B5044692
:102BA0000125E06808B9002506E0E068022801D1A7
:102BB000012501E0FEF714F92946D4F8080504F0D0
:102BC0006AFDD4F8080504F011FD70BD10B5044687
:102BD000D4F8080504F040FD10BD10B50446D4F843
:102BE000080504F044FD10BD70B504460D4600BF55
:102BF00094F8BC04012801D1022070BD012084F8A2
:102C0000BC0400BF84F838502946206806F08BF8D1
:102C100000BF002084F8BC0400BF00BFEDE710B582
:102C2000044604F2C441D4F8080504F04BFD10BD7D
:102C300070B50446256800BF94F8BC04012801D192
:102C4000022070BD012084F8BC0400BFA06A0128E6
:102C500006D1A069012803D0A86B40F48030A86396
:102C6000206805F047FF206805F054FA00BF0020F7
:102C700084F8BC0400BF00BFE3E7000010B50446C1
:102C8000D4F8080504F07BFD2068D0F8000E40F071
:102C900001002168C1F8000E206A28B103480068CD
:102CA00040F006000149086010BD000010ED00E092
:102CB00070B504460D460CB9012070BD5848006837
:102CC00000F00700A84209D255490D700846006877
:102CD00000F00700A84201D00120EEE7207800F0C4
:102CE000020002281DD1207800F00400042805D13C
:102CF0004C48006840F4E0504A490860207800F0F1
:102D00000800082805D14748006840F4604045495C
:102D100008604448006820F0F000A1680843414979
:102D20000860207800F00100A8B36068012807D18E
:102D30003C4808380068C0F34040B8B90120BCE7FF
:102D40006068022802D06068032807D13548083837
:102D50000068C0F3406048B90120AEE73148083848
:102D60000068C0F3400008B90120A6E72D480068BC
:102D700020F00300616808432A490860FEF7A6FFB7
:102D8000064609E0FEF7A2FF801B41F28831884227
:102D900002D9032091E707E02248006800F00C0008
:102DA0006168B0EB810FEDD11D48006800F00700AD
:102DB000A84209D91A490D700846006800F00700BA
:102DC000A84201D0012078E7207800F00400042810
:102DD00007D11448006820F4E050E1680843114925
:102DE0000860207800F00800082808D10D48006825
:102DF00020F46040216940EAC1000A49086000F0FF
:102E000061F808490968C1F30311074A515CC840D9
:102E10000649086006480068FEF788FF00204CE776
:102E2000003C02400838024050B60008B0000020C4
:102E3000A80000200F2202600D4A126802F003026F
:102E400042600B4A126802F0F0028260084A12687F
:102E500002F4E052C260064A126802F46042D208EC
:102E60000261044A126802F007020A60704700001B
:102E700008380240003C02400148006870470000EA
:102E8000B000002000B5FFF7F7FF04490968C1F35F
:102E90008221034A515CC84000BD0000083802404E
:102EA00060B6000800B5FFF7E7FF04490968C1F301
:102EB0004231034A515CC84000BD0000083802405E
:102EC00060B600082DE9F047002400250026A14641
:102ED0002548006800F00C0020B1042805D008281F
:102EE0003AD105E0DFF8849039E0DFF8849036E0ED
:102EF0001D48001F006800F03F041B48001F0068C9
:102F000000F4800078B11A481749091F0968C1F315
:102F10008811A0FB01700146224600233846FDF7C8
:102F200037FA05460EE011480F49091F0968C1F339
:102F30008811A0FB01700146224600233846FDF7A8
:102F400027FA05460848001F0068C0F30140401CEE
:102F50004600B5FBF6F902E0DFF8109000BF00BFB5
:102F60004846BDE8F0870000083802400024F4001D
:102F7000001BB700F8B504460CB90120F8BD207855
:102F800000F00100002874D0F948006800F00C003F
:102F900004280DD0F648006800F00C00082813D172
:102FA000F348001F006800F48000B0F5800F0BD1DB
:102FB000EF4808380068C0F34040002859D06068E6
:102FC000002856D10120D9E700BF6068B0F5803FE6
:102FD00008D1E7480838006840F48030E4490839EF
:102FE00008601EE06068B0F5A02F0DD1E0480838F9
:102FF000006840F48020DE4908390860084600680F
:1030000040F4803008600CE0D9480838006820F4AB
:103010008030D749083908600846006820F48020CD
:10302000086000BF606890B1FEF750FE054606E0FC
:10303000FEF74CFE401B642801D903209EE7CC48D4
:1030400008380068C0F340400028F1D011E0FEF7D6
:103050003DFE054606E0FEF739FE401B642801D917
:1030600003208BE7C24808380068C0F340400028BE
:10307000F1D1207800F0020002285FD1BC4800683E
:1030800000F00C0058B1BA48006800F00C000828A5
:103090001CD1B748001F006800F48000B0B9B448E4
:1030A00008380068C0F3400020B1E068012801D072
:1030B000012063E7AE480838006820F0F800216975
:1030C00040EAC100AA490839086037E0E06800B367
:1030D0000120A8490860FEF7F9FD054606E0FEF765
:1030E000F5FD401B022801D9032047E7A048083816
:1030F0000068C0F340000028F1D09D4808380068FF
:1031000020F0F800216940EAC100994908390860B7
:1031100014E0002097490860FEF7D8FD054606E058
:10312000FEF7D4FD401B022801D9032026E7904872
:1031300008380068C0F340000028F1D1207800F082
:10314000080008282CD16069A8B101208A490860CC
:10315000FEF7BCFD054606E0FEF7B8FD401B022861
:1031600001D903200AE782486C300068C0F34000B0
:103170000028F1D014E000207F490860FEF7A6FD8A
:10318000054606E0FEF7A2FD401B022801D90320F8
:10319000F4E677486C300068C0F340000028F1D1B5
:1031A000207800F00400042870D1002770483830DF
:1031B000006800F0805090B900BF002000906C487B
:1031C0003830006840F0805069493831086008465E
:1031D000006800F08050009000BF00BF01276748E2
:1031E000006800F48070B0B96448006840F48070F2
:1031F00062490860FEF76AFD054606E0FEF766FDD7
:10320000401B022801D90320B8E65C48006800F49E
:1032100080700028F2D000BFA068012808D154486F
:103220006830006840F001005149683108601DE0D5
:10323000A06805280DD14E486830006840F00400B1
:103240004B49683108600846006840F0010008609A
:103250000CE047486830006820F0010044496831BC
:1032600008600846006820F00400086000BFA068FD
:10327000A8B1FEF72BFD054609E0FEF727FD401B30
:1032800041F28831884202D9032077E626E03848A7
:1032900068300068C0F340000028EED013E0FEF76D
:1032A00015FD054608E0FEF711FD401B41F288318F
:1032B000884201D9032061E62D4868300068C0F3D8
:1032C00040000028EFD1012F07D12948383000688D
:1032D00020F0805026493831086000BFA0690028DE
:1032E00045D02348006800F00C0008285DD0A06994
:1032F000022845D100201F490866FEF7E7FC054675
:1033000006E0FEF7E3FC401B022801D9032035E666
:10331000174808380068C0F340600028F1D1D4E9AC
:1033200007010843616A40EA81110122A06AC2EBE9
:10333000500041EA00412C20005D41EA00600C4948
:10334000091F086001200B490866FEF7BFFC05460F
:1033500006E0FEF7BBFC401B022801D903200DE666
:10336000034808380068C0F340600028F1D049E005
:103370000838024000004742800E4742007000407B
:10338000002021490866FEF7A1FC054606E0FEF78D
:103390009DFC401B022801D90320EFE51B48006873
:1033A000C0F340600028F2D12CE0A069012800D1D0
:1033B000E4E51648001D0668A069012820D006F43F
:1033C0008001E06981421BD106F03F01206A814201
:1033D00016D147F6C0703040616AB0EB811F0FD143
:1033E00006F440310122A06AC2EB5000B1EB004F5D
:1033F00006D106F070612C20005DB1EB006F01D0AA
:103400000120BBE50020B9E500004742003802403A
:103410007047704710B50346002200BF93F83C0088
:10342000012801D1022010BD012083F83C0000BF1B
:1034300022F0FF00CC6840EA040222F440708C685D
:1034400040EA040222F480604C6840EA040222F45C
:1034500000600C6840EA040222F480500C6940EAE3
:10346000040222F400504C6940EA040222F4804035
:10347000CC6940EA04021868426400BF002083F867
:103480003C0000BF00BFCEE730B502460B4600BF90
:1034900092F83C00012801D1022030BD012082F8C1
:1034A0003C0000BF022082F83D00106844681068AC
:1034B000816824F070041868044310684460184D53
:1034C0001068A8421BD01068B0F1804F17D0154D7E
:1034D0001068A84213D0144D1068A8420FD0134DA5
:1034E0001068A8420BD0124D1068A84207D0114DA9
:1034F0001068A84203D0104D1068A84205D121F0F1
:1035000080015868014310688160012082F83D0005
:1035100000BF002082F83C0000BF00BFBDE70000F4
:10352000000001400004004000080040000C004082
:1035300000040140004001400018004010B504465E
:103540000CB9012010BD94F83D0028B9002084F882
:103550003C00204600F026F8022084F83D00211DA2
:10356000206802F0FDFA012084F8460000BF84F8CC
:103570003E0001213F2001554020015541200155C9
:1035800000BF00BF012084F84200432001554420C1
:1035900001554520015500BF012084F83D00002061
:1035A000D0E7000038B504461949206888420FD199
:1035B00000BF002000901748006840F00100154946
:1035C00008600846006800F00100009000BF1DE0A0
:1035D00011492068884219D100BF002000900D4891
:1035E000001F006840F080000A49091F0860084673
:1035F000006800F08000009000BF00BF0022092199
:103600002C20FEF727FC2C20FEF714FC38BD000010
:103610000000014044380240001C0040014691F87F
:103620003D00012801D001207047022081F83D00B3
:103630000868C06840F001000B68D8601A4B086841
:1036400098421BD00868B0F1804F17D0174B08681C
:10365000984213D0164B086898420FD0154B086853
:1036600098420BD0144B0868984207D0134B086857
:10367000984203D0124B086898420CD108688068C1
:1036800000F00702062A0CD00868006840F001002C
:103690000B68186005E00868006840F001000B68DE
:1036A00018600020C0E70000000001400004004056
:1036B00000080040000C00400004014000400140B0
:1036C000001800402DE9F04104460D46002700BFD8
:1036D00094F83C00012802D10220BDE8F0810120CD
:1036E00084F83C0000BF022084F83D002068866812
:1036F00026F0770626F47F462068866028685028E2
:1037000033D00CDC202850D004DC00284BD010280B
:1037100051D149E0302849D040284CD139E06028C7
:103720002DD0702807D0B0F5805F03D0B0F5005FD2
:1037300041D10DE041E0D5E902136A68206802F04A
:103740000FFB2068866846F077062068866034E0C4
:10375000D5E902136A68206802F002FB20688068DD
:1037600040F480402168886027E0EA686968206842
:1037700002F0E6FB5021206802F0FDFA1DE0EA6845
:103780006968206802F0EFFB6021206802F0F3FA1C
:1037900013E0EA686968206802F0D2FB40212068E3
:1037A00002F0E9FA09E000BF00BF00BF2968206805
:1037B00002F0E1FA01E0012700BF00BF012084F818
:1037C0003D0000BF002084F83C0000BF384684E77D
:1037D0007047704710B5044620680069C0F3400088
:1037E000D8B12068C068C0F34000B0B16FF00200EB
:1037F00021680861012020772068806900F00300BB
:1038000018B12046FFF7E5FF05E0204600F004F977
:10381000204600F0F7F90020207720680069C0F307
:103820008000D8B12068C068C0F38000B0B16FF0EC
:10383000040021680861022020772068806900F474
:10384000407018B12046FFF7C4FF05E0204600F0A5
:10385000E3F8204600F0D6F90020207720680069C0
:10386000C0F3C000D8B12068C068C0F3C000B0B1D8
:103870006FF0080021680861042020772068C06983
:1038800000F0030018B12046FFF7A3FF05E0204633
:1038900000F0C2F8204600F0B5F90020207720683B
:1038A0000069C0F30010D8B12068C068C0F30010F0
:1038B000B0B16FF0100021680861082020772068FF
:1038C000C06900F4407018B12046FFF782FF05E0A0
:1038D000204600F0A1F8204600F094F9002020775F
:1038E0002068006900F0010058B12068C06800F04D
:1038F000010030B16FF0010021680861204600F03E
:103900002DFB20680069C0F3C01058B12068C06862
:10391000C0F3C01030B16FF080002168086120460C
:10392000FFF776FD20680069C0F3801058B1206869
:10393000C068C0F3801030B16FF0400021680861AA
:10394000204600F03DFB20680069C0F3401058B1EC
:103950002068C068C0F3401030B16FF020002168CB
:1039600008612046FFF755FD10BD000010B586B078
:103970000446142101A8FCF72AFF22492068884246
:103980001DD100BF002000901F48006840F00100DA
:103990001D4908600846006800F00100009000BF63
:1039A00000BF88150190022002900020039004902F
:1039B0000120059001A91548FEF780F820E0144980
:1039C000206888421CD100BF002000900E4800688B
:1039D00040F008000C4908600846006800F0080044
:1039E000009000BF00BF88140190022002900020C8
:1039F000039004900220059001A90648FEF75EF8A6
:103A000006B010BD00000140303802400000024006
:103A100000080040000C024070472DE9F0410446C8
:103A20000D461646002700BF94F83C00012802D13D
:103A30000220BDE8F081012084F83C0000BF36B1CF
:103A4000042E1BD0082E31D00C2E5ED145E0294625
:103A5000206802F099F92068806940F00800216828
:103A600088612068806920F00400216888612068EE
:103A70008069296908432168886148E029462068EF
:103A800002F0BAF92068806940F40060216888611A
:103A90002068806920F480602168886120688069DE
:103AA000296940EA01202168886130E029462068C0
:103AB00002F0E0F92068C06940F008002168C861A0
:103AC0002068C06920F004002168C8612068C069CE
:103AD000296908432168C86119E02946206802F075
:103AE00005FA2068C06940F400602168C861206858
:103AF000C06920F480602168C8612068C0692969B4
:103B000040EA01202168C86101E0012700BF00BF31
:103B100000BF002084F83C0000BF384689E710B59C
:103B200004460CB9012010BD94F83D0028B90020CE
:103B300084F83C00204600F025F8022084F83D007F
:103B4000211D206802F00CF8012084F8460000BF17
:103B500084F83E0001213F200155402001554120BD
:103B6000015500BF00BF012084F8420043200155E9
:103B7000442001554520015500BF012084F83D0037
:103B80000020D0E738B504461A49206888422FD172
:103B900000BF002000901848006840F0040016495B
:103BA00008600846006800F00400009000BF00BFF5
:103BB0001248134908608005486040211048816020
:103BC0000021C1604FF48061016189004161890079
:103BD00081610021C16101624162FDF7A3FD08B16D
:103BE000FDF7FEF800BF064961620846846300BF26
:103BF00038BD00000008004040380240106002401C
:103C0000246501207047704770B504460D4615B90C
:103C100094F83E000BE0042D02D13F20005D06E049
:103C2000082D02D14020005D01E04120005D012807
:103C300001D0012070BD1DB9022084F83E000EE0C5
:103C4000042D03D102213F20015508E0082D03D1A6
:103C500002214020015502E00221412001550122AC
:103C60002946206801F0E8FF23492068884203D0F4
:103C700022492068884201D1012000E0002028B1BB
:103C80002068406C40F40040216848641A4920686C
:103C900088421BD02068B0F1804F17D018492068A7
:103CA000884213D01749206888420FD016492068EF
:103CB00088420BD011492068884207D013492068F8
:103CC000884203D01249206888420CD1206880685D
:103CD00000F00706062E0CD02068006840F00100B6
:103CE0002168086005E02068006840F00100216854
:103CF000086000209EE70000000001400004014031
:103D00000004004000080040000C0040004001405A
:103D1000001800402DE9F04704460D4616461F46A0
:103D20004FF0000815B994F83E000BE0042D02D1C5
:103D30003F20005D06E0082D02D14020005D01E03B
:103D40004120005D022801D1BDE8F08715B994F843
:103D50003E000BE0042D02D13F20005D06E0082D5F
:103D600002D14020005D01E04120005D012817D113
:103D70000EB907B1E8E71DB9022084F83E0011E052
:103D8000042D03D102213F2001550BE0082D03D162
:103D900002214020015505E002214120015501E0AA
:103DA0000120D1E735B1042D1FD0082D38D00C2DBE
:103DB0006CD150E05F49606AC1635F49606A016429
:103DC0005E49606AC164216801F134023B463146B4
:103DD000606AFDF750FD08B10120B5E72068C068B2
:103DE00040F400702168C86053E05249A06AC16382
:103DF0005149A06A01645149A06AC164216801F176
:103E000038023B463146A06AFDF735FD08B1012076
:103E10009AE72068C06840F480602168C86038E094
:103E20004449E06AC1634449E06A01644349E06A85
:103E3000C164216801F13C023B463146E06AFDF76E
:103E40001AFD08B101207FE72068C06840F40060D7
:103E50002168C8601DE03749206BC1633649206B7B
:103E600001643649206BC164216801F140023B4680
:103E70003146206BFDF7FFFC08B1012064E72068A4
:103E8000C06840F480502168C86002E04FF001082B
:103E900000BF00BFB8F1000F4AD1012229462068B7
:103EA00001F0CAFE26492068884203D025492068CF
:103EB000884201D1012000E0002028B12068406C38
:103EC00040F40040216848641D49206888421BD0A6
:103ED0002068B0F1804F17D01B492068884213D06A
:103EE0001A49206888420FD01949206888420BD0AF
:103EF00014492068884207D016492068884203D0B8
:103F00001549206888420DD12068806800F00709B3
:103F1000B9F1060F0CD02068006840F0010021685C
:103F2000086005E02068006840F001002168086032
:103F3000404609E75B5C0008C35C0008035D0008BD
:103F4000000001400004014000040040000800405F
:103F5000000C0040004001400018004010B504462D
:103F600014492068884201D1FDF7B6FE1249206845
:103F700088421DD111488078401C1049887008463D
:103F800080783C2805D10020887008464078401C85
:103F900048700A4840783C2803D1002007494870FF
:103FA000087006480078182802D1002003490870DC
:103FB00010BD000000200040001C00400000002058
:103FC00070477047704700002DE9F84F044620689D
:103FD00005682068C668206847694FF00009CA462E
:103FE00005F00F09B9F1000F0AD105F0200038B132
:103FF00006F0200020B1204602F019F8BDE8F88F45
:10400000B9F1000F7CD007F0010018B906F49070E8
:10401000002875D005F0010030B106F4807018B1A9
:10402000206C40F00100206405F0040030B107F07E
:10403000010018B1206C40F00200206405F002007D
:1040400030B107F0010018B1206C40F0040020648A
:1040500005F0080048B106F0200010B907F0010093
:1040600018B1206C40F008002064206C002846D075
:1040700005F0200028B106F0200010B1204601F024
:10408000D6FF20684069C0F3801A206C00F0080059
:1040900010B9BAF1000F2DD0204601F082FF206840
:1040A000406900F04000402820D100BF00BF2168D7
:1040B000143151E8001F21F040002168143141E81B
:1040C0000002002AF3D100BFA06B50B17548A16B6C
:1040D0000865A06BFDF7F1F988B1A06B016D884709
:1040E0000DE02046FFF76EFF09E009E02046FFF7EC
:1040F00069FF04E02046FFF765FF002020647DE7AC
:10410000206B012876D105F01000002872D006F04F
:1041100010000028FAD000BF00200090206800683E
:10412000009020684068009000BF00BF2068406990
:1041300000F0400040285ED1A06B006840681FFA84
:1041400080F8B8F1000F54D0A08D404551DDA4F89F
:104150002E80A06BC069B0F5807F43D000BF00BF48
:1041600021680C3151E8001F21F4807021680C3166
:1041700041E80002002AF3D100BF00BF00BF216860
:10418000143151E8001F21F001002168143141E889
:104190000002002AF3D100BF00BF00BF2168143124
:1041A00051E8001F21F040002168143141E800026D
:1041B000002AF3D100BF202084F83E0000202063B5
:1041C00000BF00BF21680C3151E8001F21F0100032
:1041D00021680C3141E80002002AF3D100BFA06B36
:1041E000FDF715F9A08DE28D801A81B22046FFF708
:1041F000E8FE03E740E0A08DE18D401A1FFA80F849
:10420000E08DC0B3B8F1000F35D000BF00BF21680A
:104210000C3151E8001F21F4907021680C3141E805
:104220000002002AF3D100BF00BF00BF2168143193
:1042300051E8001F21F001002168143141E800021B
:10424000002AF3D100BF202084F83E000020206324
:1042500000BF00BF21680C3151E8001F21F01000A1
:1042600021680C3141E80002002AF3D100BF414629
:104270002046FFF7A6FEC1E605F0800030B106F04B
:10428000800018B1204602F08AF8B7E605F0400039
:1042900030B106F0400018B1204601F0B8FEADE69E
:1042A00000BFABE68F5F000810B504460CB90120D3
:1042B00010BDA06900B100E000BF94F83D0028B92E
:1042C000002084F83C00204600F028F8242084F8E0
:1042D0003D002068C06820F400502168C860204676
:1042E00001F022FF2068006920F4904021680861F5
:1042F0002068406920F02A00216848612068C06871
:1043000040F400502168C86000202064202084F818
:104310003D0084F83E000020CAE7000010B586B0DA
:104320000446142101A8FCF752FA1F49206888426C
:1043300038D100BF002000901C48006840F01000F9
:104340001A4908600846006800F01000009000BF9D
:1043500000BF00BF0020009014481438006840F0EF
:1043600001001249143908600846006800F0010095
:10437000009000BF00BF4FF4C06001900220029087
:1043800000200390032004900720059001A908480D
:10439000FDF794FB002205212520FDF75BFD25207C
:1043A000FDF748FD06B010BD001001404438024042
:1043B0000000024070B504460D46164694F83E00D3
:1043C000202816D105B10EB9012070BD00BF94F8A8
:1043D0003C00012801D10220F7E7012084F83C00CD
:1043E00000BF0020206332462946204601F0B2FF7C
:1043F000EBE70220E9E7000010B504460B4920680E
:10440000884211D101220A490A48FFF7D3FF0A481E
:104410000078012804D101220549084804F03AFD3A
:1044200001210348FCF700FC10BD00000010014012
:104430003C0000208465012038000020CCCB012006
:104440002DE9F84F04460E46174699464FF0000AEC
:1044500094F83D0020285AD106B117B90120BDE8D3
:10446000F88F00BF94F83C00012801D10220F6E744
:10447000012084F83C0000BF00202064212084F843
:104480003D00FDF723FC8246A784E784A068B0F5D1
:10449000805F04D1206910B90025B04602E035469E
:1044A0004FF0000800BF002084F83C0000BF1BE074
:1044B0005346002280212046CDF8009001F09FFF56
:1044C00008B10320CBE745B9B8F80000C0F30800F5
:1044D0002168486008F1020803E0287821684860F4
:1044E0006D1CE08C401EE084E08C0028E0D1534637
:1044F000002240212046CDF8009001F080FF08B155
:104500000320ACE7202084F83D000020A7E702202C
:10451000A5E7704700BFFEE730B50B46002100BF9E
:1045200016E00A24B4EB107F05D9302404EB107494
:1045300003F8114005E0412404EB10740A3C03F831
:104540001140000100254C00641C1D554C1CE1B2BB
:104550009142E6DB30BD000010B5144814490860F4
:10456000002048602021124881600021C160016163
:104570004161816108210162FCF72EFE08B1FCF760
:104580002FFC00200949C86009480068C06840F055
:10459000010007490968C86005480068006840F4E0
:1045A000804003490968086010BD00000000055004
:1045B000AC63012008B500BF0020009016480068D9
:1045C00040F48000144908600846006800F4800048
:1045D000009000BF00BF00BF0020009008460068A8
:1045E00040F4001008600846006800F400100090D5
:1045F00000BF00BF002205210B20FDF72BFC0B2084
:10460000FDF718FC002205213920FDF723FC392095
:10461000FDF710FC08BD00003038024010B505F071
:10462000F9FC0F4A00210F4804F0ACFD0E49086068
:104630000E4A00210E4804F0A5FD0E4908600E4AFE
:1046400000210E4804F09EFD0D4908600D4A00212E
:104650000D4804F097FD0D49086005F005FD10BDFB
:10466000B8B50008D155000828000020DCB50008C6
:10467000895500082C00002000B60008F5550008F8
:104680003000002024B60008E9550008340000205E
:1046900000B587B0142102A8FCF799F800BF0020EC
:1046A00001904448006840F0100042490860084604
:1046B000006800F01000019000BF00BF00BF0020A4
:1046C00001900846006840F08000086008460068D5
:1046D00000F08000019000BF00BF00BF00200190EB
:1046E0000846006840F0010008600846006800F0D5
:1046F0000100019000BF00BF00BF002001900846EC
:10470000006840F0020008600846006800F00200FF
:10471000019000BF00BF00BF002001900846006864
:1047200040F0080008600846006800F008000190AA
:1047300000BF00BF00BF002001900846006840F0A5
:10474000040008600846006800F00400019000BF03
:1047500000BF002242F203011748FDF7B1FA002220
:104760004FF440711548FDF7ABFA42F20300029096
:104770000120039004900320059002A90E48FDF744
:104780009DF94FF40040029000200390049002A98C
:104790000B48FDF793F94FF440700290012003900D
:1047A00000200490059002A90448FDF787F907B09E
:1047B00000BD000030380240000C024000040240FE
:1047C0000000024010B50A480A49086042F2CF00D2
:1047D000486000210748816042F20F71C1600021EA
:1047E00001618161FEF7AAFE08B1FCF7F9FA10BD7C
:1047F000001C0040DC64012000B595B00020119041
:104800001290139014900F9010901C2108A8FBF7A1
:10481000DEFF20216846FBF7DAFF2B482B490860B2
:1048200040F28F6048600021284881606321C160A8
:1048300000210161416180218161FEF77FFE08B1A5
:10484000FCF7CEFA4FF48050119011A91F48FEF7E3
:1048500039FF08B1FCF7C4FA1C48FFF760F908B14A
:10486000FCF7BEFA00200F9010900FA91748FEF732
:104870000BFE08B1FCF7B4FA602008900020099004
:104880000A900B900C900D900E90002208A90F48F2
:10489000FFF7C3F808B1FCF7A3FA002000900190DD
:1048A0000290039004904FF4005005900020079070
:1048B00069460648FEF7AEFD08B1FCF791FA0348D9
:1048C000FFF754F815B000BD000001404C64012012
:1048D00000B589B00020079008901C216846FBF7BE
:1048E00076FF1748174908600020486000211548E6
:1048F00081606821C160002101618161FFF70FF9CA
:1049000008B1FCF76DFA00200790089007A90D4840
:10491000FEF7BAFD08B1FCF763FA602000900020B2
:10492000019002900490002269460648FFF775F84E
:1049300008B1FCF755FA0348FFF718F809B000BDB5
:10494000000800409464012010B50B480B49086032
:104950004FF4E1304860002108488160C160016186
:104960000C21416100218161C161FFF79DFC08B10B
:10497000FCF736FA10BD00000010014084650120EC
:1049800010B501220D490E4802F0FCFB08B1FCF7FE
:1049900027FA0C490A4802F02FFF08B1FCF720FA69
:1049A0000949074801F0FCFF08B1FCF719FA04486F
:1049B00003F024F808B1FCF713FA10BD4000002002
:1049C00010660120C40000209000002000BFFEE718
:1049D00000BFFEE710B50248FDF76CFC10BD0000FB
:1049E000EC7A012010B586B0012202215948FDF76A
:1049F00067F96420FCF788FF002202215548FDF783
:104A00005FF96420FCF780FF002201215148FDF787
:104A100057F96420FCF778FF012211464D48FDF755
:104A20004FF96420FCF770FF0121FF2000F01CFD0E
:104A30008021122000F018FD1C2000F099FB46494F
:104A40000880084600884FF6FF7101EA00204249BD
:104A500008801D2000F08CFB3F49098808433E492F
:104A600008800A2000F084FB3C4908800846008842
:104A70004FF6FF7101EA0020384908800B2000F052
:104A800077FB364909880843344908803248008852
:104A900047F6A271884235D03048008842F2426120
:104AA00088422FD02EA101A8FBF7EAFC00BF01A885
:104AB000FBF7CDFD84B2214601A8FCF7B5F800282C
:104AC000F5D1142101A8FBF782FE2448038822486F
:104AD000028828A101A8FBF7D3FC00BF01A8FBF7BF
:104AE000B6FD84B2214601A8FCF79EF80028F5D156
:104AF000142101A8FBF76BFE4FF47A70FCF704FF5A
:104B000006B010BD20A101A8FBF7BAFC142101A832
:104B1000FBF75DFE002400BF09E01F4A02EB4402E0
:104B200051781D4A12F8140000F09EFC641CB12C50
:104B3000F3D300F09DF800F031F84FF416714FF404
:104B4000487000F051F84FF47A70FCF7DDFE00BFBA
:104B5000D6E70000000C0240CA010020CC01002072
:104B600043616D657261206973204572726F7221B5
:104B70000D0A00004D4944203D2025582C48494449
:104B8000203D20255800000043616D657261206959
:104B900073204F4B210D0A00CCB7000810B500243C
:104BA00000BF0AE00E4A02EB440251780C4A12F8A8
:104BB000140000F059FC601C84B2082CF2D30024CD
:104BC0000AE0084A02EB44025178064A12F814003F
:104BD00000F04AFC601C84B2072CF2D310BD000028
:104BE00064B9000874B900082DE9F04104460D4687
:104BF000E11704EB91718910A4EB810111B101203F
:104C0000BDE8F081E91705EB91718910A5EB8101F1
:104C100009B10220F4E72046E11704EB9171C1F3DA
:104C20008F072846E91705EB9171C1F38F06002124
:104C3000FF2000F019FC0421E02000F015FCF9B27F
:104C40005A2000F011FCF1B25B2000F00DFCC7F31C
:104C50000128042000EAA61040EA080841465C202A
:104C600000F002FC0021E02000F0FEFB0020C7E77E
:104C700010B500240EE0094A02EB44025178074ABD
:104C800012F8140000F0F0FB0A2C02D20520FCF709
:104C90003BFE641CB22CEED310BD000068B60008C9
:104CA0002DE9F04704460D4626683746D6F8408081
:104CB00007F5306000EB4510D0F8089010488045AB
:104CC0000BD909F40040B0F5004F06D14FF4004174
:104CD00007F5306000EB451081602046FDF79FFF2F
:104CE0000748804508D92069012805D104F2C4424B
:104CF0000121206803F018FC0020BDE8F0870000C7
:104D00000A30544F2DE9F04705460C46D5F800907F
:104D10004E46D9F840A006F5306000EB4410D0F8BC
:104D200008802869012855D108F0080008280FD10B
:104D3000434882450BD908F40040B0F5004F7BD1C1
:104D40004FF4004106F5306000EB4410816073E0E1
:104D500008F02000202806D1202106F5306000EB65
:104D60004410816068E008F02800002864D13448CD
:104D700082450CD908F40040B0F5004F07D14FF43C
:104D8000004106F5306000EB4410816054E004EB14
:104D9000C40105F51F7000EB810706F5306000EBDC
:104DA0004410F9690069C0F31200081A386264B946
:104DB000B86930B905F2C4420121286803F0B4FB98
:104DC00003E0396A386908443861E1B22846FDF7E2
:104DD000D7F831E01B4882451BD108F40040B0F5FC
:104DE000004F07D14FF4004106F5306000EB44104E
:104DF000816021E008F02000202805D1202106F55F
:104E0000306000EB44108160E1B22846FDF7B8F84D
:104E100012E06CB904EBC40105F51F7000EB8100D2
:104E2000806928B905F2C4420021286803F07CFBA0
:104E3000E1B22846FDF7A4F80020BDE8F0870000A5
:104E40000A30544F0A31544F2DE9F84F07460E46A9
:104E5000D7F80090C84606EBC60107F13C0000EB0E
:104E60008104A169206A884202D90120BDE8F88F37
:104E7000216AA069451AE068A84200D2E568E81CEA
:104E80004FEA900A17E0216AA069451AE068A84233
:104E900000D2E568E81C4FEA900A387CABB2F2B267
:104EA00000904846216903F0D1FF20692844206121
:104EB000206A2844206208F5106000EB46108069E3
:104EC00080B2504506D3A169206A884202D2A06907
:104ED0000028D8D1216AA06988420ED806F00F01B7
:104EE000012000FA01FB40F6340050F8080020EAE7
:104EF0000B0040F6340141F808000020B6E700003E
:104F000038B5054600240CE0E0B209490A88ADF83E
:104F1000002089788DF80210009900F017F8601CC5
:104F200084B2AC42F0DB00F091F800F003F838BD39
:104F300097B9000810B53023024A00210248FEF755
:104F4000E9FE10BD0CCB01209464012013B502468C
:104F5000012A00DD1CBD002013E09DF80510C0F102
:104F600007040123A340194009B13A2100E01921A7
:104F700002EB42031D4C04EB431343F82010411C89
:104F8000C8B20828E9DB082013E09DF80410C0F13E
:104F90000F040123A340194009B13A2100E019216F
:104FA00002EB4203114C04EB431343F82010411C65
:104FB000C8B21028E9DB102013E09DF80610C0F1FC
:104FC00017040123A340194009B13A2100E0192137
:104FD00002EB4203054C04EB431343F82010411C41
:104FE000C8B21828E9DB00BFB4E700000CCB0120F1
:104FF000F0B504460F461546A088A84201DBA088FC
:1050000008B90020F0BD002604E0B919204600F0E0
:1050100005F8761CAE42F8DB0120F3E702469088E3
:1050200008B9002070471388901DC05C0870138871
:10503000581CC31700EB93539B12A0EB83231380E0
:105040009088401E90800120ECE70000002005E0E1
:105050000022044941F82020411CC8B21828F7DB7F
:10506000704700006CCB012010B50120FCF74CFC10
:10507000012211021C48FCF723FE012251021A48AA
:10508000FCF71EFE78201949086000BF1748016828
:105090000068401E154A10600029F7D100224FF425
:1050A00000711148FCF70CFE78201049086000BF21
:1050B0000E4801680068401E0C4A10600029F7D1B4
:1050C00000224FF480710848FCF7FAFD7820074968
:1050D000086000BF054801680068401E034A106070
:1050E0000029F7D110BD000000040240C4010020D7
:1050F00070B5002400F08AF808252EE078201A49BF
:10510000086000BF184801680068401E164A106019
:105110000029F7D1012251021448FCF7D1FD6006A5
:10512000040E4FF480711148FCF7C2FD08B1601CF9
:10513000C4B278200C49086000BF0B4801680068C1
:10514000401E094A10600029F7D100224FF4007177
:105150000648FCF7B5FD681EC5B2002DCEDC00F098
:105160007DF8204670BD0000C4010020000402400C
:1051700070B50446002500F097F8602000F002F9B1
:1051800078202149086000BF1F4801680068401E60
:105190001D4A10600029F7D1204600F0F3F878206E
:1051A0001949086000BF184801680068401E164A87
:1051B00010600029F7D100F0ABF8782012490860A0
:1051C00000BF114801680068401E0F4A10600029A6
:1051D000F7D100F069F8612000F0D4F878200A498E
:1051E000086000BF084801680068401E064A106059
:1051F0000029F7D1FFF77CFF0546FFF735FF00F0E8
:1052000087F8284670BD0000C401002000B587B0B3
:10521000142102A8FBF7DBFA00BF002001900D4823
:10522000006840F002000B4908600846006800F082
:105230000200019000BF00BF88150290002003907B
:10524000012004900220059002A90348FCF736FCD7
:1052500007B000BD303802400004024000B587B0FE
:10526000142102A8FBF7B3FA00BF002001900C48FC
:10527000006840F002000A4908600846006800F033
:105280000200019000BF00BF88150290012003902A
:105290000220059002A90348FCF710FC07B000BDEE
:1052A000303802400004024010B5012211021648B5
:1052B000FCF706FD012251021348FCF701FD78209E
:1052C0001249086000BF114801680068401E0F4A7B
:1052D00010600029F7D100224FF480710A48FCF7D2
:1052E000EFFC78200949086000BF084801680068A1
:1052F000401E064A10600029F7D100224FF40071C9
:105300000148FCF7DDFC10BD00040240C401002090
:1053100010B500224FF480711848FCF7D1FC7820BA
:105320001749086000BF164801680068401E144A0B
:1053300010600029F7D1012251021048FCF7C0FC8F
:1053400078200F49086000BF0D4801680068401EC2
:105350000B4A10600029F7D1012211020748FCF71F
:10536000AFFC78200649086000BF05480168006866
:10537000401E034A10600029F7D110BD000402400E
:10538000C401002070B50446002635E004F080001A
:1053900028B1012211023248FCF792FC05E00022FC
:1053A0004FF480712E48FCF78BFC6006040E7820C9
:1053B0002C49086000BF2B4801680068401E294A3C
:1053C00010600029F7D1012251022548FCF778FC32
:1053D00078202449086000BF224801680068401E08
:1053E000204A10600029F7D100224FF400711C48B8
:1053F000FCF766FC701CC6B2082EC7DBFFF706FF81
:1054000078201849086000BF164801680068401EEF
:10541000144A10600029F7D1012251021048FCF70C
:105420004FFC78200F49086000BF0E4801680068F3
:10543000401E0C4A10600029F7D14FF480710848D3
:10544000FCF736FC08B1012500E0002500224FF4EE
:1054500000710348FCF734FCFFF700FF284670BDDD
:1054600000040240C401002070B505460C46002629
:10547000FFF71AFF6020FFF785FF00B101267820B3
:105480001249086000BF114801680068401E0F4AB9
:1054900010600029F7D12846FFF774FF00B10126FC
:1054A00078200A49086000BF084801680068401E6B
:1054B000064A10600029F7D12046FFF763FF00B1CC
:1054C0000126FFF725FF304670BD0000C401002013
:1054D00001461C48814201D2002070471A4881428F
:1054E00001D20120F9E71948814201D20220F4E7F4
:1054F0001748814201D20320EFE71648814201D2CA
:105500000420EAE71448814201D20520E5E7134868
:10551000814201D20620E0E71148814201D20720F2
:10552000DBE71048814201D20820D6E70E488142CD
:1055300001D20920D1E70D48814201D20A20CCE7EF
:105540000B20CAE7004000080080000800C00008E7
:10555000000001080000020800000408000006081E
:105560000000080800000A0800000C0800000E08EF
:1055700001460868704730B501460A461378521C48
:10558000147843EA042030BD08B505F081FD009091
:105590004FF4D47209490A48FBF7BDF800BF094827
:1055A00004F0F0FF08480078012802D1074804F011
:1055B00013FC0A21684604F081FEF0E700000608AB
:1055C000D0010020D2CF012038000020CCCB012018
:1055D000FFF7D6F900BF01200249087003F07CFDF7
:1055E000F9E700002400002000BF012003F074FD53
:1055F000FBE700009AB00024631E0422FAA1FC48D5
:10560000FEF71EFF4FF4FA6003F066FD631E0422EE
:10561000F5A1F748FEF714FF4FF4FA6003F05CFDC4
:10562000631E0422F0A1F248FEF70AFF4FF4FA606D
:1056300003F052FDEF48FBF70AF885B2631E2A46D5
:10564000EC49EB48FEF7FCFE4FF47A7003F044FDA2
:10565000E948FAF7FCFF85B2631E2A46E649E448AA
:10566000FEF7EEFE4FF47A7003F036FDE348FAF7EA
:10567000EEFF85B2631E2A46E049DD48FEF7E0FEF4
:105680004FF47A7003F028FDDD48FAF7E0FF85B2A9
:10569000631E2A46DA49D648FEF7D2FE4FF47A70E6
:1056A00003F01AFDD748FAF7D2FF85B2631E2A46E7
:1056B000D449CF48FEF7C4FE4FF47A7003F00CFDD6
:1056C000D148FAF7C4FF85B2631E2A46CE49C848BE
:1056D000FEF7B6FE4FF47A7003F0FEFCCB48FAF703
:1056E000B6FF85B2631E2A46C849C148FEF7A8FE28
:1056F0004FF47A7003F0F0FCC548FAF7A8FF85B2C2
:10570000631E2A46C249BA48FEF79AFE4FF47A70E1
:1057100003F0E2FC3221BF48FBF737F8BE4800F146
:105720005802BEA1C36EBB48FAF7AAFEB948FAF701
:105730008EFF85B2631E2A46B649AD48FEF780FE4D
:1057400041F2883003F0C8FC0120BB490870642195
:1057500001A8FBF73CF801248DF80440200A8DF8DD
:105760000500200C8DF80600200E8DF8070008209B
:105770008DF80800A31E052201A99D48FEF760FED2
:10578000642101A8FBF723F8A3482030FAF75FFF54
:10579000441CE0B28DF80400200A8DF80500200CAE
:1057A0008DF80600200E8DF8070009208DF80800FE
:1057B00099482030FAF74BFF05462A469649203192
:1057C0000DF10900FAF762FF93482030FAF73FFF26
:1057D000401D85B24FF0FF332A4601A98448FEF7E9
:1057E0002FFE00BF642101A8FAF7F1FF01248DF814
:1057F0000440200A8DF80500200C8DF80600200ECC
:105800008DF8070000208DF80800431E052201A92D
:105810007748FEF715FE8948007801287ED17E483A
:10582000D0F8A0018649096848637B48D0F8A401F4
:1058300000EB800047000BE002208249087000BFA7
:10584000804800780128FBD1642004F009FD7F1E08
:10585000002FF1D17B48007801285CD17A4D0026D9
:1058600001E06D1C761C2878FF2804D06878D828C1
:1058700001D0642EF5DB642101A8FAF7A8FF734874
:105880000068012101EB8000841BE0B28DF8040068
:10589000200A8DF80500200C8DF80600200E8DF8EA
:1058A000070001208DF80800831E052201A9504839
:1058B000FEF7C6FD65480088C6EB800082B24FF057
:1058C000FF3329464A48FEF7BBFD4FF4B0415E481E
:1058D000FAF77DFF642101A8FAF779FF01248DF81A
:1058E0000440200A8DF80500200C8DF80600200EDB
:1058F0008DF807000B208DF80800A31E052201A9D2
:105900003B48FEF79DFD00204D4909684863022091
:105910004C49087000BF0020484900E001E00870D1
:1059200000BF4FF400414A48FCF7C2F968B9494842
:10593000007850B90120414908704649087000229A
:1059400041034548FCF7BCF90DE04FF400414048E5
:10595000FCF7AEF9012806D13E480078012802D1B3
:1059600000203C4908703D480078012827D1C10338
:105970003748FCF79DF9012821D10122410336481F
:10598000FCF79EF9642101A8FAF721FF01248DF8A4
:105990000440200A8DF80500200C8DF80600200E2A
:1059A0008DF8070019208DF80800A31E052201A913
:1059B0000F48FEF745FD0020284908700EE02748F3
:1059C000007801280AD1C1032148FCF771F928B9F0
:1059D00001201A4908700020204908704FF47A709D
:1059E00003F07AFBFEE6000041540D0A00000000BF
:1059F0008465012054B500085FB500086BB5000848
:105A000079B5000888B5000892B500089DB5000872
:105A1000A8B5000878630120D001002041542B4331
:105A2000495053544152543D22544350222C257323
:105A30002C25640D0A0000003800002039000020E9
:105A40004C64012009000020780300200C00002095
:105A5000000002403B000020000C02403A00002001
:105A600010B54FF0E020006905F002FB012801D0DD
:105A700004F04CFF10BD000000B593B0302107A822
:105A8000FAF7A5FE142102A8FAF7A1FE00BF002034
:105A900001902448006840F0805022490860084680
:105AA000006800F08050019000BF00BF00BF0020E0
:105AB00001901D48006840F480401B49086008467A
:105AC000006800F48040019000BF00BF01200790F3
:105AD0000004089002200D9041050E9106210F91BF
