:020000040800F2
:10000000C87D00205904000881930008818E0008F3
:100010007D930008650D000829E600080000000037
:10002000000000000000000000000000990300082C
:10003000A515000800000000F5030008A9A50008A8
:1000400073040008730400087304000873040008B4
:1000500073040008730400087304000873040008A4
:100060007304000873040008730400083D0F0008BF
:100070007304000873040008730400087304000884
:100080007304000873040008730400087304000874
:100090007304000873040008730400087304000864
:1000A0007304000873040008730400087304000854
:1000B0007304000873040008730400087304000844
:1000C0007304000873040008730400087304000834
:1000D0007304000859BD0008730400087304000885
:1000E0007304000873040008000000007304000893
:1000F0007304000873040008730400087304000804
:1001000073040008730400087304000873040008F3
:1001100073040008730400087304000873040008E3
:1001200073040008730400087304000873040008D3
:1001300073040008730400087304000873040008C3
:1001400000000000000000000000000000000000AF
:1001500073040008730400087304000873040008A3
:100160007304000873040008730400087304000893
:1001700073040008859300082D0F0008000000009C
:100180007304000873040008730400087304000873
:100190007304000873040008730400087304000863
:1001A0007304000873040008730400087304000853
:1001B0007304000873040008730400087304000843
:1001C0007304000873040008730400087304000833
:1001D0007304000873040008730400087304000823
:1001E0007304000873040008730400087304000813
:1001F0007304000873040008730400087304000803
:1002000073040008730400087304000873040008F2
:100210007304000873040008FDA7000873040008B5
:100220007304000873040008730400080000000051
:100230007304000873040008000000007304000841
:1002400073040008730400087304000873040008B2
:1002500073040008730400087304000873040008A2
:100260007304000873040008730400087304000892
:100270007304000873040008730400080000000001
:1002800073040008730400087304000800000000F1
:10029000000000007304000800F002F800F06DF8A0
:1002A0000AA090E8000C82448344AAF10107DA45D1
:1002B00001D100F062F8AFF2090EBAE80F0013F0B6
:1002C000010F18BFFB1A43F001031847741F010008
:1002D000941F01000A444FF0000C10F8013B13F08A
:1002E000070408BF10F8014B1D1108BF10F8015B8F
:1002F000641E05D010F8016B641E01F8016BF9D182
:1003000013F0080F1EBF10F8014BAD1C0C1B09D1D8
:100310006D1E58BF01F801CBFAD505E014F8016B4A
:1003200001F8016B6D1EF9D59142D6D370470000DC
:100330000023002400250026103A28BF78C1FBD8EE
:10034000520728BF30C148BF0B607047642900F0D6
:100350008781732900F02784002070471FB511F0B2
:100360003BFD00F0DDFC04000020002111F01EFD2B
:10037000401C60601FBD10B510BD00F0ACFC114604
:10038000FFF7ECFF0EF0ACFF00F0DCFC03B4FFF76E
:10039000F2FF03BC00F0E0FC2C4B19680868B0E8E1
:1003A000F04F80F30988BFF36F8F4FF0000080F3A8
:1003B000118870470000000008480068006880F35A
:1003C00008884FF0000080F3148862B661B6BFF36E
:1003D0004F8FBFF36F8F00DF00BF00BF08ED00E05D
:1003E000DFF80C00016841F470010160704700BF44
:1003F00088ED00E0EFF30980BFF36F8F134B1A68AD
:100400001EF0100F08BF20ED108A20E9F04F106099
:1004100009B44FF0500080F31188BFF34F8FBFF342
:100420006F8F10F06DFC4FF0000080F3118809BC55
:1004300019680868B0E8F04F1EF0100F08BFB0EC64
:10044000108A80F30988BFF36F8F7047A0010020E6
:10045000EFF30580704700000948804709480047CE
:10046000FEE7FEE7FEE7FEE7FEE7FEE7FEE7FEE764
:10047000FEE7FEE704480549054A064B70470000C1
:1004800001A7000899020008C8770020C87D002055
:10049000C8790020C879002010B504460021112039
:1004A000ABBE002C00D0206010BD53EA020C00F05F
:1004B00069802DE9F04B4FF00006002B1FBFB3FA07
:1004C00083F503FA05F424FA05F65E4012BF1643DD
:1004D000B2FA82F502FA05F4C5F120051EBF22FA30
:1004E00005FC44EA0C04203556EA044C4FEA144457
:1004F00018BF641C4FF000084FF00009904271EBE8
:10050000030C39D3002919BFB1FA81F701FA07F6B4
:10051000B0FA80F700FA07F6C7F120071EBF20FAED
:1005200007FC46EA0C062037B6FBF4FCA7EB0507F0
:10053000103F07F01F0BCBF120060CFA0BFB2CFA37
:1005400006F644BFB3460026202FA4BF5E464FF0F8
:10055000000B5BEA060C08BF4FF0010B19EB0B090F
:10056000ABFB027C48EB0608C01B06FB02CC0BFB76
:1005700003CC71EB0C01C1E70B46024641464846ED
:10058000BDE8F08B13B54FF000004FF00001AFF362
:100590000080BDE81C4070470FB41CB5074B06AA8D
:1005A0007B4469460090059800F0D3FA0020694624
:1005B00000F0E2FA1CBC5DF814FB0000D505000059
:1005C00070B5044685690068C10601D5302600E093
:1005D0002026C00707D070BDD4E9012130469047DE
:1005E000206A401C20626D1EF6D570BD70B50446B1
:1005F00085690078C00707D170BDD4E901212020AA
:100600009047206A401C20626D1EF6D570BD70B503
:100610000C460546012A05D02878800600D5EA69EF
:10062000002302E0012305E05B1C934202D2E05C60
:100630000028F9D1A869E618C01AA861286A1844E8
:1006400028622846FFF7BCFF04E0D5E9012114F831
:10065000010B9047B442F8D32846FFF7C7FF70BD9F
:100660002DE9F0410646002410687529314616A58B
:1006700010D0AFF30080002802DA404213A507E053
:1006800031688A0701D512A502E0490704D511A5F2
:10069000012401E0AFF3008000210A2206F12407C3
:1006A00009E0B0FBF2FCB0FBF2F302FB1C003030BF
:1006B00078541846491C0028F3D123462A46304670
:1006C000BDE8F04100F0E6B9000000002D00000098
:1006D0002B000000200000002DE9F05F8946044651
:1006E0004FF0000ADFF824B1FB44C0F820A02046F8
:1006F000E168884700287DD0252806D0D4E901216B
:100700009047206A401C2062F1E700255F462046A2
:10071000E16888472028064607DB312E05D2B81944
:1007200010F8200C08B10543F1E7A80701D525F022
:100730000405C4F81CA00027C4F818A02A2E09D06C
:1007400030460DF0C0FF38B304EB8708303EC8F8E0
:10075000186019E059F8041B204604EB87029161E8
:10076000E1688847012F064618D1E069002820DAA1
:1007700025F020051DE0D8F8180000EB800006EBFE
:1007800040003038C8F818002046E168884706461F
:100790000DF099FF0028EED1012F0AD02E2E08D19E
:1007A0002046E16888477F1C0646022F45F0200559
:1007B000C4DBA069002803DA404245F00105A061CE
:1007C000E80701D025F01005A6B1A6F141001928CF
:1007D00002D8203645F400654A4631462046256059
:1007E0004D46FFF7B3FD60B1012807D0ED1D25F0A0
:1007F000070000E007E000F1080978E705F10409C7
:1008000075E730467AE7206ABDE8F09F061B0100D5
:1008100070B5064600F03AF90468054630460A22EB
:10082000002100F0C4F92C6070BD30B505460B46C0
:100830002A4613F8014B12F8010B08B1A042F8D078
:100840001CB1002802D06D1CF1E7284630BD10B560
:10085000431C02E010F8011B71B18107FAD14FF07F
:10086000013202C88C1A8C4314EAC211F9D0C01AA2
:100870000A0603D0C01E10BDC01A10BD0A0401D064
:10088000801E10BD0902FCD0401E10BD032A40F29C
:10089000308010F0030C00F0158011F8013BBCF122
:1008A000020F624498BF11F801CB00F8013B38BF3A
:1008B00011F8013BA2F1040298BF00F801CB38BF48
:1008C00000F8013B11F0030300F02580083AC0F066
:1008D000088051F8043B083A51F804CBA0E808100E
:1008E000F5E7121D5CBF51F8043B40F8043BAFF341
:1008F0000080D20724BF11F8013B11F801CB48BF9B
:1009000011F8012B24BF00F8013B00F801CB48BFD0
:1009100000F8012B704710B5203AC0F00B80B1E809
:100920001850203AA0E81850B1E81850A0E8185024
:10093000BFF4F5AF5FEA027C24BFB1E81850A0E82D
:10094000185044BF18C918C0BDE810405FEA827C47
:1009500024BF51F8043B40F8043B08BF7047D2075E
:1009600028BF31F8023B48BF11F8012B28BF20F8FF
:10097000023B48BF00F8012B704702F0FF0343EA37
:10098000032242EA024200F002B84FF000020429BA
:10099000C0F0128010F0030C00F01B80CCF1040CAE
:1009A000BCF1020F18BF00F8012BA8BF20F8022BE2
:1009B000A1EB0C0100F00DB85FEAC17C24BF00F888
:1009C000012B00F8012B48BF00F8012B70474FF0B6
:1009D000000200B5134694469646203922BFA0E88F
:1009E0000C50A0E80C50B1F12001BFF4F7AF09079B
:1009F00028BFA0E80C5048BF0CC05DF804EB89008C
:100A000028BF40F8042B08BF704748BF20F8022BCE
:100A100011F0804F18BF00F8012B70474FF0013CD8
:100A200050F8042B51F8043B9A4215D1A2EB0C0369
:100A3000934313EACC130BD150F8042B51F8043B29
:100A40009A4209D1A2EB0C03934313EACC13E7D0EB
:100A50004FF00000704700BFD01A01BAB1FA81F11F
:100A600001F0180122FA01F0CB40C1F12001DBB204
:100A7000C0B2C01A2CFA01F3D11A914311EAC31182
:100A8000E6D170477047704770477047004870471D
:100A9000687700202DE9F0470D46994692460446B6
:100AA00000F124080168880604D5E06921F01001EE
:100AB000216000E00120A84201DD471B00E0002783
:100AC000A1697A1902EB0900081AA0612078C00612
:100AD00002D42046FFF774FD002608E0D4E9012186
:100AE0001AF806009047206A401C761C20624E458A
:100AF000F4DB2078C0060AD52046FFF761FD06E04A
:100B0000D4E9012130209047206A401C2062381E21
:100B1000A7F10107F4DC07E0D4E9012118F805008A
:100B20009047206A401C2062281EA5F10105F3DCD5
:100B30002046FFF75BFD2078000602D50220BDE8C5
:100B4000F0870120FBE7000001694A1C0261087878
:100B5000704700B58FB0CDE90131002105910549FD
:100B60007944CDE9031011466846FFF7B5FD0FB093
:100B700000BD0000E5FFFFFF0A6802F8010B0A60F4
:100B8000704710B5436913B1AFF3008001E0FFF780
:100B90003EFD012010BD127800F124010A700022F0
:100BA0004A700122EDE711684FF0FF32E9E72DE9C5
:100BB000F04791460F4680460446002614F8015B34
:100BC0002DB100F031F80068405DC007F6D12B2D43
:100BD00002D02D2D18D0641E4A463946204600F01A
:100BE0002BF827B13968A14201D1C7F800804FF036
:100BF000020471050BD54042002803DDFFF746FFD4
:100C00000460A007BDE8F08746F48066E4E70028AA
:100C1000F8DAFFF73BFF04606FF00040F2E70000F6
:100C2000004870476877002010B500F079F8001D83
:100C300010BD00BF791101002DE9F05F8246154615
:100C40008B4600270AF10104B9460078302801D00C
:100C50009DB113E014F8010B0127782803D0582820
:100C600001D045B10AE00DB1102D07D1002714F8CD
:100C7000010B102502E0082500E00A250026B046F9
:100C80000EE005FB080005FB06F101271FFA80F8BE
:100C900001EB1046B6F5803F00D3B94614F8010BBE
:100CA000294600F041F80028EBDABBF1000F05D02F
:100CB0000FB1641E00E05446CBF80040B9F1000FBC
:100CC00006D0FFF7E3FE02210160C81EBDE8F09FD9
:100CD00048EA0640FAE77546FFF7A2FFAE46050070
:100CE0006946534620F00700854618B020B5FFF747
:100CF000C1FBBDE820404FF000064FF000074FF069
:100D000000084FF0000B21F00701AC46ACE8C00929
:100D1000ACE8C009ACE8C009ACE8C0098D46704732
:100D200000487047887700203A2800D2303820F0F9
:100D30002002412A01D3A2F13700884201D34FF0AB
:100D4000FF30704710B50446AFF300802046BDE881
:100D50001040FFF71BBB000001491820ABBEFEE7A7
:100D60002600020000BFFEE70346042B15D007DC77
:100D70007BB1012B0ED0022B0DD0032B12D10BE037
:100D8000202B0BD0212B0AD0222B09D0232B09D1C9
:100D900007E008E007E006E005E004E003E002E029
:100DA00001E000E000BF00BF002070470020704756
:100DB00010B50022044905480BF071FA04490348B4
:100DC0000BF05EFA002010BD5013002074060020C6
:100DD000500B002070B504460D46214606480BF026
:100DE0004FFA05480BF018FA288882B221460348CA
:100DF0000DF01CFC002070BD740600206273002002
:100E000010B503460C460021084610BD2DE9F041FF
:100E100004460D4600260A48D0F8BC72D7F81402E2
:100E200010B10120BDE8F0812A46214604480BF0AC
:100E300036FA03480BF0E6FA06463046F2E70000C1
:100E40007406002070B50546AC6BA06C406D02289E
:100E500006D0012084F83500E06C40F04000E064EA
:100E6000204600F0DCFD70BD70B50646B46BA06B8B
:100E700068B3A06C0068006800F40025A06B00F067
:100E8000010078B975B1A06C0068C568E26B0823F1
:100E900003FB02510022A06C01F02CF8A06B401E55
:100EA000A0632FE0A06C0068006800F4002048BB3D
:100EB000A06C00680569E26B082303FB0251012264
:100EC000A06C01F017F8A06B401EA0631AE0A06CA4
:100ED0000068006800F4002020B1D4E9110109681D
:100EE000C8600FE0A06C0068006800F4002048B9FA
:100EF000656CE06B042101FB0050A16C096808617E
:100F0000206CA063A06B216C88420ED12068C06861
:100F100040F001002168C8602068006800F002000D
:100F2000022802D1012084F8350070BD10B50248B6
:100F300000F078FD10BD00003004002010B502481C
:100F400001F01AFF10BD0000800400200146374A5E
:100F50000868904249D0354A18320868904244D017
:100F6000324A3032086890423FD0304A48320868EE
:100F700090423AD02D4A60320868904235D02B4AD0
:100F800078320868904230D0284A903208689042FF
:100F90002BD0264AA8320868904226D0244A0868F6
:100FA000904222D0224A1832086890421DD0204A2E
:100FB00030320868904218D01D4A48320868904282
:100FC00013D01B4A6032086890420ED0184A78321B
:100FD0000868904209D0164A90320868904204D0BE
:100FE000134AA8320868904201D1012000E0002095
:100FF000B0B10A78103A1823B2FBF3F000F0070200
:101000000C4B9A5CCA65032805D90A686FF309027C
:10101000121D8A6503E00A686FF309028A6503E01E
:10102000086820F0FF008865886D70471000024056
:1010300010040240981E010810B502682B4C03688A
:10104000A34222D0294C14340368A3421DD0274C5C
:1010500028340368A34218D0244C3C340368A342CC
:1010600013D0224C50340368A3420ED01F4C64347A
:101070000368A34209D01D4C78340368A34204D00E
:101080001A4C8C340368A34201D1012300E00023F1
:101090008BB10378083B1424B3FBF4F1144B03EB3E
:1010A00081030366124B8033436601F01F04012362
:1010B000A340836618E00378103B1824B3FBF4F1D7
:1010C0000C4B9A4204D80B4BA83B9A4200D30831F0
:1010D000094B03EB81030366074B8033436601F042
:1010E0001F040123A340836610BD0000085402586A
:1010F00000580258B8040240000802400179A9B320
:10110000082940D8204B02689A4222D01E4B143343
:1011100002689A421DD01C4B283302689A4218D0AC
:10112000194B3C3302689A4213D0174B5033026874
:101130009A420ED0144B643302689A4209D0124B83
:10114000783302689A4204D00F4B8C3302689A427B
:1011500001D1012200E000224AB14A1E0B4B03EBF1
:101160008202C266094A4032026708E00BE04A1E6A
:10117000074B03EB8202C266054A403202674A1EF1
:10118000012393404367704708540258005902589E
:1011900000090240014600208A69D2B98A6A32B148
:1011A000012A0DD0022A03D0032A10D10EE000BF7D
:1011B000CA6A02F08072B2F1807F00D1012007E09C
:1011C000CA6AB2F1C07F00D1012001E000E000BF97
:1011D00036E08A69B2F5005F1BD18A6A32B1012A12
:1011E00007D0022A03D0032A11D10AE000BF012050
:1011F0000EE0CA6A02F08072B2F1807F00D1012055
:1012000006E0CA6AB2F1C07F00D1012000E000BF51
:1012100016E08A6A32B1012A05D0022A04D0032AD4
:101220000CD103E000BF00BF012008E0CA6A02F051
:101230008072B2F1807F00D1012000E000BF00BFCA
:101240007047000030B5384D0468AC4249D0364D87
:1012500018350468AC4244D0334D30350468AC4294
:101260003FD0314D48350468AC423AD02E4D603500
:101270000468AC4235D02C4D78350468AC4230D08F
:10128000294D90350468AC422BD0274DA835046811
:10129000AC4226D0254D0468AC4222D0234D1835EF
:1012A0000468AC421DD0214D30350468AC4218D0E2
:1012B0001E4D48350468AC4213D01C4D603504689F
:1012C000AC420ED0194D78350468AC4209D0174DA8
:1012D00090350468AC4204D0144DA8350468AC4283
:1012E00001D1012400E0002474B1046863608468C3
:1012F000402C04D10468A2600468E16012E0046834
:10130000A1600468E2600DE0046863608468402CBA
:1013100004D10468A2600468E16003E00468A1608D
:101320000468E26030BD000010000240100402407A
:10133000F0B5856D846D984F0668BE4270D0964FAB
:1013400018370668BE426BD0934F30370668BE42EE
:1013500066D0914F48370668BE4261D08E4F6037E5
:101360000668BE425CD08C4F78370668BE4257D0C4
:10137000894F90370668BE4252D0874FA83706681B
:10138000BE424DD0854F0668BE4249D0834F1837C4
:101390000668BE4244D0814F30370668BE423FD017
:1013A0007E4F48370668BE423AD07C4F60370668A9
:1013B000BE4235D0794F78370668BE4230D0774F7D
:1013C00090370668BE422BD0744FA8370668BE42DD
:1013D00026D0734F0668BE4222D0714F143706687C
:1013E000BE421DD06E4F28370668BE4218D06C4FE3
:1013F0003C370668BE4213D0694F50370668BE427C
:101400000ED0674F64370668BE4209D0644F783704
:101410000668BE4204D0624F8C370668BE4201D1D6
:10142000012600E000263EB1D0E919767E60C66E46
:1014300016B1D0E91C767E60574F0668BE4249D08F
:10144000554F18370668BE4244D0534F30370668B0
:10145000BE423FD0504F48370668BE423AD04E4F4A
:1014600060370668BE4235D04B4F78370668BE42BB
:1014700030D0494F90370668BE422BD0464FA83730
:101480000668BE4226D0454F0668BE4222D0434F72
:1014900018370668BE421DD0404F30370668BE423E
:1014A00018D03E4F48370668BE4213D03B4F6037D6
:1014B0000668BE420ED0394F78370668BE4209D062
:1014C000364F90370668BE4204D0344FA8370668BE
:1014D000BE4201D1012600E00026DEB190F85C603A
:1014E00006F01F073F26BE40AE600668366826F449
:1014F000802607683E60066873608668402E04D1C7
:101500000668B2600668F16044E00668B16006688B
:10151000F2603FE0224F0668BE4222D0204F1437CF
:101520000668BE421DD01E4F28370668BE4218D03E
:101530001B4F3C370668BE4213D0194F5037066820
:10154000BE420ED0164F64370668BE4209D0144F13
:1015500078370668BE4204D0114F8C370668BE4209
:1015600001D1012600E00026A6B190F85C6006F0EB
:101570001F070126BE406660066873608668402EBD
:1015800004D10668B2600668F16003E00668B160E5
:101590000668F260F0BD0000100002401004024036
:1015A00008540258704772B600BFFEE710B501F04C
:1015B00001037BB1134BDB6823F4E663114CE3605A
:1015C00042F0040343EA002343F08003E46823432A
:1015D0000C4CE36001F00203022B12D10A4B1B6892
:1015E00023F4E663074CC4F80C3142F0040343EAE9
:1015F000002343F08003D4F80C412343014CC4F88A
:101600000C3110BD002000520C21005201F00302E9
:10161000032A1BD1234AD26822F03002214BDA6020
:10162000214A126822F03002C3F80C211A46D2680F
:101630000243DA601A46D2F80C210243C3F80C21A7
:101640001A46926942F010029A6129E001F0010203
:1016500072B1144AD26822F03002124BDA601A4694
:10166000D2680243DA601A46D26842F08802DA6031
:1016700001F00202022A13D10B4A126822F0300252
:10168000084BC3F80C211A46D2F80C210243C3F8C8
:101690000C211A46D2F80C2142F08802C3F80C2122
:1016A00070470000002000520C2100522DE9F0414B
:1016B00007460E460424002503F066F98046022EF4
:1016C00000D1344C0BE0781C48B103F05DF9A0EB7D
:1016D0000800B84200D817B90320BDE8F0812E48B1
:1016E0002040A04208D12D4800692040A04201D1ED
:1016F00001200DE000200BE02948006824F00041A3
:10170000084024F00041884201D1012000E000207F
:101710000028D8D1012E05D120480069214900EACE
:10172000010505E01E4800681F49084040F00045DB
:1017300025F0004090B11D48806928431B4988610D
:1017400015482840A84202D11448456104E025F01C
:1017500000401349091D08600120BEE7012E0AD18F
:101760000E48006900F48030B0F5803F0FD130049E
:101770000A4948610BE00A48006800F48030B0F57F
:10178000803F04D14FF480300549091D08600020D6
:10179000A3E70000040000800F00EF1F00200052AC
:1017A000102100520000EE170000EE9758060020AE
:1017B00002460868B0B9D1E901031843CB68184361
:1017C0000B6918434B6918438B691843CB6918435D
:1017D0000B6A18434B6A184313686FF30E031843E0
:1017E000106019E0D1E9070318434B6A18431368E6
:1017F00023F4F84318431060D1E901031843CB6880
:1018000018430B6918434B6918438B691843536895
:101810006FF30E0318435060002070470246506972
:1018200043F6FE73984340EA410050610020704740
:1018300010B50346D1E9000420438C68641E40EAD9
:101840004410CC6840EA44201C696FF3150420431F
:101850001861002010BD000030B50346FAB90868D1
:10186000401E4C68641E40EA04148868401E44EA26
:101870000024C868401E44EA0034088A401E44EA36
:101880000044888A401E44EA0054087E401E44EA10
:1018900000609C6804F070442043986022E0C868AF
:1018A000401E0403888A401E44EA00509C680E4D86
:1018B0002C40204398600868401E4C68641E40EA33
:1018C00004148868401E44EA0024088A401E44EA42
:1018D0000044087E401E44EA0060DC6804F0704466
:1018E0002043D860002030BDFF0F0FFF30B5014608
:1018F00000220024CB78002006E00D5C1544EAB2FB
:10190000A518ECB2451CE8B21D1DA842F5DB181D58
:10191000085C904205D1581D085CA04201D101200D
:1019200030BD0020FCE7000070B50A480468001DC7
:101930000568001D0668344454B108220649204653
:1019400007F0A0FA042204491031284607F09AFA59
:1019500070BD000000E8F11FE200002070B50446F1
:10196000049D00BF94F83400012801D1022070BD0D
:10197000012084F8340000BF022084F8350043EAD7
:1019800005402668706241EA024026683062012004
:1019900084F8350000BF002084F8340000BF00BF89
:1019A000E5E7014600BF91F83400012801D102208B
:1019B0007047012081F8340000BF022081F8350013
:1019C0000868006820F004000A681060012081F8AF
:1019D000350000BF002081F8340000BF00BFE7E7FA
:1019E000014600BF91F83400012801D10220704760
:1019F000012081F8340000BF022081F8350008681A
:101A0000006840F004000A681060012081F8350089
:101A100000BF002081F8340000BF00BFE7E7704737
:101A20007047000070B504462068056905F00400A1
:101A300004280ED121684861E06C40F00200E064A7
:101A4000042084F835002348A16C0865A06C00F0E0
:101A5000C3FF05F0020002280ED121684861E06C46
:101A600040F00100E064042084F835001948A16CBE
:101A70000865A06C00F0B0FF05F01000102804D13C
:101A800021684861204600F077F805F00800082832
:101A900004D121684861204600F02AFA05F00100CF
:101AA000B8B12068006800F00200022805D1206863
:101AB000C06820F01E002168C8602068C06820F05F
:101AC00001002168C8600120216848612046FFF7B5
:101AD000A7FF70BD450E000810B504460CB90120E3
:101AE00010BD94F8350010B9204600F047F80220E8
:101AF00084F83500A06908B100216162206800689F
:101B00001C49084021680860616960680843E16811
:101B1000084321690843A1680843A1690843216A71
:101B20000843616A0843A16A0843E16A0843216BDC
:101B30000843216809680843216808606068102824
:101B40000BD1217F607F41EA0021A07F41EA004163
:101B5000E07F41EA0060216888612068C06840F049
:101B60001E002168C8600020E064012084F8350070
:101B70000020B5E707F0E0FF7047000010B586B021
:101B80000446142101A8FEF722FF64492068884218
:101B90007ED100BF6248006840F0010060490860E3
:101BA0000846006800F00100009000BF00BF00BFC1
:101BB000081D006840F01000091D08600846006814
:101BC00000F01000009000BF00BF00BF0846006892
:101BD00040F0010008600846006800F00100009035
:101BE00000BF00BF00BF0846006840F080000860EA
:101BF0000846006800F08000009000BF00BF00BFF2
:101C00000846006840F0080008600846006800F0D8
:101C10000800009000BF00BF00BF0846006840F009
:101C2000400008600846006800F04000009000BFD7
:101C300000BF7020019002200290002003900490C9
:101C40000D20059001A9374802F08CFD502001902D
:101C5000022002900020039004900D20059001A91D
:101C6000314802F07FFD4FF4F050019002200290C5
:101C70000020039004900D20059001A92B4802F04C
:101C800071FD08200190022002900020039000E0E6
:101C900042E004900D20059001A9254802F062FD64
:101CA0004FF40070019002200290002003900490F5
:101CB0000D20059001A91F4802F054FD1E481F4940
:101CC00008604B20486000211C488160C1604FF4CF
:101CD0008061016189004161890081610021C161E8
:101CE0004FF44031016204214162032181620021ED
:101CF000C162016301F0BCFD08B1FFF754FC00BFF5
:101D00000E48A064846300BF002205214E2002F02B
:101D100079FF4E2002F062FF06B010BD00000248BD
:101D2000DC4402580010025800000258001C0258FF
:101D3000000C0258001802581000024080040020D5
:101D40002DE9F84304460F4615461E4600BF94F899
:101D50003400012802D10220BDE8F883012084F874
:101D6000340000BF022084F835002068006840F489
:101D70008040216808602068006820F00200216827
:101D80000860206800683843216808603248A16C08
:101D9000C8633248A16CC8640020A16C0865A063C8
:101DA0002064E0636064B6F5803F15D2226802F1DA
:101DB000280133462A46A06C01F0EAFF00283DD0F6
:101DC0004020E064012084F8350000BF002084F842
:101DD000340000BF0120BFE71F48A16C4864012008
:101DE000A063E663656405E0E06B4008E063A06B18
:101DF0004000A063E06BB0F5803FF5D2A06B801E81
:101E0000A063A06B2064E06B042101FB0058E06B31
:101E10000090226802F1280143462A46A06C00F097
:101E2000D1F858B14020E064012084F8350000BFAB
:101E3000002084F8340000BF01208DE7206800688E
:101E400040F001002168086000BF002084F83400E1
:101E500000BF00BF80E70000690E0008450E0008C3
:101E600070B5044621480068C0084FF47A71B0FB91
:101E7000F1F000FB01F5002600BF94F834000128C2
:101E800001D1022070BD012084F8340000BF02207F
:101E900084F835002068006820F00100216808609F
:101EA00000BF6D1E2DB9E06C40F02000E0640326F9
:101EB00005E02068006800F001000028F1D100BFB3
:101EC0002068006820F4804021680860A06C00F061
:101ED00015FBE06CE064012084F8350000BF0020B1
:101EE00084F8340000BF3046CCE7000094000020A6
:101EF0007047000010B50346304C1868A04249D026
:101F00002E4C18341868A04244D02C4C3034186839
:101F1000A0423FD0294C48341868A0423AD0274C00
:101F200060341868A04235D0244C78341868A04238
:101F300030D0224C90341868A0422BD01F4CA834CB
:101F40001868A04226D01E4C1868A04222D01C4C13
:101F500018341868A0421DD0194C30341868A042BB
:101F600018D0174C48341868A04213D0144C603471
:101F70001868A0420ED0124C78341868A04209D0DC
:101F80000F4C90341868A04204D00D4CA834186847
:101F9000A04201D1012000E0002030B112B9186840
:101FA000C16008E01868016105E012B91868C160F5
:101FB00001E018680161002010BD0000100002401F
:101FC000100402402DE9F04704460F4690461E4695
:101FD000DDF820904FF0000AA068802804D140006E
:101FE00060650120BDE8F08700BF94F83400012847
:101FF00001D10220F6E7012084F8340000BF94F8F4
:10200000350001287ED1022084F83500002060656B
:10201000F9492068884249D0F74918312068884238
:1020200044D0F5493031206888423FD0F2494831E8
:10203000206888423AD0F04960312068884235D023
:10204000ED4978312068884230D0EB4990312068E2
:1020500088422BD0E849A8312068884226D0E74939
:102060002068884222D0E5491831206888421DD076
:10207000E24930312068884218D0E0494831206870
:10208000884213D0DD496031206888420ED0DB4998
:1020900078312068884209D0D84990312068884238
:1020A00004D0D649A8312068884201D1012000E03F
:1020B000002090B12068006840F48020216808600A
:1020C00020680661A06D00F1080594F85C0000F03E
:1020D0001F013F208840286011E02068006848F216
:1020E000200108432168086020680661A06D051D75
:1020F00094F85C0000F01F010120884028604B46E6
:10210000424600E0EFE139462046FFF79BF8BA4926
:102110002068884270D0B8491831206888426BD056
:10212000B54930312068884266D0B34948312068CB
:10213000884261D0B0496031206888425CD0AE49A5
:1021400078312068884257D0AB4990312068884266
:1021500052D0A949A831206888424DD0A7492068AB
:10216000884249D0A54918312068884244D0A34903
:102170003031206888423FD0A049483120688842E9
:102180003AD09E4960312068884235D09B497831E9
:102190002068884230D099499031206888422BD0FD
:1021A0009649A8312068884226D0954920688842FF
:1021B00022D093491431206888421DD0904928319B
:1021C0002068884218D08E493C312068884213D05C
:1021D0008B495031206888420ED08949643120688B
:1021E000884209D0864978312068884204D08449E1
:1021F0008C312068884201D1012000E0002038B1F4
:10220000D4E919104860E06E10B1D4E91C104860A0
:1022100079492068884249D0774918312068884236
:1022200044D075493031206888423FD072494831E6
:10223000206888423AD0704960312068884235D0A1
:102240006D4978312068884230D06B4990312068E0
:1022500088422BD06849A8312068884226D0674937
:102260002068884222D065491831206888421DD0F4
:10227000624930312068884218D06049483120686E
:10228000884213D05D496031206888420ED05B4996
:1022900078312068884209D05849903120688842B6
:1022A00004D05649A8312068884201D1012000E0BD
:1022B0000020C0B12068006820F01E0040F0160029
:1022C000216808602068406940F08000216848610A
:1022D000206C08B9A06CC0B12068006840F008000C
:1022E0002168086011E02068006820F00E0040F0CE
:1022F0000A0021680860206C08B9A06C28B1206829
:10230000006840F00400216808603B49206888426A
:1023100070D039491831206888426BD03649303145
:102320002068884266D0344948312068884261D0AC
:1023300031496031206888425CD02F49783120686B
:10234000884257D02C4990312068884252D02A497F
:10235000A831206888424DD028492068884249D059
:10236000264918312068884244D0244930312068F9
:1023700088423FD021494831206888423AD01F49DD
:1023800060312068884235D01C4978312068884205
:1023900030D01A499031206888422BD01749A83193
:1023A0002068884226D016492068884222D01449E5
:1023B0001431206888421DD0114928312068884294
:1023C00018D00F493C312068884213D00C49503155
:1023D000206888420ED00A4964312068884209D0BA
:1023E000074978312068884204D005498C3120683B
:1023F000884207D1012006E010000240100402408C
:1024000008540258002090B1206E006800F480301B
:1024100028B1206E006840F48070216E0860E06E84
:1024200028B1E06E006840F48070E16E08603149C8
:102430002068884249D02F4918312068884244D00A
:102440002C493031206888423FD02A4948312068E1
:1024500088423AD0274960312068884235D02549E2
:1024600078312068884230D02249903120688842F3
:102470002BD02049A8312068884226D01E492068E8
:10248000884222D01C491831206888421DD01A4940
:1024900030312068884218D0174948312068884276
:1024A00013D015496031206888420ED01249783126
:1024B0002068884209D0104990312068884204D0B1
:1024C0000D49A8312068884206D12068006840F094
:1024D0000100216808600BE02068006840F00100FE
:1024E0002168086004E04FF4006060654FF0010A65
:1024F000504677E510000240100402402DE9F041FB
:10250000044602F041FA804614B90120BDE8F0818A
:1025100094F83500022808D08020606500BF0020B4
:1025200084F8340000BF0120F0E7FE4920688842AB
:1025300049D0FC4918312068884244D0F9493031EB
:10254000206888423FD0F7494831206888423AD015
:10255000F44960312068884235D0F24978312068EA
:10256000884230D0EF499031206888422BD0ED4925
:10257000A8312068884226D0EB492068884222D0C2
:10258000E9491831206888421DD0E7493031206878
:10259000884218D0E44948312068884213D0E24983
:1025A0006031206888420ED0DF4978312068884247
:1025B00009D0DD4990312068884204D0DA49A83139
:1025C0002068884201D1012000E0002068B1206825
:1025D000006820F01E00216808602068406920F033
:1025E000800021684861256806E02068006820F0C6
:1025F0000E00216808602568CA492068884270D0AA
:10260000C8491831206888426BD0C64930312068EB
:10261000884266D0C34948312068884261D0C149A8
:102620006031206888425CD0BE4978312068884299
:1026300057D0BC4990312068884252D0B949A8315E
:10264000206888424DD0B8492068884249D0B649B0
:1026500018312068884244D0B3493031206888421C
:102660003FD0B1494831206888423AD0AE49603104
:102670002068884235D0AC4978312068884230D013
:10268000A9499031206888422BD0A749A8312068F9
:10269000884226D0A5492068884222D0A349143117
:1026A000206888421DD0A14928312068884218D06E
:1026B0009E493C312068884213D09C4950312068A3
:1026C00088420ED0994964312068884209D09749E0
:1026D00078312068884204D094498C31206888423F
:1026E00001D1012000E0002028B1206E006820F414
:1026F0008070216E08608B492068884249D08949E2
:1027000018312068884244D0864930312068884298
:102710003FD084494831206888423AD081496031AD
:102720002068884235D07F4978312068884230D08F
:102730007C499031206888422BD07A49A8312068A2
:10274000884226D078492068884222D076491831BC
:10275000206888421DD0744930312068884218D0E2
:10276000714948312068884213D06F496031206830
:1027700088420ED06C4978312068884209D06A4975
:1027800090312068884204D06749A8312068884287
:1027900006D12068006820F001002168086005E08B
:1027A0002068006820F001002168086011E002F054
:1027B000EBF8A0EB080005280BD92020606503206A
:1027C00084F8350000BF002084F8340000BF0120E9
:1027D0009CE6286800F001000028E8D151492068F3
:1027E000884249D04F4918312068884244D04D4929
:1027F0003031206888423FD04A49483120688842B9
:102800003AD0484960312068884235D0454978310E
:102810002068884230D043499031206888422BD0CC
:102820004049A8312068884226D03F492068884224
:1028300022D03D491831206888421DD03A493031B4
:102840002068884218D0384948312068884213D01F
:1028500035496031206888420ED03349783120688C
:10286000884209D0304990312068884204D02E49EE
:10287000A8312068884201D1012000E0002040B149
:10288000A66D94F85C0000F01F013F208840B06006
:1028900007E0A76D94F85C0000F01F01012088405C
:1028A000786020492068884276D01E491831206817
:1028B000884271D01B493031206888426CD0194958
:1028C00048312068884267D01649603120688842C4
:1028D00062D014497831206888425DD01149903126
:1028E0002068884258D00F49A8312068884253D0C8
:1028F0000D49206888424FD00B4918312068884222
:102900004AD0094930312068884245D006494831CB
:102910002068884240D004496031206888423BD01A
:10292000014905E01000024010040240085402581A
:102930007831206888422FD02549206888422BD0E2
:10294000234918312068884226D0224920688842CD
:1029500022D020491431206888421DD01D492831D9
:102960002068884218D01B493C312068884213D027
:1029700018495031206888420ED0164964312068C9
:10298000884209D0134978312068884204D011491F
:102990008C312068884201D1012000E0002068B11C
:1029A000D4E919104860E06E40B1E06E006820F490
:1029B0008070E16E0860D4E91C104860012084F842
:1029C000350000BF002084F8340000BF00BF9DE543
:1029D000A00402400854025870B504460CB9012006
:1029E00070BD94F83500022803D080206065012076
:1029F000F6E7DC492068884249D0DA491831206876
:102A0000884244D0D7493031206888423FD0D549E8
:102A10004831206888423AD0D249603120688842E3
:102A200035D0D04978312068884230D0CD499031B6
:102A3000206888422BD0CB49A8312068884226D014
:102A4000C9492068884222D0C74918312068884285
:102A50001DD0C54930312068884218D0C24948315C
:102A60002068884213D0C0496031206888420ED067
:102A7000BD4978312068884209D0BB49903120682F
:102A8000884204D0B849A8312068884201D1012089
:102A900000E00020F0B3042084F83500B14920683C
:102AA00088424BD0AF4918312068884246D0AD49A2
:102AB00030312068884241D0AA4948312068884294
:102AC0003CD0A84960312068884237D0A549783188
:102AD0002068884232D0A3499031206888422DD0A6
:102AE000A049A8312068884228D09F4920688842A0
:102AF00024D09D491831206888421FD09A4930312E
:102B0000206888421AD0984948312068884215D0F8
:102B1000954900E020E06031206888420ED092495B
:102B200078312068884209D08F49903120688842E6
:102B300004D08D49A8312068884206D120680068F9
:102B400020F001002168086009E12068006820F099
:102B500001002168086002E12068006820F00E0092
:102B6000216808607F492068884249D07D49183132
:102B70002068884244D07B493031206888423FD069
:102B800078494831206888423AD0764960312068D7
:102B9000884235D0734978312068884230D07149F5
:102BA0009031206888422BD06E49A8312068884235
:102BB00026D06D492068884222D06B4918312068A0
:102BC00088421DD0684930312068884218D0664953
:102BD00048312068884213D06349603120688842B8
:102BE0000ED0614978312068884209D05E49903121
:102BF0002068884204D05C49A8312068884206D108
:102C00002068006820F001002168086005E0206865
:102C1000006820F00100216808605249206888425D
:102C200070D050491831206888426BD04D493031FE
:102C30002068884266D04B4948312068884261D07C
:102C400048496031206888425CD046497831206824
:102C5000884257D0434990312068884252D0414938
:102C6000A831206888424DD03F492068884249D029
:102C70003D4918312068884244D03B4930312068B2
:102C800088423FD038494831206888423AD0364996
:102C900060312068884235D03349783120688842D5
:102CA00030D031499031206888422BD02E49A8314C
:102CB0002068884226D02D492068884222D02B499E
:102CC0001431206888421DD0284928312068884264
:102CD00018D026493C312068884213D0234950310E
:102CE000206888420ED0214964312068884209D08A
:102CF0001E4978312068884204D01C498C312068F4
:102D0000884201D1012000E00020D8B1206E006887
:102D100020F48070216E0860A56D94F85C0000F0CE
:102D20001F01012088406860D4E919104860E06EF6
:102D300040B1E06E006820F48070E16E0860D4E974
:102D40001C104860012084F8350000BF002084F882
:102D5000340000BF206D10B12046216D884700204F
:102D60003EE60000100002401004024008540258E1
:102D7000014691F8350070472DE9F84F04460020D0
:102D80000090FE4800684FF41651B0FBF1FAA66DB2
:102D9000D4F858803768D8F80090F94920688842FC
:102DA00049D0F74918312068884244D0F44930317D
:102DB000206888423FD0F2494831206888423AD0A2
:102DC000EF4960312068884235D0ED49783120687C
:102DD000884230D0EA499031206888422BD0E849B7
:102DE000A8312068884226D0E6492068884222D04F
:102DF000E4491831206888421DD0E249303120680A
:102E0000884218D0DF4948312068884213D0DD4914
:102E10006031206888420ED0DA49783120688842D3
:102E200009D0D84990312068884204D0D549A831CA
:102E30002068884201D1012000E0002000287DD0D8
:102E400094F85C0000F01F010820884038400028FA
:102E500068D0CB492068884249D0C94918312068D8
:102E6000884244D0C6493031206888423FD0C449A6
:102E70004831206888423AD0C14960312068884290
:102E800035D0BF4978312068884230D0BC49903174
:102E9000206888422BD0BA49A8312068884226D0C1
:102EA000B8492068884222D0B64918312068884243
:102EB0001DD0B44930312068884218D0B14948311A
:102EC0002068884213D0AF496031206888420ED014
:102ED000AC4978312068884209D0AA4990312068ED
:102EE000884204D0A749A8312068884204D12068CC
:102EF000006800F0040003E02068006800F00800AB
:102F000080B12068006820F004002168086094F80F
:102F10005C0000F01F0108208840B060606D40F048
:102F20000100606594F85C0000F01F0101208840FA
:102F30003840E8B392492068884200E0B7E24BD0BD
:102F40008F4918312068884246D08D493031206839
:102F5000884241D08A494831206888423CD088491B
:102F600060312068884237D08549783120688842AE
:102F700032D083499031206888422DD08049A831D1
:102F80002068884228D07F492068884224D07D4923
:102F90001831206888421FD07A4930312068884231
:102FA0001AD0784948312068884215D0754900E028
:102FB00026E06031206888420ED07249783120685E
:102FC000884209D06F4990312068884204D06D4909
:102FD000A8312068884204D12068406900F0800050
:102FE00002E020680068002050B194F85C0000F016
:102FF0001F0101208840B060606D40F002006065F4
:1030000094F85C0000F01F01042088403840E8B3C9
:103010005B49206888424BD0594918312068884262
:1030200046D0574930312068884241D05449483110
:10303000206888423CD0524960312068884237D0AD
:103040004F4978312068884232D04D49903120680C
:1030500088422DD04A49A8312068884228D0494961
:103060002068884224D047491831206888421FD000
:1030700044493031206888421AD04249483120689A
:10308000884215D03F496031206800E024E0884242
:103090000ED03C4978312068884209D039499031B6
:1030A0002068884204D03749A8312068884204D17A
:1030B0002068006800F0020002E02068006800203C
:1030C00050B194F85C0000F01F0104208840B0600B
:1030D000606D40F00400606594F85C0000F01F0132
:1030E000102088403840E8B325492068884251D0F4
:1030F00023491831206888424CD02149303120685A
:10310000884247D01E4948312068884242D01C4935
:103110006031206888423DD0194978312068884262
:1031200038D0174990312068884233D01449A831EB
:10313000206888422ED01349206888422AD011493D
:1031400018312068884225D00E49303120688842E5
:1031500020D00C494831206888421BD00949603191
:10316000206800E04DE0884214D00649783120689C
:1031700088420FD003499031206805E09400002078
:103180001000024010040240884203D0FE4920682B
:10319000884204D12068006800F0080003E020683D
:1031A000006800F0040060B394F85C0000F01F01B8
:1031B00010208840B0602068006800F4802080B152
:1031C0002068006800F4002028B9206CC8B12046AF
:1031D000216C884715E0A06C98B12046A16C884707
:1031E0000FE02068006800F4807028B9206800684B
:1031F00020F0080021680860206C10B12046216C86
:10320000884794F85C0000F01F0120208840384077
:1032100000287DD0DD492068884249D0DB4918313B
:103220002068884244D0D9493031206888423FD054
:10323000D6494831206888423AD0D4496031206864
:10324000884235D0D14978312068884230D0CF4982
:103250009031206888422BD0CC49A8312068884220
:1032600026D0C949A8392068884221D0C64990395A
:10327000206888421CD0C44978392068884217D019
:10328000C14960392068884212D0BF494839206856
:1032900088420DD0BC4930392068884208D0BA49EC
:1032A00018392068884203D0B7492068884204D181
:1032B0002068006800F0100003E02068006800F05B
:1032C000020028B394F85C0000F01F012020884021
:1032D000B06094F8350004282DD12068006820F0F3
:1032E0001600216808602068406920F0800021688D
:1032F0004861206C08B9A06C28B12068006820F0F3
:1033000008002168086094F85C0000F01F0100E0EC
:103310003FE03F208840B060012084F8350000BFC6
:10332000002084F8340000BF206D10B12046216DCC
:103330008847BDE8F88F2068006800F4802080B1DD
:103340002068006800F4002028B9606C08B32046AB
:10335000616C88471DE0E06BD8B12046E16B88477F
:1033600017E02068006800F4807068B92068006881
:1033700020F0100021680860012084F8350000BFAB
:10338000002084F8340000BFE06B10B12046E16BF0
:103390008847606D00287AD0606D00F00100E8B3C6
:1033A000042084F835007949206888424BD0774959
:1033B00018312068884246D07449303120688842EC
:1033C00041D072494831206888423CD06F49603111
:1033D0002068884237D06D4978312068884232D0E1
:1033E0006A499031206888422DD06849A831206808
:1033F000884228D06449A8392068884223D062498D
:103400009039206888421ED05F4978392068884208
:1034100019D05D4960392068884200E040E012D050
:1034200059494839206888420DD0574930392068B9
:10343000884208D0544918392068884203D052493C
:103440002068884206D12068006820F001002168C9
:10345000086005E02068006820F00100216808602D
:1034600000BF0098401C0090504500D905E020683E
:10347000006800F001000028F3D100BF2068006858
:1034800000F0010020B1032084F8350003E00DE0D6
:10349000012084F8350000BF002084F8340000BF0C
:1034A000E06C002802D02046E16C8847D9E1384919
:1034B0002068884222D036491431206888421DD0C5
:1034C000334928312068884218D031493C3120687E
:1034D000884213D02E495031206888420ED02C49A2
:1034E00064312068884209D02949783120688842AF
:1034F00004D027498C312068884201D1012000E0A6
:1035000000200028D2D02068056894F85C0000F004
:103510001F010420884000EA0900D8B305F0040028
:10352000C0B394F85C0000F01F0104208840C8F884
:10353000040005F4004080B105F4803030B9A06C7F
:103540000028B3D02046A16C88478AE1206C00286F
:10355000ACD02046216C884783E105F02000E8BB11
:103560000A492068884253D00849183120688842A7
:103570004ED0064930312068884249D0034948314D
:103580002068884244D006E0B8040240100002409F
:10359000085402584FE0B44960312068884237D05F
:1035A000B14978312068884232D0AF4990312068E3
:1035B00088422DD0AC49A8312068884228D0AB4938
:1035C0002068884224D0A9491831206888421FD039
:1035D000A6493031206888421AD000E025E0A3498E
:1035E00048312068884213D0A04960312068884261
:1035F0000ED09E4978312068884209D09B4990318D
:103600002068884204D09949A8312068884206D1B0
:103610002068006820F008002168086005E0206844
:10362000006820F0040021680860206C10B3204678
:10363000216C884715E194F85C0000F01F0102201E
:10364000884000EA0900E8B305F00200D0B394F81E
:103650005C0000F01F0102208840C8F8040005F457
:10366000004070B105F4803028B9606C10B120467C
:10367000616C8847F5E0E06BF0B32046E16B88476A
:10368000EFE005F02000C0BB7749206888424ED0AB
:10369000754918312068884249D073493031206813
:1036A000884244D070494831206888423FD06E49F2
:1036B0006031206888423AD06B497831206888426E
:1036C00035D000E04EE068499031206888422ED025
:1036D0006549A8312068884229D064492068884219
:1036E00025D0624918312068884220D05F493031A6
:1036F000206888421BD001E06EE02DE05B49483134
:103700002068884213D059496031206888420ED021
:10371000564978312068884209D054499031206850
:10372000884204D05149A8312068884206D12068D7
:10373000006820F014002168086005E02068006837
:1037400020F00A0021680860012084F8350000BFDD
:10375000002084F8340000BFE06BE8B32046E16B42
:1037600088477EE094F85C0000F01F010820884044
:1037700000EA090080B305F0080068B33A49206800
:1037800088424BD0384918312068884246D03649A3
:1037900030312068884241D033494831206888421E
:1037A0003CD0314960312068884237D02E49783189
:1037B0002068884232D02C499031206888422DD030
:1037C0002949A8312068884228D0284920688842A1
:1037D00024D02649183100E043E0206888421DD0FB
:1037E000224930312068884218D020494831206869
:1037F000884213D01D496031206888420ED01B4991
:1038000078312068884209D0184990312068884270
:1038100004D01649A8312068884206D12068006883
:1038200020F01C002168086005E02068006820F096
:103830000E002168086094F85C0000F01F01012070
:103840008840C8F804000120606584F8350000BF96
:10385000002084F8340000BFE06C10B12046E16C19
:10386000884700BF65E500001000024010040240D8
:103870002DE9F041044601F087F8804614B9012093
:10388000BDE8F081FE492068884249D0FC491831E2
:103890002068884244D0FA493031206888423FD0BD
:1038A000F7494831206888423AD0F54960312068AC
:1038B000884235D0F24978312068884230D0F049CA
:1038C0009031206888422BD0ED49A8312068884289
:1038D00026D0EC492068884222D0EA491831206875
:1038E00088421DD0E74930312068884218D0E54928
:1038F00048312068884213D0E2496031206888420C
:103900000ED0E04978312068884209D0DD499031F5
:103910002068884204D0DB49A8312068884201D160
:10392000012000E00020002873D0606A00B100BFD1
:10393000022084F8350000BF002084F8340000BF66
:10394000CF492068884249D0CD4918312068884243
:1039500044D0CB493031206888423FD0C8494831F3
:10396000206888423AD0C64960312068884235D004
:10397000C34978312068884230D0C14990312068ED
:1039800088422BD0BE49A8312068884226D0BD4944
:103990002068884222D0BB491831206888421DD057
:1039A000B84930312068884218D0B649483120687B
:1039B000884213D0B3496031206888420ED0B149A3
:1039C00078312068884209D0AE4990312068884219
:1039D00004D0AC49A8312068884206D1206800682C
:1039E00020F001002168086005E02068006820F0F0
:1039F0000100216808600DE000F0C6FFA0EB0800A0
:103A0000052807D920206065032084F835000120AF
:103A100036E76AE02068006800F001000028EBD17A
:103A20002068056898480540D4E9020108432169E7
:103A3000084361690843A1690843E1690843216AB1
:103A400008430543606A042803D1D4E90B01084305
:103A500005438E4800686FF30F00B0F1005F1DD37F
:103A60006068292802D360682E2811D960683F2831
:103A700002D3606842280BD96068472802D3606887
:103A8000482805D960684F2804D36068522801D8B7
:103A9000012000E0002008B145F480152068056091
:103AA0002068456925F00705606A0543606A0428B7
:103AB0000DD1A06A0543E06A48B12046FDF76AFBD4
:103AC00028B140206065012084F83500D8E62068E0
:103AD00045612046FDF73AFA064694F85C0000F08E
:103AE0001F013F208840B0609EE0694920688842FD
:103AF00022D067491431206888421DD0644928319A
:103B00002068884218D062493C312068884213D02E
:103B10005F495031206888420ED05D496431206889
:103B2000884209D05A4978312068884204D05849DF
:103B30008C312068884201D1012000E00020E0B3F0
:103B400053492068884222D0514914312068884264
:103B50001DD04F4928312068884218D04C493C314B
:103B60002068884213D04A495031206888420ED0DC
:103B7000474964312068884209D045497831206836
:103B8000884204D042498C312068884201D101200A
:103B900000E0002000B100BF022084F8350000BF23
:103BA000002084F8340000BF2068056839480540CB
:103BB000A068402802D1102106E02EE0A0688028ED
:103BC00001D1C10100E00021E06841EAD001206993
:103BD00041EAD001606941EAD001A06941EAD0011F
:103BE000E06941EAD001206A41EA101005432068EB
:103BF000056027492068401A1421B0FBF1F08000CD
:103C0000E0652046FDF7A2F9074694F85C0000F055
:103C10001F0101208840786006E040206065032095
:103C200084F8350001202BE61549206888427FD0B2
:103C300013491831206888427AD011493031206800
:103C4000884275D00E4948312068884270D00C49AE
:103C50006031206888426BD00949783120688842F9
:103C600066D0074990312068884261D00449A83164
:103C7000206888425CD003492068884258D00BE015
:103C800010000240100402403F8010FE0010005C53
:103C9000085402580F00FEFF3B4918312068884243
:103CA00046D0394930312068884241D036494831C0
:103CB000206888423CD0344960312068884237D03F
:103CC000314978312068884232D02F4990312068BC
:103CD00088422DD02C49A8312068884228D02B4911
:103CE0002068884224D029491431206888421FD096
:103CF00026492831206888421AD024493C3120685E
:103D0000884215D0214950312068884210D01F497F
:103D10006431206888420BD01C4978312068884281
:103D200006D01A498C312068884200E000E001D1B9
:103D3000012000E0002000B32046FDF77DF9A068D7
:103D4000802801D1002060602079216E0860D4E9CC
:103D500019104860606860B16068082809D820467A
:103D6000FDF7CCF90020E16E0860D4E91C10486032
:103D700003E00020E06620676067002060650120A6
:103D800084F8350000207BE51004024008540258F6
:103D90002DE9F04104460D4616461F464FF0000837
:103DA00014B90120BDE8F08100BF94F83400012867
:103DB00001D10220F6E7012084F8340000BF94F816
:103DC000350001287ED1022084F83500002060658E
:103DD000E4492068884249D0E24918312068884285
:103DE00044D0E0493031206888423FD0DD49483135
:103DF000206888423AD0DB4960312068884235D05B
:103E0000D84978312068884230D0D649903120682E
:103E100088422BD0D349A8312068884226D0D24985
:103E20002068884222D0D0491831206888421DD0AD
:103E3000CD4930312068884218D0CB4948312068BC
:103E4000884213D0C8496031206888420ED0C649E4
:103E500078312068884209D0C3499031206888426F
:103E600004D0C149A8312068884206D12068006882
:103E700020F001002168086005E02068006820F05B
:103E80000100216808603B46324629462046FDF77E
:103E90004FFAB449206888424BD0B24918312068A3
:103EA000884246D0AF4930312068884241D0AD4980
:103EB0004831206888423CD0AA4960312068884255
:103EC00037D000E042E1A74978312068884230D0FD
:103ED000A4499031206888422BD0A249A83120689B
:103EE000884226D0A0492068884222D09E491831B5
:103EF000206888421DD09C4930312068884218D003
:103F0000994948312068884213D097496031206828
:103F100088420ED0944978312068884209D092496D
:103F200090312068884204D08F49A83120688842A7
:103F300001D1012000E0002080B12068006820F05D
:103F40001E0040F0160021680860206CB0B12068A7
:103F5000006840F00800216808600FE020680068F1
:103F600020F00E0040F00A0021680860206C28B1A3
:103F70002068006840F004002168086079492068E2
:103F8000884270D077491831206888426BD07549D3
:103F900030312068884266D07249483120688842B2
:103FA00061D070496031206888425CD06D497831B9
:103FB0002068884257D06B4990312068884252D09F
:103FC0006849A831206888424DD0674920688842F6
:103FD00049D0654918312068884244D0624930315F
:103FE000206888423FD060494831206888423AD0F2
:103FF0005D4960312068884235D05B49783120685E
:10400000884230D058499031206888422BD0564998
:10401000A8312068884226D054492068884222D09E
:1040200052491431206888421DD0504928312068F7
:10403000884218D04D493C312068884213D04B4902
:104040005031206888420ED0484964312068884247
:1040500009D0464978312068884204D043498C31E0
:104060002068884201D1012000E0002090B1206E3C
:10407000006800F4803028B1206E006840F4807041
:10408000216E0860E06E28B1E06E006840F4807038
:10409000E16E086033492068884249D031491831BF
:1040A0002068884244D02F493031206888423FD070
:1040B0002C494831206888423AD02A49603120682A
:1040C000884235D0274978312068884230D0254948
:1040D0009031206888422BD02249A831206888423C
:1040E00026D021492068884222D01F4918312068F3
:1040F00088421DD01C4930312068884218D01A49A6
:1041000048312068884213D01749603120688842BE
:104110000ED0154978312068884209D01249903173
:104120002068884204D01049A8312068884206D10E
:104130002068006840F001002168086010E02068F5
:10414000006840F001002168086009E04FF4006059
:10415000606500BF002084F8340000BF4FF0010804
:1041600040461FE610000240100402400854025866
:1041700070B5044600F008FC06462546681C10B1E0
:1041800004480078054400BF00F0FEFB801BA842F5
:10419000FAD370BD900000202DE9F04104460E4690
:1041A000002700BF4848007D012802D10220BDE859
:1041B000F08101204449087500BF00208861207902
:1041C00000F0010030B101214CF25030FDF76EFAE1
:1041D00000B10127207900F00200022806D1022157
:1041E0004CF25030FDF762FA00B10127002F63D185
:1041F0002068012828D161682069FDF707FA207935
:1042000000F0010060B101214CF25030FDF74EFA90
:1042100000B101272D48C06820F008002B49C86074
:10422000207900F00200022846D102214CF25030E1
:10423000FDF73CFA00B101272548006820F008008E
:104240002249C1F80C0137E04FF0FF303060A5681B
:104250002CE0284622696168FDF7A8F9207900F072
:10426000010060B101214CF25030FDF71FFA074602
:104270001648C06840F2047188431449C860207928
:1042800000F0020002280DD102214CF25030FDF75F
:104290000DFA07460E48006840F2047188430B4946
:1042A000C1F80C010FB1356005E06D1CD4E90210B6
:1042B0000844A842CDD800BF00BF002002490875BD
:1042C00000BF384673E70000580600200020005267
:1042D0000C2100520E48C06840F001000C49C86033
:1042E0000846C06800F0010008B90120704709487D
:1042F000006840F001000649C1F80C01054800685B
:1043000000F0010008B90120F0E70020EEE700000E
:10431000002000520C2100522DE9F05F83460C462C
:104320001746A046B9464FF0080A00BF4248007D34
:10433000012802D10220BDE8F09F01203E49087506
:1043400000BFB4F1006F04D3B4F1016F01D20125B5
:1043500009E0B4F1016F04D3B4F1026F01D2022578
:1043600001E00120E7E700203349886129464CF24B
:104370005030FDF79BF90646002E55D1012D06D190
:104380002E48C06840F002002C49C86006E02C4866
:10439000006840F002002949C1F80C0100BF00BFCD
:1043A00000BFBFF36F8F00BF00BF00BF00BF00BFE3
:1043B00000BFBFF34F8F00BF00BF00BF00BFD9F8E1
:1043C0000000C8F8000008F1040809F10409AAF186
:1043D000010000F0FF0ABAF1000FF0D100BF00BFEA
:1043E00000BFBFF36F8F00BF00BF00BF00BF00BFA3
:1043F00000BFBFF34F8F00BF00BF00BF29464CF284
:104400005030FDF753F90646012D06D10B48C06820
:1044100020F002000949C86006E00948006820F061
:1044200002000649C1F80C0100BF002002490875CE
:1044300000BF30467FE700005806002000200052F1
:104440000C2100521348C06800F0010058B1124816
:1044500010494860114848600846C06800F00100F3
:1044600008B1012070470E48006800F0010070B1EB
:1044700009480B490839086008480649C1F8040191
:104480000748006800F0010008B10120EAE70020B9
:10449000E8E700000020005223016745AB89EFCD1B
:1044A0000C21005200B5B7B0142132A8FCF78FFAE6
:1044B0004648006808B137B000BD01204349086094
:1044C000C02102A8FCF783FA4FF080710020CDE9EB
:1044D00002100120049032210591022106910791DA
:1044E00003210891C021099100210A910220149012
:1044F00002A801F06DFD08B1FDF755F800BF344882
:10450000006840F48050324908600846006800F4B2
:104510008050019000BF00BF4FF63F003290022054
:10452000339000203490032035900C20369032A92F
:10453000284800F017F90420329002203390002020
:104540003490032035900C20369032A9224800F098
:1045500009F9242032900220339000203490032067
:1045600035900C20369032A91C4800F0FBF848F238
:104570003710329002203390002034900320359081
:104580000C20369032A9164800F0ECF84FF68370F4
:1045900032900220339000203490032035900C207C
:1045A000369032A90F4800F0DDF84CF203703290DB
:1045B0000220339000203490032035900C20369058
:1045C00032A9094800F0CEF800BF74E77C00002053
:1045D000D44402580014025800080258001C025823
:1045E0000018025800100258000C0258F0B50C4692
:1045F0000021504B98E001268E4006EA0402002A72
:104600007ED04D4E8F0856F827508E07370F0F2655
:10461000BE403540494EB04201D100262DE0484E03
:10462000B04201D1012628E0464EB04201D1022617
:1046300023E0454EB04201D103261EE0434EB04276
:1046400001D1042619E0424EB04201D1052614E002
:10465000404EB04201D106260FE03F4EB04201D19C
:1046600007260AE03D4EB04201D1082605E03C4E47
:10467000B04201D1092600E00A268F073F0FBE4055
:10468000AE421FD11E6896431E605E6896435E6010
:104690004FF0B046766896434FF0B0477E603E4696
:1046A000366896433E608E07370F0F2606FA07F5E9
:1046B000214E8F0856F82760AE431F4F4FEA910CEA
:1046C00047F82C6006684FEA410C032707FA0CF7FD
:1046D0003E430660CF0800F1200656F827604F07DA
:1046E0004FEAD76C0F2707FA0CF7BE434FEAD10CFD
:1046F00000F1200747F82C60C6684FEA410C00E043
:1047000011E0032707FA0CF7BE43C660476801268D
:104710008E40B743476086684FEA410C032707FA8B
:104720000CF7BE438660491C24FA01F6002E7FF484
:1047300062AFF0BD80000058080400580000025825
:104740000004025800080258000C025800100258D9
:104750000014025800180258001C02580020025889
:1047600000240258F8B502460B4600216F4DD7E0F1
:1047700001278F401E6806EA0704002C72D01E79BC
:1047800006F00306012E04D01E7906F00306022E61
:1047900013D190684F000326BE40B0434F00DE683F
:1047A000BE4030439060506801268E40B0431E7971
:1047B000C6F300168E40304350601E7906F00306A3
:1047C000032E09D0D0684F000326BE40B0434F00EF
:1047D0009E68BE403043D0601E7906F00306022E6C
:1047E00013D1CF0802F1200656F827004E07F70E26
:1047F0000F26BE40B0434F07FF0E1E69BE40304338
:10480000CF0802F1200646F8270010684F00032663
:10481000BE40B0431E7906F003064F00BE40304351
:1048200010605E6806F44036002E78D000BF404E1F
:10483000366846F002063E4F3E603E46366806F059
:104840000206009600BF00BF3A4E8F0856F82700B8
:104850008E07370F0F26BE40B043374EB24202D10B
:1048600000262EE05BE0354EB24201D1012628E061
:10487000334EB24201D1022623E0324EB24201D180
:1048800003261EE0304EB24201D1042619E02F4E1D
:10489000B24201D1052614E02D4EB24201D10626C6
:1048A0000FE02C4EB24201D107260AE02A4EB24256
:1048B00001D1082605E0294EB24201D1092600E0C7
:1048C0000A268F073F0FBE4030431A4E8F0846F826
:1048D00027004FF0B0463068A0435E6806F48016AB
:1048E00006B120434FF0B04630607068A0435E6868
:1048F00006F4001606B120434FF0B04670606868B9
:10490000A0435E6806F4003606B12043686028685C
:10491000A0435E6806F4803606B120432860491C37
:104920001E68CE40002E7FF423AFF8BD80000058F3
:10493000F4440258080400580000025800040258C9
:1049400000080258000C02580010025800140258C7
:1049500000180258001C0258002002580024025877
:10496000024613690B400BB1012000E000207047A4
:104970000AB1816101E00B0483617047014800685E
:10498000000C70470010005C014800687047000090
:104990008800002003480068034909780844014959
:1049A00008607047880000209000002010B50320A8
:1049B00000F066F902F0D0FB10490968C1F3032149
:1049C0000F4A515C01F01F0120FA01F40B48006806
:1049D00000F00F001146085C00F01F0024FA00F000
:1049E00008490860084804600F2000F00FF808B17B
:1049F000012010BD00F0B8F80020FAE71844025872
:104A0000C81E0108980000209400002070B58AB0EC
:104A10000446102C0AD200222146762000F0F2F83B
:104A2000762000F0DBF81948046002E001200AB0AB
:104A300070BD00BF1648006840F48020144908602B
:104A40000846006800F48020009000BF00BF01A964
:104A500002A802F001FB02F06DFB45000D48B5FB1A
:104A6000F0F0461E0C480D49086040F2E7310B4853
:104A7000C160466000210161816003F087F918B9C7
:104A8000064803F0D1F9D2E70120D0E78C000020DE
:104A9000F044025840420F00004801400C0600203C
:104AA0004178154A11600178F9B1121D4168116011
:104AB000017B0907C27A41EA0261827A41EAC24176
:104AC000427B41EA8241827B41EA4241C27B41EA28
:104AD0000241427A41EA0221027A41EA4201027825
:104AE0001143054A0832116005E00021024A121DF7
:104AF0001160121D1160704798ED00E000BF00BF0B
:104B000000BFBFF35F8F00BF00BF00BF0548006854
:104B100020F48030034908600020024970310860A9
:104B20007047000024ED00E040F001010D4A1160E3
:104B30000C497039096841F480310A4A703A1160B1
:104B400000BF00BF00BFBFF34F8F00BF00BF00BF5B
:104B500000BF00BF00BFBFF36F8F00BF00BF00BF2B
:104B60007047000094ED00E008B500BF09480068F8
:104B700040F00200074908600846006800F00200A3
:104B8000009000BF00BF00220F21901E00F03AF8F5
:104B900008BD0000F444025810B50146084600283C
:104BA00017DB00F01F0301229A400B4B440943F826
:104BB000242000BF00BF00BFBFF34F8F00BF00BF66
:104BC00000BF00BF00BF00BFBFF36F8F00BF00BFBB
:104BD00000BF00BF10BD000080E100E001460846B4
:104BE00000280DDB00BF00BF00F01F0301229A4028
:104BF00043099B0003F1E023C3F8002100BF00BF7D
:104C000000BF70472DE9F05F80460D46164609F05B
:104C10003BFD074639462A46334601F00700C0F1FE
:104C2000070ABAF1040F02D94FF0040A01E0C0F1FB
:104C3000070AD14600F1040ABAF1070F02D24FF079
:104C4000000A01E0A0F1030AD4464FF0010A0AFA73
:104C500009FAAAF1010A0AEA020A0AFA0CFA4FF062
:104C6000010B0BFA0CFBABF1010B0BEA030B4AEA4D
:104C70000B042146404609F00FFDBDE8F09F0000FF
:104C800000BF00F00702064B19684FF6FF031940FA
:104C9000044B0B4343EA0221014B196000BF7047EC
:104CA0000CED00E00000FA0501460A680120C1F899
:104CB0000005002081F8F404906940F000609061E4
:104CC000506D024B184350650020704703000010E0
:104CD000704702461068416200207047F0B50346F5
:104CE00015461868446A21B944EA05401E68B06256
:104CF00019E01868806A04EB1044002208E0186884
:104D000000F5827050F8220004EB1044501CC2B22F
:104D1000481E9042F3D844EA0547186800F58270AF
:104D20004E1E40F826700020F0BD10B50446D4F8A1
:104D3000080507F0E9FF10BD70B504460D4605EB08
:104D4000C50304F13C0101EB8301CA682946D4F88C
:104D5000080507F0D4FE70BD70B504460D4605EB9E
:104D6000C50304F51F7101EB8301CA682946D4F815
:104D7000080507F048FF70BD10B50446D4F80805D3
:104D800007F0C5FF10BD2DE9F04104460D4605F0C2
:104D90008000802808D105F00F0000EBC00104F16D
:104DA0003C0000EB810607E005F00F0000EBC001BE
:104DB00004F51F7000EB81063146206809F0F0F918
:104DC00007463846BDE8F08170B504460E4606F049
:104DD000800080280AD106F00F0000EBC00104F12A
:104DE0003C0000EB81050120687009E006F00F002F
:104DF00000EBC00104F51F7000EB81050020687016
:104E000006F00F00287000BF94F8BC04012801D1FF
:104E1000022070BD012084F8BC0400BF2946206830
:104E200008F05AFD00BF002084F8BC0400BF00BF9A
:104E3000EFE770B504460E4606F00F006168884241
:104E400001D9012070BD06F0800080280AD106F04B
:104E50000F0000EBC00104F13C0000EB81050120D4
:104E6000687009E006F00F0000EBC00104F51F7048
:104E700000EB8105002068700020A87006F00F008C
:104E8000287000BF94F8BC04012801D10220D9E7A2
:104E9000012084F8BC0400BF2946206808F012FFF6
:104EA00000BF002084F8BC0400BF00BFCAE7024670
:104EB00001F00F0000EBC00302F51F7000EB830050
:104EC000406970472DE9F04705460E4690461F465B
:104ED0004FF0000906F0800080280AD106F00F008C
:104EE00000EBC00105F13C0000EB81040120607083
:104EF00009E006F00F0000EBC00105F51F7000EBA4
:104F000081040020607006F00F002070C4F8088053
:104F10002771607808B120786083022F01D10020CA
:104F2000607100BF95F8BC04012802D10220BDE8E1
:104F3000F087012085F8BC0400BF2146286808F0EE
:104F4000D7FB00BF002085F8BC0400BF4846EEE751
:104F50002DE9F04105460E461746984606F00F002B
:104F600000EBC00105F51F7000EB8104E760C4F899
:104F7000108000206061607006F00F002070E8680B
:104F8000012800D1E7612A7B2146286808F02EFF1E
:104F90000020BDE8F08170B504460D4605F00F0015
:104FA0006168884201D9012070BD05F08000802829
:104FB0000AD105F00F0000EBC00104F13C0000EB4A
:104FC00081060120707007E005EBC50104F51F7034
:104FD00000EB8106002070700120B07005F00F001A
:104FE000307000BF94F8BC04012801D10220DBE737
:104FF000012084F8BC0400BF3146206808F0A9FEF7
:1050000005F00F0028B9217B04F2C442206808F0A3
:1050100021FE00BF002084F8BC0400BF00BFC3E72E
:105020002DE9F04105460E461746984606F00F005A
:1050300000EBC00105F13C0000EB8104E760C4F81F
:105040001080002060610120607006F00F00207069
:10505000E868012800D1E7612A7B2146286808F02A
:10506000C5FE0020BDE8F0812DE9FE4F0446D4F8CE
:1050700000B05E46206809F07AF9002874D12068F3
:1050800009F0B4F908B9BDE8FE8F40F60800805970
:10509000C0F30D20C4F8FC04206809F0A7F900F063
:1050A0000200022805D12068406900F00200216852
:1050B0004861206809F09AF900F01000102845D1E5
:1050C0002068806920F0100021688861DBF820905A
:1050D00009F00F0000EBC00104F51F7000EB810A1E
:1050E000C9F3434002281AD147F6F07009EA0000DC
:1050F00030B3C9F30A125846DAF80C1009F07BF9FC
:10510000C9F30A11DAF80C000844CAF80C00C9F314
:105110000A11DAF814000844CAF8140010E0C9F3C0
:10512000434006280CD1082204F2C441584609F035
:1051300062F9C9F30A11DAF814000844CAF8140035
:105140002068806940F0100021688861206809F0BB
:105150004DF900F40020B0F5002F7BD10025206828
:1051600009F014F9029072E003E3029800F00100E4
:10517000002868D0E9B2206809F02BF9804608F0D1
:10518000010048B1012106F5306000EB4510816057
:105190002946204604F016FA08F00800082809D12C
:1051A000082106F5306000EB451081602946204655
:1051B00004F0D6F908F01000102805D1102106F5EA
:1051C000306000EB4510816008F00200022824D115
:1051D000DBF8140000F08000802807D140F60400BE
:1051E000805940F4806140F60400815105EBC5010F
:1051F00004F51F7000EB810A9AF80300012806D11C
:1052000000208AF80300E9B2204600F0BDFA02212E
:1052100006F5306000EB4510816008F02000202882
:1052200005D1202106F5306000EB4510816008F4BF
:105230000050B0F5005F06D14FF4005106F5306024
:1052400000EB451081606D1C0298400802900298A6
:1052500000288AD1206809F0C9F800F48020B0F550
:10526000802F7DD1206809F087F8029000259AE010
:10527000029800F00100002873D0E9B2206809F01C
:105280008FF8804608F00100F0B305F00F0101200F
:105290008840019040F634008159019821EA0000CD
:1052A00040F634018851012106F5106000EB4510ED
:1052B0008160E068012824D105EBC50104F13C00C0
:1052C00000EB810005EBC502C16804F13C0000EB76
:1052D00082008068014405EBC50204F13C0000EB4C
:1052E0008200C1606DB905EBC50104F13C0000EB23
:1052F0008100006928B904F2C4420121206808F045
:10530000A9FCE9B2204600E001E0FFF715FD08F036
:105310000800082805D1082106F5106000EB4510AB
:10532000816008F01000102805D1102106F51060EA
:1053300000EB4510816008F04000402805D1402175
:1053400006F5106000EB4510816008F002000228AD
:105350001DD12946584608F0CBFF05EBC50101E0F9
:1053600025E01CE004F13C0000EB810A9AF8030000
:10537000012806D100208AF80300E9B2204600F097
:10538000FAF9022106F5106000EB4510816008F083
:105390008000802803D12946204604F0B5F96D1C11
:1053A000029840080290029800287FF461AF2068BC
:1053B00009F01CF800F00040B0F1004F1CD140F69D
:1053C0000400805920F0010140F60400815194F856
:1053D000F404012807D1002084F8F40400212046B9
:1053E000FFF776FC02E0204600F004FB20684069ED
:1053F00000F0004021684861206808F0F7FF00F4E1
:105400000060B0F5006F0ED140F60800805900F042
:10541000010010B1204600F045FB2068406900F40F
:10542000006021684861206808F0E0FF00F000603B
:10543000B0F1006F19D12068406900F00060216868
:10544000486194F8F40468B9012084F8F4042068F1
:10545000406DC0F38300C4F8F80401212046FFF733
:1054600037FC02E0204600F01DFB206808F0BEFF7C
:1054700000F48050B0F5805F7ED140F60400805982
:1054800020F0010140F6040081511021206808F04D
:105490002FFF002732E04FF67F3106F5106000EB5A
:1054A0004710816006F5106000EB4710006820F49B
:1054B000001106F5106000EB471001604FF67F31D8
:1054C00006F5306000EB4710816006F5306000EBB8
:1054D0004710006820F4001106F5306000EB47101B
:1054E000016006F5306000EB4710006840F0006195
:1054F00006F5306000EB471001607F1C6068B84221
:10550000C9D840F61C00805940F0011140F61C003B
:105510008151206B70B1D6F8840840F00B01C6F8B9
:10552000841840F64400805940F00B0140F64400D6
:1055300081510FE040F61400805942F22B010843DC
:1055400040F614018851081F805940F00B014FF4B8
:1055500001608151D6F8000820F4FE60C6F800080A
:10556000217B04F2C442206808F074FB2068406983
:1055700000F48050216800E000E04861206808F0F5
:1055800035FF00F40050B0F5005F17D1206808F037
:1055900017F9206808F0D8FE206101F093FD009013
:1055A000227C2068009908F0A9FF204600F00AFA42
:1055B0002068406900F4005021684861206808F0C4
:1055C00015FF00F00800082808D1204600F019FA5D
:1055D0002068406900F0080021684861206808F0F0
:1055E00005FF00F08000802818D1DBF8180020F0BB
:1055F0008000CBF8180001250DE005EBC50104F58E
:105600001F7000EB8100C078012803D1E9B2204669
:10561000FFF7B9FB6D1C6068A842EED8206808F05F
:10562000E5FE00F48010B0F5801F2DD1012522E0A9
:1056300006F5106000EB4510D0F8009005EBC501B1
:1056400004F13C0000EB81000079012812D109F03F
:105650000040B0F1004F0DD1012105EBC50204F16E
:105660003C0000EB8200C170E8B240F080012046AF
:10567000FFF789FB6D1C6068A842D9D82068406993
:1056800000F4801021684861206808F0AFFE00F443
:105690000010B0F5001F44D1012538E006F5306058
:1056A00000EB4510D0F8009005EBC50104F51F7024
:1056B00000EB81000079012828D109F00040B0F109
:1056C000004F23D109F4803094F8FC1401F001015B
:1056D00088421BD1012105EBC50204F51F7000EBC8
:1056E0008200C170DBF8180040F08000CBF8180091
:1056F000DBF8140000F0800040B940F60400805947
:1057000040F4007140F60400815103E06D1C6068B4
:10571000A842C3D800BF2068406900F40010216887
:105720004861206808F062FE00F08040B0F1804FD0
:1057300008D12046FFF7F9FA2068406900F0804060
:1057400021684861206808F051FE00F00400042838
:105750000FD12068D0F8049009F00400042802D189
:105760002046FFF709FB2068406840EA09002168ED
:10577000486000BF87E470B504460D462946D4F85A
:10578000080507F035FB70BD70B504460D46294687
:10579000D4F8080507F050FB70BD70B58AB0044618
:1057A00014B901200AB070BD266894F8BD0428B968
:1057B000002084F8BC04204600F0A8F8032084F8F8
:1057C000BD04F06B00F4807008B90021E16020682E
:1057D00008F038FA282204F110016846FBF79BF81C
:1057E00094E80F0008F000F820B1022084F8BD040E
:1057F0000120D7E70021206808F02DFE002531E0C8
:10580000012105EBC50204F13C0000EB8200417070
:1058100005EBC50104F13C0000F8215005EBC50182
:1058200000EB81004583002105EBC50204F13C003B
:1058300000EB8200017105EBC50204F13C0000EBB6
:105840008200816005EBC50204F13C0000EB8200A0
:10585000C16005EBC50204F13C0000EB8200016170
:10586000681CC5B26068A842CAD800252AE0002199
:1058700005EBC50204F51F7000EB8200417005EBDB
:10588000C50104F51F7000F82150002105EBC50289
:1058900000EB8200017105EBC50204F51F7000EBFF
:1058A0008200816005EBC50204F51F7000EB8200E9
:1058B000C16005EBC50204F51F7000EB82000161B9
:1058C000681CC5B26068A842D1D8282204F1100132
:1058D0006846FBF720F894E80F0008F0C7F820B1FD
:1058E000022084F8BD0401205CE7002084F8380021
:1058F000012084F8BD04606A012802D12046FFF728
:10590000D3F9206808F0A0F800204BE710B5B8B034
:105910000446142132A8FBF75AF8C02102A8FBF76D
:1059200056F825492068884243D14FF48021002051
:10593000CDE902104FF44010249002A800F048FB7B
:1059400008B1FBF730FE00F0F7F800BF1B48006815
:1059500040F00200194908600846006800F00200A3
:10596000019000BF00BF4FF44040329002203390BE
:105970000020349035900C20369032A91048FEF764
:10598000F1FE00BF0D480838006840F000700B4978
:10599000083908600846006800F00070019000BFF8
:1059A00000BF002205214D20FFF72CF94D20FFF705
:1059B00015F938B010BD000000000440E044025862
:1059C0000004025870B504460125206908B9002575
:1059D00006E02069022801D1012501E0FBF7E3FD83
:1059E0002946D4F8080507F0D0FAD4F8080507F0DE
:1059F00077FA70BD10B50446D4F8080507F0A6FA8A
:105A000010BD10B50446D4F8080507F0AAFA10BD79
:105A100070B504460D4600BF94F8BC04012801D1BE
:105A2000022070BD012084F8BC0400BF84F8385007
:105A30002946206808F043FD00BF002084F8BC041C
:105A400000BF00BFEDE710B5044604F2C441D4F82E
:105A5000080507F0B1FA10BD70B50446256800BF0F
:105A600094F8BC04012801D1022070BD012084F803
:105A7000BC0400BFE86B00F4807030B9A06A012854
:105A800003D1A86B40F48030A863206808F0FEFBC7
:105A9000206807F0C7FF00BF002084F8BC0400BFE7
:105AA00000BFE2E710B50446D4F8080507F0E1FAB4
:105AB0002068D0F8000E40F001002168C1F8000E07
:105AC000206A28B10348006840F0060001490860D8
:105AD00010BD000010ED00E070B5044615480068E8
